{"abi":[{"type":"function","name":"NATIVE","inputs":[],"outputs":[{"name":"","type":"address","internalType":"Currency"}],"stateMutability":"view"},{"type":"error","name":"ERC20TransferFailed","inputs":[]},{"type":"error","name":"NativeTransferFailed","inputs":[]}],"bytecode":{"object":"0x60808060405234601857606f908161001d823930815050f35b5f80fdfe60808060405260043610156011575f80fd5b5f3560e01c63a0cf0aea146023575f80fd5b5f366003190112603557805f60209252f35b5f80fdfea26469706673582212201addc65d4ba3b2bcd1c46a2cbb301ddeed9820bab33a3c63390abf0eddeaae5064736f6c63430008180033","linkReferences":{}},"methodIdentifiers":{"NATIVE()":"a0cf0aea"},"id":43}