{"abi":[{"type":"constructor","inputs":[{"name":"_vault","type":"address","internalType":"contract IVault"},{"name":"_poolManager","type":"address","internalType":"contract ICLPoolManager"},{"name":"_tokenDescriptor_","type":"address","internalType":"address"},{"name":"_WETH9","type":"address","internalType":"address"}],"stateMutability":"nonpayable"},{"type":"receive","stateMutability":"payable"},{"type":"function","name":"DOMAIN_SEPARATOR","inputs":[],"outputs":[{"name":"","type":"bytes32","internalType":"bytes32"}],"stateMutability":"view"},{"type":"function","name":"PERMIT_TYPEHASH","inputs":[],"outputs":[{"name":"","type":"bytes32","internalType":"bytes32"}],"stateMutability":"pure"},{"type":"function","name":"WETH9","inputs":[],"outputs":[{"name":"","type":"address","internalType":"address"}],"stateMutability":"view"},{"type":"function","name":"approve","inputs":[{"name":"to","type":"address","internalType":"address"},{"name":"tokenId","type":"uint256","internalType":"uint256"}],"outputs":[],"stateMutability":"nonpayable"},{"type":"function","name":"balanceOf","inputs":[{"name":"owner","type":"address","internalType":"address"}],"outputs":[{"name":"","type":"uint256","internalType":"uint256"}],"stateMutability":"view"},{"type":"function","name":"burn","inputs":[{"name":"tokenId","type":"uint256","internalType":"uint256"}],"outputs":[],"stateMutability":"payable"},{"type":"function","name":"collect","inputs":[{"name":"params","type":"tuple","internalType":"struct INonfungiblePositionManager.CollectParams","components":[{"name":"tokenId","type":"uint256","internalType":"uint256"},{"name":"recipient","type":"address","internalType":"address"},{"name":"amount0Max","type":"uint128","internalType":"uint128"},{"name":"amount1Max","type":"uint128","internalType":"uint128"}]}],"outputs":[{"name":"amount0","type":"uint256","internalType":"uint256"},{"name":"amount1","type":"uint256","internalType":"uint256"}],"stateMutability":"payable"},{"type":"function","name":"decreaseLiquidity","inputs":[{"name":"params","type":"tuple","internalType":"struct INonfungiblePositionManager.DecreaseLiquidityParams","components":[{"name":"tokenId","type":"uint256","internalType":"uint256"},{"name":"liquidity","type":"uint128","internalType":"uint128"},{"name":"amount0Min","type":"uint256","internalType":"uint256"},{"name":"amount1Min","type":"uint256","internalType":"uint256"},{"name":"deadline","type":"uint256","internalType":"uint256"}]}],"outputs":[{"name":"amount0","type":"uint256","internalType":"uint256"},{"name":"amount1","type":"uint256","internalType":"uint256"}],"stateMutability":"payable"},{"type":"function","name":"getApproved","inputs":[{"name":"tokenId","type":"uint256","internalType":"uint256"}],"outputs":[{"name":"","type":"address","internalType":"address"}],"stateMutability":"view"},{"type":"function","name":"increaseLiquidity","inputs":[{"name":"params","type":"tuple","internalType":"struct INonfungiblePositionManager.IncreaseLiquidityParams","components":[{"name":"tokenId","type":"uint256","internalType":"uint256"},{"name":"amount0Desired","type":"uint256","internalType":"uint256"},{"name":"amount1Desired","type":"uint256","internalType":"uint256"},{"name":"amount0Min","type":"uint256","internalType":"uint256"},{"name":"amount1Min","type":"uint256","internalType":"uint256"},{"name":"deadline","type":"uint256","internalType":"uint256"}]}],"outputs":[{"name":"liquidity","type":"uint128","internalType":"uint128"},{"name":"amount0","type":"uint256","internalType":"uint256"},{"name":"amount1","type":"uint256","internalType":"uint256"}],"stateMutability":"payable"},{"type":"function","name":"initialize","inputs":[{"name":"poolKey","type":"tuple","internalType":"struct PoolKey","components":[{"name":"currency0","type":"address","internalType":"Currency"},{"name":"currency1","type":"address","internalType":"Currency"},{"name":"hooks","type":"address","internalType":"contract IHooks"},{"name":"poolManager","type":"address","internalType":"contract IPoolManager"},{"name":"fee","type":"uint24","internalType":"uint24"},{"name":"parameters","type":"bytes32","internalType":"bytes32"}]},{"name":"sqrtPriceX96","type":"uint160","internalType":"uint160"},{"name":"hookData","type":"bytes","internalType":"bytes"}],"outputs":[{"name":"tick","type":"int24","internalType":"int24"}],"stateMutability":"payable"},{"type":"function","name":"isApprovedForAll","inputs":[{"name":"owner","type":"address","internalType":"address"},{"name":"operator","type":"address","internalType":"address"}],"outputs":[{"name":"","type":"bool","internalType":"bool"}],"stateMutability":"view"},{"type":"function","name":"lockAcquired","inputs":[{"name":"rawData","type":"bytes","internalType":"bytes"}],"outputs":[{"name":"","type":"bytes","internalType":"bytes"}],"stateMutability":"nonpayable"},{"type":"function","name":"mint","inputs":[{"name":"params","type":"tuple","internalType":"struct INonfungiblePositionManager.MintParams","components":[{"name":"poolKey","type":"tuple","internalType":"struct PoolKey","components":[{"name":"currency0","type":"address","internalType":"Currency"},{"name":"currency1","type":"address","internalType":"Currency"},{"name":"hooks","type":"address","internalType":"contract IHooks"},{"name":"poolManager","type":"address","internalType":"contract IPoolManager"},{"name":"fee","type":"uint24","internalType":"uint24"},{"name":"parameters","type":"bytes32","internalType":"bytes32"}]},{"name":"tickLower","type":"int24","internalType":"int24"},{"name":"tickUpper","type":"int24","internalType":"int24"},{"name":"salt","type":"bytes32","internalType":"bytes32"},{"name":"amount0Desired","type":"uint256","internalType":"uint256"},{"name":"amount1Desired","type":"uint256","internalType":"uint256"},{"name":"amount0Min","type":"uint256","internalType":"uint256"},{"name":"amount1Min","type":"uint256","internalType":"uint256"},{"name":"recipient","type":"address","internalType":"address"},{"name":"deadline","type":"uint256","internalType":"uint256"}]}],"outputs":[{"name":"tokenId","type":"uint256","internalType":"uint256"},{"name":"liquidity","type":"uint128","internalType":"uint128"},{"name":"amount0","type":"uint256","internalType":"uint256"},{"name":"amount1","type":"uint256","internalType":"uint256"}],"stateMutability":"payable"},{"type":"function","name":"multicall","inputs":[{"name":"data","type":"bytes[]","internalType":"bytes[]"}],"outputs":[{"name":"results","type":"bytes[]","internalType":"bytes[]"}],"stateMutability":"payable"},{"type":"function","name":"name","inputs":[],"outputs":[{"name":"","type":"string","internalType":"string"}],"stateMutability":"view"},{"type":"function","name":"ownerOf","inputs":[{"name":"tokenId","type":"uint256","internalType":"uint256"}],"outputs":[{"name":"","type":"address","internalType":"address"}],"stateMutability":"view"},{"type":"function","name":"permit","inputs":[{"name":"spender","type":"address","internalType":"address"},{"name":"tokenId","type":"uint256","internalType":"uint256"},{"name":"deadline","type":"uint256","internalType":"uint256"},{"name":"v","type":"uint8","internalType":"uint8"},{"name":"r","type":"bytes32","internalType":"bytes32"},{"name":"s","type":"bytes32","internalType":"bytes32"}],"outputs":[],"stateMutability":"payable"},{"type":"function","name":"poolManager","inputs":[],"outputs":[{"name":"","type":"address","internalType":"contract ICLPoolManager"}],"stateMutability":"view"},{"type":"function","name":"positions","inputs":[{"name":"tokenId","type":"uint256","internalType":"uint256"}],"outputs":[{"name":"nonce","type":"uint96","internalType":"uint96"},{"name":"operator","type":"address","internalType":"address"},{"name":"currency0","type":"address","internalType":"Currency"},{"name":"currency1","type":"address","internalType":"Currency"},{"name":"fee","type":"uint24","internalType":"uint24"},{"name":"tickLower","type":"int24","internalType":"int24"},{"name":"tickUpper","type":"int24","internalType":"int24"},{"name":"liquidity","type":"uint128","internalType":"uint128"},{"name":"feeGrowthInside0LastX128","type":"uint256","internalType":"uint256"},{"name":"feeGrowthInside1LastX128","type":"uint256","internalType":"uint256"},{"name":"tokensOwed0","type":"uint128","internalType":"uint128"},{"name":"tokensOwed1","type":"uint128","internalType":"uint128"},{"name":"salt","type":"bytes32","internalType":"bytes32"}],"stateMutability":"view"},{"type":"function","name":"refundETH","inputs":[],"outputs":[],"stateMutability":"payable"},{"type":"function","name":"safeTransferFrom","inputs":[{"name":"from","type":"address","internalType":"address"},{"name":"to","type":"address","internalType":"address"},{"name":"tokenId","type":"uint256","internalType":"uint256"}],"outputs":[],"stateMutability":"nonpayable"},{"type":"function","name":"safeTransferFrom","inputs":[{"name":"from","type":"address","internalType":"address"},{"name":"to","type":"address","internalType":"address"},{"name":"tokenId","type":"uint256","internalType":"uint256"},{"name":"data","type":"bytes","internalType":"bytes"}],"outputs":[],"stateMutability":"nonpayable"},{"type":"function","name":"selfPermit","inputs":[{"name":"token","type":"address","internalType":"address"},{"name":"value","type":"uint256","internalType":"uint256"},{"name":"deadline","type":"uint256","internalType":"uint256"},{"name":"v","type":"uint8","internalType":"uint8"},{"name":"r","type":"bytes32","internalType":"bytes32"},{"name":"s","type":"bytes32","internalType":"bytes32"}],"outputs":[],"stateMutability":"payable"},{"type":"function","name":"selfPermitAllowed","inputs":[{"name":"token","type":"address","internalType":"address"},{"name":"nonce","type":"uint256","internalType":"uint256"},{"name":"expiry","type":"uint256","internalType":"uint256"},{"name":"v","type":"uint8","internalType":"uint8"},{"name":"r","type":"bytes32","internalType":"bytes32"},{"name":"s","type":"bytes32","internalType":"bytes32"}],"outputs":[],"stateMutability":"payable"},{"type":"function","name":"selfPermitAllowedIfNecessary","inputs":[{"name":"token","type":"address","internalType":"address"},{"name":"nonce","type":"uint256","internalType":"uint256"},{"name":"expiry","type":"uint256","internalType":"uint256"},{"name":"v","type":"uint8","internalType":"uint8"},{"name":"r","type":"bytes32","internalType":"bytes32"},{"name":"s","type":"bytes32","internalType":"bytes32"}],"outputs":[],"stateMutability":"payable"},{"type":"function","name":"selfPermitIfNecessary","inputs":[{"name":"token","type":"address","internalType":"address"},{"name":"value","type":"uint256","internalType":"uint256"},{"name":"deadline","type":"uint256","internalType":"uint256"},{"name":"v","type":"uint8","internalType":"uint8"},{"name":"r","type":"bytes32","internalType":"bytes32"},{"name":"s","type":"bytes32","internalType":"bytes32"}],"outputs":[],"stateMutability":"payable"},{"type":"function","name":"setApprovalForAll","inputs":[{"name":"operator","type":"address","internalType":"address"},{"name":"approved","type":"bool","internalType":"bool"}],"outputs":[],"stateMutability":"nonpayable"},{"type":"function","name":"supportsInterface","inputs":[{"name":"interfaceId","type":"bytes4","internalType":"bytes4"}],"outputs":[{"name":"","type":"bool","internalType":"bool"}],"stateMutability":"view"},{"type":"function","name":"sweepToken","inputs":[{"name":"currency","type":"address","internalType":"Currency"},{"name":"amountMinimum","type":"uint256","internalType":"uint256"},{"name":"recipient","type":"address","internalType":"address"}],"outputs":[],"stateMutability":"payable"},{"type":"function","name":"symbol","inputs":[],"outputs":[{"name":"","type":"string","internalType":"string"}],"stateMutability":"view"},{"type":"function","name":"tokenByIndex","inputs":[{"name":"index","type":"uint256","internalType":"uint256"}],"outputs":[{"name":"","type":"uint256","internalType":"uint256"}],"stateMutability":"view"},{"type":"function","name":"tokenOfOwnerByIndex","inputs":[{"name":"owner","type":"address","internalType":"address"},{"name":"index","type":"uint256","internalType":"uint256"}],"outputs":[{"name":"","type":"uint256","internalType":"uint256"}],"stateMutability":"view"},{"type":"function","name":"tokenURI","inputs":[{"name":"tokenId","type":"uint256","internalType":"uint256"}],"outputs":[{"name":"","type":"string","internalType":"string"}],"stateMutability":"view"},{"type":"function","name":"totalSupply","inputs":[],"outputs":[{"name":"","type":"uint256","internalType":"uint256"}],"stateMutability":"view"},{"type":"function","name":"transferFrom","inputs":[{"name":"from","type":"address","internalType":"address"},{"name":"to","type":"address","internalType":"address"},{"name":"tokenId","type":"uint256","internalType":"uint256"}],"outputs":[],"stateMutability":"nonpayable"},{"type":"function","name":"unwrapWETH9","inputs":[{"name":"amountMinimum","type":"uint256","internalType":"uint256"},{"name":"recipient","type":"address","internalType":"address"}],"outputs":[],"stateMutability":"payable"},{"type":"function","name":"vault","inputs":[],"outputs":[{"name":"","type":"address","internalType":"contract IVault"}],"stateMutability":"view"},{"type":"event","name":"Approval","inputs":[{"name":"owner","type":"address","indexed":true,"internalType":"address"},{"name":"approved","type":"address","indexed":true,"internalType":"address"},{"name":"tokenId","type":"uint256","indexed":true,"internalType":"uint256"}],"anonymous":false},{"type":"event","name":"ApprovalForAll","inputs":[{"name":"owner","type":"address","indexed":true,"internalType":"address"},{"name":"operator","type":"address","indexed":true,"internalType":"address"},{"name":"approved","type":"bool","indexed":false,"internalType":"bool"}],"anonymous":false},{"type":"event","name":"Collect","inputs":[{"name":"tokenId","type":"uint256","indexed":true,"internalType":"uint256"},{"name":"recipient","type":"address","indexed":false,"internalType":"address"},{"name":"amount0","type":"uint256","indexed":false,"internalType":"uint256"},{"name":"amount1","type":"uint256","indexed":false,"internalType":"uint256"}],"anonymous":false},{"type":"event","name":"DecreaseLiquidity","inputs":[{"name":"tokenId","type":"uint256","indexed":true,"internalType":"uint256"},{"name":"liquidity","type":"uint128","indexed":false,"internalType":"uint128"},{"name":"amount0","type":"uint256","indexed":false,"internalType":"uint256"},{"name":"amount1","type":"uint256","indexed":false,"internalType":"uint256"}],"anonymous":false},{"type":"event","name":"IncreaseLiquidity","inputs":[{"name":"tokenId","type":"uint256","indexed":true,"internalType":"uint256"},{"name":"liquidity","type":"uint128","indexed":false,"internalType":"uint128"},{"name":"amount0","type":"uint256","indexed":false,"internalType":"uint256"},{"name":"amount1","type":"uint256","indexed":false,"internalType":"uint256"}],"anonymous":false},{"type":"event","name":"Transfer","inputs":[{"name":"from","type":"address","indexed":true,"internalType":"address"},{"name":"to","type":"address","indexed":true,"internalType":"address"},{"name":"tokenId","type":"uint256","indexed":true,"internalType":"uint256"}],"anonymous":false},{"type":"error","name":"InsufficientToken","inputs":[]},{"type":"error","name":"InvalidCalldataType","inputs":[]},{"type":"error","name":"InvalidLiquidityDecreaseAmount","inputs":[]},{"type":"error","name":"InvalidMaxCollectAmount","inputs":[]},{"type":"error","name":"InvalidTokenID","inputs":[]},{"type":"error","name":"NonEmptyPosition","inputs":[]},{"type":"error","name":"NonexistentToken","inputs":[]},{"type":"error","name":"NotOwnerOrOperator","inputs":[]},{"type":"error","name":"OnlyVaultCaller","inputs":[]},{"type":"error","name":"PriceSlippageCheckFailed","inputs":[]},{"type":"error","name":"SafeCastOverflow","inputs":[]},{"type":"error","name":"TransactionTooOld","inputs":[]}],"bytecode":{"object":"0x61014034620004d857601f620057b538819003918201601f19168301916001600160401b03831184841017620003e557808492608094604052833981010312620004d85780516001600160a01b0391908281168103620004d85760208201519283168303620004d8576200008460606200007c60408501620004fc565b9301620004fc565b6200008e620004dc565b601b81527f50616e63616b6520563420506f736974696f6e73204e46542d563100000000006020820152620000c2620004dc565b90600a8252695043532d56342d504f5360b01b6020830152620000e4620004dc565b60018152603160f81b602082015281519092906001600160401b038111620003e5575f54600181811c91168015620004cd575b6020821014620003c657601f811162000478575b50806020601f821160011462000405575f91620003f9575b508160011b915f199060031b1c1916175f555b8051906001600160401b038211620003e55760015490600182811c92168015620003da575b6020831014620003c65781601f84931162000365575b50602090601f8311600114620002ee575f92620002e2575b50508160011b915f199060031b1c1916176001555b602081519101206080526020815191012060a05260c05260e0526101009182526001600a55610120908152604051906152639283620005128439608051836123e4015260a0518361240a015260c051838181611230015261128c015260e0518381816102f80152818161040301528181610833015281816119d401528181611bda0152818161262c0152818161362f01528181613698015281816142cc015281816143c30152818161445801528181614535015281816145ae0152818161470d0152818161477001528181614c5e0152614ccf0152518281816105110152818161189f015281816129e801528181612eae015281816131e4015281816132890152818161383b015281816138bd015281816139c90152614891015251816105930152f35b015190505f80620001a9565b60015f9081525f80516020620057958339815191529350601f198516905b8181106200034c575090846001959493921062000333575b505050811b01600155620001be565b01515f1960f88460031b161c191690555f808062000324565b929360206001819287860151815501950193016200030c565b60015f529091505f8051602062005795833981519152601f840160051c81019160208510620003bb575b90601f859493920160051c01905b818110620003ac575062000191565b5f81558493506001016200039d565b90915081906200038f565b634e487b7160e01b5f52602260045260245ffd5b91607f16916200017b565b634e487b7160e01b5f52604160045260245ffd5b90508301515f62000143565b5f80805292505f8051602062005775833981519152905b601f19831684106200045f576001935082601f1981161062000446575b5050811b015f5562000156565b8501515f1960f88460031b161c191690555f8062000439565b858101518255602093840193600190920191016200041c565b5f80525f8051602062005775833981519152601f830160051c81019160208410620004c2575b601f0160051c01905b818110620004b657506200012b565b5f8155600101620004a7565b90915081906200049e565b90607f169062000117565b5f80fd5b60408051919082016001600160401b03811183821017620003e557604052565b51906001600160a01b0382168203620004d85756fe608080604052600436101561001c575b50361561001a575f80fd5b005b5f905f3560e01c90816301ffc9a714611eeb5750806306fdde0314611df9578063081812fc14611ddb578063095ea7b314611cae5780630c49ccbe14611afe57806312210e8a14611ae257806318160ddd14611ac5578063219f5d1714611910578063222bb36b146117a657806323b872dd1461177d5780632f745c59146116cf57806330adf81f146116955780633644e5151461167b57806342842e0e1461164357806342966c681461138c5780634659a4941461137457806349404b7c1461125f5780634aa4a4fc1461121a5780634f6ccce7146111885780636352211e1461115757806370a082311461112b5780637ac2ff7b1461101557806395d89b4114610f0557806399fbab8814610d15578063a22cb46514610c45578063a4a78f0c14610bb5578063ab6291fe14610b64578063ac9650d814610996578063b88d4fde14610943578063c12a1ef7146106c8578063c2e3140a14610621578063c87b56dd14610540578063dc4c90d3146104fb578063df2ab5bb146104a0578063e985e9c51461044e578063f3995c6714610432578063fbfa77cf146103ed5763fc6f78650361000f5760803660031901126103ea576040516101de8161205d565b6004358082526101ec611fcc565b6020908184019081526044356001600160801b0380821682036103e657604086019182526064359481861686036103e65761022e906060880196875233613bea565b156103d4578082511615806103c9575b6103b75782516001600160a01b03956102f29389936102c3936102d193908a908116806103b25750335b16885281604051938c518b8601528b8a5116604086015251166060840152511660808201526080815261029a81612094565b604051906102a782611ff8565b338252600388830152604082015260405192839188830161223f565b03601f1981018352826120af565b60405180938192638154831960e01b83528760048401526024830190611f91565b038183887f0000000000000000000000000000000000000000000000000000000000000000165af19081156103a7576103637f40d0efd1a53d60ecbf40971b9daf7dc90178c3aadc7aab1765632738fa8b8f01926060928960409a92610384575b50508580825183010191016122f2565b95909651935116875190815286858201528588820152a28351928352820152f35b6103a092503d8091833e61039881836120af565b810190612294565b5f80610353565b6040513d88823e3d90fd5b610268565b604051638e07416560e01b8152600490fd5b50808551161561023e565b604051634c7bb68760e11b8152600490fd5b5f80fd5b80fd5b50346103ea57806003193601126103ea576040517f00000000000000000000000000000000000000000000000000000000000000006001600160a01b03168152602090f35b5061044b61043f3661215a565b94939093929192613b17565b80f35b50346103ea5760403660031901126103ea57610468611fb6565b6040610472611fcc565b9260018060a01b03809316815260056020522091165f52602052602060ff60405f2054166040519015158152f35b5060603660031901126103ea576104b5611fb6565b6104bd611fe2565b6104c682614056565b9060243582106104e957816104d9578380f35b6104e292613c70565b5f80808380f35b604051630ceb95c760e31b8152600490fd5b50346103ea57806003193601126103ea576040517f00000000000000000000000000000000000000000000000000000000000000006001600160a01b03168152602090f35b50346103ea5760203660031901126103ea576004355f818152600260205260409020546001600160a01b03161561060f5760405163e9dc637560e01b8152306004820152602481019190915281816044817f00000000000000000000000000000000000000000000000000000000000000006001600160a01b03165afa90811561060457826105e593926105e9575b5050604051918291602083526020830190611f91565b0390f35b6105fd92503d8091833e61039881836120af565b5f806105cf565b6040513d84823e3d90fd5b60405163163a09e160e31b8152600490fd5b5061062b3661215a565b604051636eb1769f60e11b81523360048201523060248201529094919391906020816044816001600160a01b038b165afa80156106bd5782918991610688575b5010610675578680f35b61067e95613b17565b5f80808080808680f35b9150506020813d6020116106b5575b816106a4602093836120af565b810103126103e6578190515f61066b565b3d9150610697565b6040513d8a823e3d90fd5b506101e0806003193601126108ff576101c435804211610931576040516001600160a01b03929091836106f9611fb6565b16602084015283610708611fcc565b16604084015283610717611fe2565b166060840152836107266120d0565b16608084015262ffffff6107386120e6565b1660a084015260a43560c084015260c4358060020b8091036103e65760e084015260e4358060020b8091036103e65761010084015261010435610120840152610124356101408401526101443561016084015261016435610180840152610184356101a08401526101a4358481168091036103e6576101c08401528183015281526102008101908082106001600160401b0383111761091d5783926102c361080b8461082f9487966040526107ec82611ff8565b338252866102208201526102408101526040519283916020830161223f565b604051948580948193638154831960e01b8352602060048401526024830190611f91565b03927f0000000000000000000000000000000000000000000000000000000000000000165af1908115610604578291610903575b506080818051810103126108ff57602081015160809161088560408201612308565b906001600160801b0384606083015192015192847f3067048beee31b25b2f1681f88dac838c8bba36af25bfb2b7cf7473a5847e35f604051806108e4888887846040919493926001600160801b03606083019616825260208201520152565b0390a260405194855216602084015260408301526060820152f35b5080fd5b61091791503d8084833e61039881836120af565b5f610863565b634e487b7160e01b5f52604160045260245ffd5b604051632a0c45bf60e21b8152600490fd5b50346103ea5760803660031901126103ea5761095d611fb6565b610965611fcc565b606435916001600160401b0383116109925761098861044b9336906004016121b5565b9160443591613ad3565b8380fd5b506020806003193601126108ff576004356001600160401b03808211610992573660238301121561099257816004013590808211610b6057602460059236828260051b87010111610b5c57926109ee84979697613a79565b946109fc60405196876120af565b848652610a0885613a79565b601f1901875b818110610b4d575050368190036042190191875b868110610a885789898960405191838301848452825180915260408401948060408360051b870101940192955b828710610a5c5785850386f35b909192938280610a78600193603f198a82030186528851611f91565b9601920196019592919092610a4f565b8481839b9a9b1b8401013584811215610b495783018a868201358881116108ff576044809301908036038213610b4557829181604051928392833781018381520390305af490610ad6613a90565b9115610b00575090600191610aeb828b613abf565b52610af6818a613abf565b5001989798610a22565b818c8c92899451106103ea5750610b258184806004610b419501518301019101612294565b60405193849362461bcd60e51b85526004850152830190611f91565b0390fd5b8280fd5b8a80fd5b60608882018b01528901610a0e565b8680fd5b8480fd5b50346103ea5760203660031901126103ea57600435906001600160401b0382116103ea576105e5610ba1610b9b36600486016120f8565b90612629565b604051918291602083526020830190611f91565b50610bbf3661215a565b604051636eb1769f60e11b81523360048201523060248201529094919391906020816044816001600160a01b038b165afa9081156106bd578891610c13575b505f1911610c0a578680f35b61067e9561248b565b90506020813d602011610c3d575b81610c2e602093836120af565b810103126103e657515f610bfe565b3d9150610c21565b50346103ea5760403660031901126103ea57610c5f611fb6565b60243590811515809203610b45576001600160a01b031690338214610cd057338352600560205260408320825f5260205260405f2060ff1981541660ff83161790556040519081527f17307eab39ab6107e8899845ad3d59bd9653f200f220920489ca2b5937696c3160203392a380f35b60405162461bcd60e51b815260206004820152601960248201527f4552433732313a20617070726f766520746f2063616c6c6572000000000000006044820152606490fd5b50346103ea5760203660031901126103ea576004358152600c6020526040812060405190610d4282612041565b80546001600160601b038116835260601c602083015260066001820154918260408501526001600160801b0360028201548060020b60608701528060181c60020b608087015260301c1660a0850152600381015460c0850152600481015460e085015260058101546001600160801b03811661010086015260801c610120850152015461014083015215610ef35760406101a092818301518152600b6020522060405191610def83612013565b60018060a01b03928383541690818152846001850154169081602082015285600286015416604082015260a06004600387015496888816606085015262ffffff88841c16608085015201549101526001600160601b038351169460208401511693606084015160020b608085015160020b6001600160801b0360a0870151169162ffffff60c08801519460e0890151966001600160801b036101008b015116986101406001600160801b036101208d0151169b01519b60206040519e8f908152015260408d015260608c015260a01c1660808a015260a089015260c088015260e0870152610100860152610120850152610140840152610160830152610180820152f35b604051636aa2a93760e01b8152600490fd5b50346103ea57806003193601126103ea576040519080600191600154928360011c926001851694851561100b575b6020958686108114610ff757858852879493929187908215610fd5575050600114610f7b575b5050610f67925003836120af565b6105e5604051928284938452830190611f91565b90859250600182527fb10e2d527612073b26eecdfd717e6a320cf44b4afac2b0732d9fcbe2b7fa0cf65b858310610fbd575050610f6793508201015f80610f59565b80548389018501528794508693909201918101610fa5565b9250935050610f6794915060ff191682840152151560051b8201015f80610f59565b634e487b7160e01b83526022600452602483fd5b93607f1693610f33565b5061101f3661215a565b9594939273__$38f0c4a75ac04a6e634498b7a97e72f209$__966110428561254f565b9061104b6123d5565b98868952600c60205260408920998a54906001600160601b039b8c8316928d8414611117578c9d6001859e9c9d9e0116906001600160601b031916179055823b15611113578a610124958b958b9960ff6040519c8d9b8c9a634a46a0a960e11b8c5260018060a01b0380981660048d015260248c015260448b0152166064890152608488015260a48701521660c485015260e48401526101048301525af48015610604576110ff575b505061044b91613b7f565b6111089061202e565b610b4557825f6110f4565b8880fd5b634e487b7160e01b8d52601160045260248dfd5b50346103ea5760203660031901126103ea57602061114f61114a611fb6565b6125b4565b604051908152f35b50346103ea5760203660031901126103ea57602061117660043561254f565b6040516001600160a01b039091168152f35b50346103ea5760203660031901126103ea576004356008548110156111c0576111b2602091612506565b90546040519160031b1c8152f35b60405162461bcd60e51b815260206004820152602c60248201527f455243373231456e756d657261626c653a20676c6f62616c20696e646578206f60448201526b7574206f6620626f756e647360a01b6064820152608490fd5b50346103ea57806003193601126103ea576040517f00000000000000000000000000000000000000000000000000000000000000006001600160a01b03168152602090f35b5060403660031901126103e657611274611fcc565b6040516370a0823160e01b81523060048201529091907f00000000000000000000000000000000000000000000000000000000000000006001600160a01b0316602082602481845afa918215611335575f92611340575b5060043582106104e957816112de578280f35b803b156103e6575f8091602460405180948193632e1a7d4d60e01b83528760048401525af1801561133557611320575b506113199192613c54565b805f808280f35b611319925061132e9061202e565b5f9161130e565b6040513d5f823e3d90fd5b9091506020813d60201161136c575b8161135c602093836120af565b810103126103e65751905f6112cb565b3d915061134f565b61001a6113803661215a565b9493909392919261248b565b6020806003193601126103e657600435906113a78233613bea565b156103d457815f52600c815260405f206001600160801b039081600282015460301c161591821592611633575b508115611622575b5061161057815f52600c81525f600660408220828155826001820155826002820155826003820155826004820155826005820155015561141b8261254f565b6001600160a01b03908082169081611587575050600854835f52600983528060405f2055600160401b81101561091d5761147561145f826001879401600855612506565b819391549060031b91821b915f19901b19161790565b90555b6008545f19919082810190811161157357845f526009845261149e60405f205491612506565b90549060031b1c806114b261145f84612506565b90555f526009845260405f2055835f525f6040812055600854801561155f575f9383600292016114e181612506565b8682549160031b1b191690556008556114f98661254f565b928686526004825260408620936001600160601b0360a01b948581541690551693848652600382526040862090815401905585855252604083209081541690557fddf252ad1be2c89b69c2b068fc378daa952ba7f163c4a11628f55a4df523b3ef8280a4005b634e487b7160e01b5f52603160045260245ffd5b634e487b7160e01b5f52601160045260245ffd5b611590906125b4565b5f1981019190821161157357845f526007845260405f20548281036115d4575b50845f525f60408120555f526006835260405f20905f5282525f6040812055611478565b815f526006855260405f20835f52855260405f2054825f526006865260405f20825f5286528060405f20555f526007855260405f2055856115b0565b60405163e338901160e01b8152600490fd5b60059150015460801c1515836113dc565b60058201541615159150846113d4565b346103e65761165136612125565b6040519160208301938385106001600160401b0386111761091d5761001a946040525f8452613ad3565b346103e6575f3660031901126103e657602061114f6123d5565b346103e6575f3660031901126103e65760206040517f49ecf333e5b8c95c40fdafc95c1ad136e8914a8fb55e9dc8bb01eaa83a2df9ad8152f35b346103e65760403660031901126103e6576116e8611fb6565b602435906116f5816125b4565b8210156117245760018060a01b03165f52600660205260405f20905f52602052602060405f2054604051908152f35b60405162461bcd60e51b815260206004820152602b60248201527f455243373231456e756d657261626c653a206f776e657220696e646578206f7560448201526a74206f6620626f756e647360a81b6064820152608490fd5b346103e65761001a61178e36612125565b916117a161179c8433613bea565b612373565b613ccc565b61010036600319018181126103e65760c0136103e657604051906117c982612013565b6117d1611fb6565b82526117db611fcc565b91602092838201526117eb611fe2565b60408201526117f86120d0565b60608201526118056120e6565b608082015260a43560a082015260c4356001600160a01b03818116918290036103e65760e435926001600160401b0384116103e6575f61186f9161184e889636906004016120f8565b60405163222bb36b60e01b815298899788969394879490600486019061232a565b60c484015260e4830152806101048301528061012493848401378181018301849052601f01601f191681010301927f0000000000000000000000000000000000000000000000000000000000000000165af1908115611335575f916118db575b506040519060020b8152f35b90508181813d8311611909575b6118f281836120af565b810103126103e6576119039061231c565b826118cf565b503d6118e8565b60c03660031901126103e65760a43580421161093157604051906004359081602084015260243560408401526044356060840152606435608084015260843560a084015260c083015260c0825260e08201918083106001600160401b0384111761091d576102c36119ad845f936119cf9660405261198d82611ff8565b33825260016101008201526101208101526040519283916020830161223f565b60405180948192638154831960e01b8352602060048401526024830190611f91565b0381837f00000000000000000000000000000000000000000000000000000000000000006001600160a01b03165af1918215611335575f92611aa9575b506060828051810103126103e6576105e5611a2960208401612308565b9160606040850151940151907f3067048beee31b25b2f1681f88dac838c8bba36af25bfb2b7cf7473a5847e35f60405180611a80858989846040919493926001600160801b03606083019616825260208201520152565b0390a2604051938493846040919493926001600160801b03606083019616825260208201520152565b611abe9192503d805f833e61039881836120af565b9082611a0c565b346103e6575f3660031901126103e6576020600854604051908152f35b5f3660031901126103e65747611af457005b61001a4733613c54565b60a03660031901126103e657600435611b178133613bea565b156103d45760843590814211610931576001600160801b039182611b39612229565b1615611c9c5760405160209183838301526024359485168095036103e657611bb4826102c392611bd59760405f9601526044356060830152606435608083015260a082015260a08152611b8b81612013565b60405190611b9882611ff8565b338252600286830152604082015260405192839186830161223f565b60405180958192638154831960e01b83528560048401526024830190611f91565b0381837f00000000000000000000000000000000000000000000000000000000000000006001600160a01b03165af192831561133557604093611c28915f91611c82575b508280825183010191016122f2565b9190927f26f6a048ee9138f2c0ce266f322cb99228e8d619ae2bff30c67f8dcf9d2377b484611c55612229565b87516001600160801b03919091168152602081019190915260408101859052606090a28351928352820152f35b611c9691503d805f833e61039881836120af565b85611c19565b604051632eedd47b60e01b8152600490fd5b346103e65760403660031901126103e657611cc7611fb6565b6024356001600160a01b0380611cdc8361254f565b168091841614611d8c57803314908115611d6b575b5015611d005761001a91613b7f565b60405162461bcd60e51b815260206004820152603d60248201527f4552433732313a20617070726f76652063616c6c6572206973206e6f7420746f60448201527f6b656e206f776e6572206f7220617070726f76656420666f7220616c6c0000006064820152608490fd5b90505f52600560205260405f20335f5260205260ff60405f20541683611cf1565b60405162461bcd60e51b815260206004820152602160248201527f4552433732313a20617070726f76616c20746f2063757272656e74206f776e656044820152603960f91b6064820152608490fd5b346103e65760203660031901126103e65760206111766004356121fb565b346103e6575f3660031901126103e6576040515f80549060018260011c9160018416918215611ee1575b6020948585108414611ecd5785879486865291825f14611ead575050600114611e54575b50610f67925003836120af565b5f808052859250907f290decd9548b62a8d60345a988386fc84ba6bc95484008f6362f93160ef3e5635b858310611e95575050610f67935082010185611e47565b80548389018501528794508693909201918101611e7e565b60ff191685820152610f6795151560051b8501019250879150611e479050565b634e487b7160e01b5f52602260045260245ffd5b92607f1692611e23565b346103e65760203660031901126103e6576004359063ffffffff60e01b82168092036103e65760209163780e9d6360e01b8114908115611f2d575b5015158152f35b6380ac58cd60e01b811491508115611f5f575b8115611f4e575b5083611f26565b6301ffc9a760e01b14905083611f47565b635b5e139f60e01b81149150611f40565b5f5b838110611f815750505f910152565b8181015183820152602001611f72565b90602091611faa81518092818552858086019101611f70565b601f01601f1916010190565b600435906001600160a01b03821682036103e657565b602435906001600160a01b03821682036103e657565b604435906001600160a01b03821682036103e657565b606081019081106001600160401b0382111761091d57604052565b60c081019081106001600160401b0382111761091d57604052565b6001600160401b03811161091d57604052565b61016081019081106001600160401b0382111761091d57604052565b608081019081106001600160401b0382111761091d57604052565b61010081019081106001600160401b0382111761091d57604052565b60a081019081106001600160401b0382111761091d57604052565b90601f801991011681019081106001600160401b0382111761091d57604052565b606435906001600160a01b03821682036103e657565b6084359062ffffff821682036103e657565b9181601f840112156103e6578235916001600160401b0383116103e657602083818601950101116103e657565b60609060031901126103e6576001600160a01b039060043582811681036103e6579160243590811681036103e6579060443590565b60c09060031901126103e6576004356001600160a01b03811681036103e65790602435906044359060643560ff811681036103e657906084359060a43590565b6001600160401b03811161091d57601f01601f191660200190565b81601f820112156103e6578035906121cc8261219a565b926121da60405194856120af565b828452602083830101116103e657815f926020809301838601378301015290565b5f818152600260205260409020546001600160a01b03161561060f575f52600c60205260405f205460601c90565b6024356001600160801b03811681036103e65790565b602080825282516001600160a01b03168282015282015191600483101561228057604060809161227d94828501520151916060808201520190611f91565b90565b634e487b7160e01b5f52602160045260245ffd5b6020818303126103e6578051906001600160401b0382116103e6570181601f820112156103e65780516122c68161219a565b926122d460405194856120af565b818452602082840101116103e65761227d9160208085019101611f70565b91908260409103126103e6576020825192015190565b51906001600160801b03821682036103e657565b51908160020b82036103e657565b60a08091600180831b03808251168552806020830151166020860152806040830151166040860152606082015116606085015262ffffff60808201511660808501520151910152565b1561237a57565b60405162461bcd60e51b815260206004820152602d60248201527f4552433732313a2063616c6c6572206973206e6f7420746f6b656e206f776e6560448201526c1c881bdc88185c1c1c9bdd9959609a1b6064820152608490fd5b604051639fbf0b2d60e01b81527f000000000000000000000000000000000000000000000000000000000000000060048201527f0000000000000000000000000000000000000000000000000000000000000000602482015260208160448173__$38f0c4a75ac04a6e634498b7a97e72f209$__5af4908115611335575f9161245c575090565b90506020813d602011612483575b81612477602093836120af565b810103126103e6575190565b3d915061246a565b92946001600160a01b0390931693919291843b156103e6575f9461010493869260ff604051998a9889976323f2ebc360e21b89523360048a01523060248a015260448901526064880152600160848801521660a486015260c485015260e48401525af18015611335576124fb5750565b6125049061202e565b565b60085481101561253b5760085f527ff3f7a9fe364faab93b216da50a3214154f22a0a2b415b23a84c8169e8b636ee301905f90565b634e487b7160e01b5f52603260045260245ffd5b5f908152600260205260409020546001600160a01b0316801561256f5790565b60405162461bcd60e51b815260206004820152601860248201527f4552433732313a20696e76616c696420746f6b656e20494400000000000000006044820152606490fd5b6001600160a01b031680156125d2575f52600360205260405f205490565b60405162461bcd60e51b815260206004820152602960248201527f4552433732313a2061646472657373207a65726f206973206e6f7420612076616044820152683634b21037bbb732b960b91b6064820152608490fd5b907f00000000000000000000000000000000000000000000000000000000000000006001600160a01b03163303613a67578101906020818303126103e6578035906001600160401b0382116103e65701906060828203126103e6576040519161269183611ff8565b80356001600160a01b03811681036103e657835260208101359160048310156103e6576020840192835260408201356001600160401b0381116103e6576126d892016121b5565b90604083019182528051600481101561228057612d25575051808051810103906101e082126103e65760405191826101408101106001600160401b036101408501111761091d5760c0906101408401604052126103e65761273c6101408301612013565b61274860208201613f0f565b61014083015261275a60408201613f0f565b61016083015260608101516001600160a01b03811681036103e6576101808301526080810151906001600160a01b03821682036103e657612884916101a08401526127a760a08201613ff3565b6101c084015260c08101516101e0840152610140830183526127cb60e0820161231c565b908160208501526127df610100820161231c565b806040860152610120820151806060870152610140830151806080880152610160840151918260a0890152610180850151938460c08a01526101e06101a0870151968760e08c01526128346101c08201613f0f565b6101008c015201516101208a01526040519661284f88612078565b6101408a01885260020b602088015260020b60408701526060860152608085015260a084015260c083015260e0820152614868565b9091600a54935f1985146115735760018501600a556101008201516001600160a01b0316938415612ce1575f868152600260205260409020546128d3906001600160a01b031615155b15614af4565b600854865f5260096020528060405f2055600160401b81101561091d5761290461145f8260018a9401600855612506565b905561290f856125b4565b5f86815260066020908152604080832084845282528083208a90558983526007825280832093909355600290522054612952906001600160a01b031615156128cd565b845f52600360205260405f2060018154019055855f52600260205260405f20856001600160601b0360a01b82541617905585604051955f7fddf252ad1be2c89b69c2b068fc378daa952ba7f163c4a11628f55a4df523b3ef8180a4606085806129e460c0875120602088015160020b604089015160020b90868a015192637388426b60e01b8652309060048701613f5b565b03817f00000000000000000000000000000000000000000000000000000000000000006001600160a01b03165afa948515611335575f95612ca6575b50918391612bc79360c083512090602084015160020b906001600160801b03604086015160020b91604060208c01519b01519260608801519460405196612a6688612041565b5f88525f602089015260408801526060870152608086015216988960a085015260c084015260e08301525f6101008301525f610120830152610140820152875f52600c602052600661014060405f20926001600160601b038151166001600160601b0319855416178455612afb60018060a01b0360208301511685906001600160601b0382549181199060601b169116179055565b60408101516001850155612b4b600285016060830151815462ffffff608086015160181b65ffffff0000001692169065ffffffffffff1916171781556001600160801b0360a08401511690613fa7565b60c0810151600385015560e0810151600485015561010081015161012082015160801b6001600160801b0319166001600160801b03919091161760058501550151910155815160c090205f908152600b60205260409020600301546001600160a01b031615612c0b575b519051906001600160a01b03166143a0565b612bdf612bd68260801d613fd3565b91600f0b613fd3565b916040519360208501526040840152600f0b6060830152600f0b60808201526080815261227d81612094565b815160c081205f908152604090819020825181546001600160a01b03199081166001600160a01b03928316178355602085015160018401805483169184169190911790559284015160028301805490941690821617909255606083015160038201805460808601516001600160b81b0319909116929094169190911760a093841b62ffffff60a01b1617905591015160049190910155612bb5565b612bc79391955091612cd0859360603d606011612cda575b612cc881836120af565b810190613f23565b9591935091612a20565b503d612cbe565b606460405162461bcd60e51b815260206004820152602060248201527f4552433732313a206d696e7420746f20746865207a65726f20616464726573736044820152fd5b805160048110156122805760010361300257505160c0818051810103126103e65760405190612d5382612013565b60c060208201519182845260408101516020850152606081015160408501526080810151606085015260a08101516080850152015160a08301525f52600c60205260405f20600181015492600282015492612eaa600684015494865f52600b6020526060612e7d60405f2094600460405196612dce88612013565b60018060a01b03815416885260018060a01b03600182015416602089015260018060a01b03600282015416604089015262ffffff600382015460018060a01b038116878b015260a01c166080890152015460a08701526020810151906040810151906080858201519101519160405193612e4785612078565b8985528760020b60208601528760181c60020b60408601528c87860152608085015260a084015260c083015260e0820152614868565b9790986040519485928392637388426b60e01b84528660181c60020b908760020b90309060048701613f5b565b03817f00000000000000000000000000000000000000000000000000000000000000006001600160a01b03165afa80156113355785925f91612fe3575b50602081015190612f6560038501916001600160801b0380612f11818860301c1686548803614140565b169181612f45816004604060058d019783895491818316011690841916179586895501519b019960301c1689548b03614140565b169060801c01166001600160801b0382549181199060801b169116179055565b55556001600160801b0380600285015460301c169516809501916001600160801b03831161157357612f9e85936002612fad9601613fa7565b516001600160a01b03166143a0565b612fbc612bd68260801d613fd3565b90604051926020840152600f0b6040830152600f0b60608201526060815261227d8161205d565b612ffc915060603d606011612cda57612cc881836120af565b5f612ee7565b80516004811015612280576002036133bb57505160a0818051810103126103e6576040519060a082018281106001600160401b0382111761091d5760405260a060208201519182845261305760408201612308565b60208501526060810151604085015260808101516060850152015160808301525f52600c60205260405f2091600183015492600281015491600682015493855f52600b60205260405f20926004604051946130b186612013565b80546001600160a01b039081168752600182015481166020808901919091526002830154821660408901526003830154918216606089015260a091821c62ffffff1660808901529290910154908601528201516001600160801b03908116603087901c90911610611c9c576001600160801b036020830151169660408301516060840151604051918260e08101106001600160401b0360e08501111761091d5760e083016040528783528860020b60208401528860181c60020b60408401528a6060840152608083015260a08201528760c0820152600160ff1b89146115735760406131df9960c08301518251916131a88361205d565b8a60020b83528a60181c60020b60208401525f038383015260608201528151809b8192639371d11560e01b83528a600484016140f2565b03815f7f00000000000000000000000000000000000000000000000000000000000000006001600160a01b03165af1988915611335575f905f9a613380575b5061322c8a61323492614d50565b998251614c2e565b60808101516001600160801b038a60801d1610908115613369575b5061335757613285966060916040519889928392637388426b60e01b84528a60181c60020b908b60020b90309060048701613f5b565b03817f00000000000000000000000000000000000000000000000000000000000000006001600160a01b03165afa918215611335576001600160801b03806020600293858c9a612f9e986133139d5f91613338575b5084810151906132fc60038501918880612f11818860301c1686548803614140565b5555015116818385015460301c1603169101613fa7565b604051908060801d600f0b6020830152600f0b60408201526040815261227d81611ff8565b613351915060603d606011612cda57612cc881836120af565b5f6132da565b604051634e1acdcd60e01b8152600490fd5b60a0915001516001600160801b038916105f61324f565b61322c9a5061323491506133ab9060403d6040116133b4575b6133a381836120af565b8101906122f2565b9a90915061321e565b503d613399565b90915051600481101561228057600303613a5557516080818051810103126103e657604051906133ea8261205d565b613420608060208301519283855261340460408201613f0f565b602086015261341560608201612308565b604086015201612308565b60608301525f52600c60205260405f2081515f5260405f206040519261344584612041565b81546001600160601b038116855260601c602085015260066001830154928360408701526001600160801b0360028201548060020b60608901528060181c60020b608089015260301c1660a0870152600381015460c0870152600481015460e087015260058101546001600160801b03811661010088015260801c61012087015201549283610140860152825f52600b60205260405f20936004604051956134ec87612013565b80546001600160a01b0390811688526001820154811660208901526002820154811660408901526003820154908116606089015260a090811c62ffffff16608089015291015486820152610100870151610120880151918801516001600160801b03918216989282169691166137f6575b5050506135fb906001600160801b036040840151166001600160801b03871681115f146137ea57506135db8687955b6001600160801b036060870151166001600160801b03821681115f146137d457506001600160801b0360056135c3839b8c95613f8e565b950194166001600160801b0319855416178455613f8e565b81546001600160801b031660809190911b6001600160801b031916179055565b8251604051633de222bb60e21b8082523060048301526001600160a01b0392831660248301529591602090829060449082907f0000000000000000000000000000000000000000000000000000000000000000165afa908115611335575f916137a1575b506020858101516040519788523060048901526001600160a01b031660248801526001600160801b0391909116959081806044810103817f00000000000000000000000000000000000000000000000000000000000000006001600160a01b03165afa908115611335575f9161376b575b5090613740936001600160801b038093169683821681115f146137635750955b81831681111561375b5750935b80516020840151968316966137209188916001600160a01b0390811691166142c1565b60209081015192015193169283916001600160a01b0391821691166142c1565b60405191602083015260408201526040815261227d81611ff8565b9050936136fd565b9050956136f0565b9190506020823d602011613799575b81613787602093836120af565b810103126103e65790516137406136d0565b3d915061377a565b90506020813d6020116137cc575b816137bc602093836120af565b810103126103e65751602061365f565b3d91506137af565b60056135c36001600160801b03929b8c95613f8e565b6135db9096879561358c565b60608293989692015160020b9060c0886060848c61383760808a015160020b95869520916040519586948594637388426b60e01b8652309060048701613f5b565b03817f00000000000000000000000000000000000000000000000000000000000000006001600160a01b03165afa8015611335576001600160801b03915f91613a36575b505116613985575b50606080925084015160020b906138b9608086015160020b9a6040519b8c948594637388426b60e01b8652309060048701613f5b565b03817f00000000000000000000000000000000000000000000000000000000000000006001600160a01b03165afa968715611335575f97613953575b50906001600160801b036135fb93928161393d60208b01519860e060408460c08901518d03938161392d8160a08d0151168097614140565b1601169d01519601518603614140565b1601169460038301556004820155905f8061355d565b6135fb939291975061397b6001600160801b039160603d606011612cda57612cc881836120af565b97919293506138f5565b6139c4926040918251916139988361205d565b825260208201525f828201528a6060820152815180948192639371d11560e01b83528c600484016140f2565b03815f7f00000000000000000000000000000000000000000000000000000000000000006001600160a01b03165af191821561133557606092613a0f915f91613a15575b5089614c2e565b5f613883565b613a2e915060403d6040116133b4576133a381836120af565b90505f613a08565b613a4f915060603d606011612cda57612cc881836120af565b5f61387b565b604051636d82f5c560e11b8152600490fd5b60405163c288881f60e01b8152600490fd5b6001600160401b03811161091d5760051b60200190565b3d15613aba573d90613aa18261219a565b91613aaf60405193846120af565b82523d5f602084013e565b606090565b805182101561253b5760209160051b010190565b90613af7939291613ae761179c8433613bea565b613af2838383613ccc565b614b40565b15613afe57565b60405162461bcd60e51b815280610b4160048201614003565b92946001600160a01b0390931693919291843b156103e6575f9460e493869260ff604051998a98899763d505accf60e01b89523360048a01523060248a01526044890152606488015216608486015260a485015260c48401525af18015611335576124fb5750565b5f828152600c6020526040902080546001600160601b0316606083901b6bffffffffffffffffffffffff19161790556001600160a01b0380613bc08461254f565b169116907f8c5be1e5ebec7d5bd14f71427d1e84f3dd0314c0f7b2291e5b200ac8c7c3b9255f80a4565b906001600160a01b038080613bfe8461254f565b16931691838314938415613c31575b508315613c1b575b50505090565b613c27919293506121fb565b16145f8080613c15565b9093505f52600560205260405f20825f5260205260ff60405f205416925f613c0d565b5f80809381935af115613c6357565b63f4b3b1bc5f526004601cfd5b6001600160a01b038116613c8e57505f80809381935af115613c6357565b60105f604492602095829560145260345263a9059cbb60601b82525af13d1560015f5114171615613cbf575f603452565b63f27f64e45f526004601cfd5b90613d0e90835f52602090600c82526040805f206001600160601b038154169055613cf68661254f565b6001600160a01b038681169590939184168614614098565b828116958615613ebf5785879181155f14613e1657505050600854875f526009855280835f2055600160401b81101561091d578693613d789289613d5c61145f8560018c9701600855612506565b90555b828603613de8575b50613d718961254f565b1614614098565b855f52600483526002815f20936001600160601b0360a01b94858154169055855f5260038152825f205f198154019055835f52825f2060018154019055875f52525f20918254161790557fddf252ad1be2c89b69c2b068fc378daa952ba7f163c4a11628f55a4df523b3ef5f80a4565b613df1906125b4565b855f5260068752845f20815f52875289855f2055895f5260078752845f20555f613d67565b8282949296939603613e2f575b5090613d789291613d5f565b909250613e3d9194506125b4565b5f198101908111611573578693613d789287928a5f5260078852855f2054818103613e88575b508a5f525f86812055835f5260068852855f20905f5287525f85812055909192613e23565b845f5260068952865f20825f528952865f2054855f5260068a52875f20825f528a5280885f20555f5260078952865f20555f613e63565b825162461bcd60e51b8152600481018690526024808201527f4552433732313a207472616e7366657220746f20746865207a65726f206164646044820152637265737360e01b6064820152608490fd5b51906001600160a01b03821682036103e657565b908160609103126103e6576040805191613f3c83611ff8565b613f4581612308565b8352602081015160208401520151604082015290565b9081526001600160a01b039091166020820152600291820b604082015291900b6060820152608081019190915260a00190565b6001600160801b03918216908216039190821161157357565b906601000000000000600160b01b0382549160301b16906601000000000000600160b01b031916179055565b600f0b6f7fffffffffffffffffffffffffffffff198114611573575f0390565b519062ffffff821682036103e657565b60809060208152603260208201527f4552433732313a207472616e7366657220746f206e6f6e20455243373231526560408201527131b2b4bb32b91034b6b83632b6b2b73a32b960711b60608201520190565b6001600160a01b03168061406957504790565b6020602491604051928380926370a0823160e01b82523060048301525afa908115611335575f9161245c575090565b1561409f57565b60405162461bcd60e51b815260206004820152602560248201527f4552433732313a207472616e736665722066726f6d20696e636f72726563742060448201526437bbb732b960d91b6064820152608490fd5b905f90606061018094614108856101609461232a565b805160020b60c0860152602081015160020b60e086015260408101516101008601520151610120840152806101408401528201520190565b81810291905f19828209918380841093039183830393600160801b93858511156103e6571461417c570990828211900360801b910360801c1790565b5050505060801c90565b90606082901b90600160601b5f19818509938380861095039480860395868511156103e65714614200579082910981805f0316809204600280826003021880830282030280830282030280830282030280830282030280830282030280920290030293600183805f03040190848311900302920304170290565b505091500490565b81810291905f19828209918380841093039183830393600160601b93858511156103e65714614244570990828211900360a01b910360601c1790565b5050505060601c90565b91818302915f19818509938380861095039480860395868511156103e65714614200579082910981805f0316809204600280826003021880830282030280830282030280830282030280830282030280830282030280920290030293600183805f03040190848311900302920304170290565b6001600160a01b03907f00000000000000000000000000000000000000000000000000000000000000008216803b156103e657604051633dae446f60e21b81523060048201526001600160a01b0383166024820152604481018690525f9590868160648183875af180156113355761438d575b50813b15614389579185606492859482966040519889978896630b0d9c0960e01b885216600487015216602485015260448401525af1801561060457614378575050565b614382829161202e565b6103ea5750565b8580fd5b61439891965061202e565b5f945f614334565b5f929190600f608084901d80820b868113156146bf575083516001600160a01b037f00000000000000000000000000000000000000000000000000000000000000008116929116823b156103e657604051630b0d9c0960e01b81526001600160a01b03918216600482015290851660248201526001600160801b03919091166044820152905f908290606490829084905af18015611335576146ac575b505b83810b858113156144d657505060018060a01b036020817f0000000000000000000000000000000000000000000000000000000000000000169301511692823b15610b6057604051630b0d9c0960e01b81526001600160a01b0394851660048201529390911660248401526001600160801b0316604483015282908290818381606481015b03925af1801561060457614378575050565b93509391908284126144ea575b5050505050565b602091820180519295909486936001600160a01b0393908416806145a65750506024916145178492613fd3565b900b9551166040519586938492636a256b2960e01b845260048401527f0000000000000000000000000000000000000000000000000000000000000000165af190811561459a5750614571575b50505b5f808080806144e3565b813d8311614593575b61458481836120af565b810103126103e6575f80614564565b503d61457a565b604051903d90823e3d90fd5b9450949591837f0000000000000000000000000000000000000000000000000000000000000000169460405190632961046560e21b8252600482015288816024818b8a5af180156106bd57918995939189979593614679575b509084602495969798614621936146198787511694613fd3565b900b92614d84565b51166040519586938492636a256b2960e01b845260048401525af190811561459a5750614650575b5050614567565b813d8311614672575b61466381836120af565b810103126103e6575f80614649565b503d614659565b909495809297503d83116146a5575b61469281836120af565b810103126103e65786948894935f6145ff565b503d614688565b6146b791955061202e565b5f935f61443d565b5f136146cc575b5061443f565b83516001600160a01b03919082168061476d57506146eb602091613fd3565b830b916024818751166040519485938492636a256b2960e01b845260048401527f0000000000000000000000000000000000000000000000000000000000000000165af1801561133557614742575b505b5f6146c6565b602090813d8311614766575b61475881836120af565b810103126103e6575f61473a565b503d61474e565b827f00000000000000000000000000000000000000000000000000000000000000001660405191632961046560e21b8352600483015260209384836024815f865af1928315611335578888918795614837575b505f958484936147d86024966147e095511693613fd3565b8b0b92614d84565b8851166040519485938492636a256b2960e01b845260048401525af180156113355761480e575b505061473c565b813d8311614830575b61482181836120af565b810103126103e6575f80614807565b503d614817565b9150508391933d8311614861575b61484f81836120af565b810103126103e657839186885f6147c0565b503d614845565b805160c0902060408051633205590760e21b815260048101929092526001600160a01b039391927f000000000000000000000000000000000000000000000000000000000000000085169060808086602481865afa958615614a25575f96614a8e575b50836149849760208401976148e3895160020b614e34565b90838601926148f5845160020b614e34565b90868801519260a089015191838682821683821611614a82575b5050818116908681168211614a2f575050505061492b926151c3565b945b85988551905160020b925160020b6001600160801b0380986060890151928751966149578861205d565b87526020870152168585015260608401525f8451809c81958294639371d11560e01b8452600484016140f2565b03925af1968715614a25576149b8969784926149be925f905f93614a03575b50826149ae91614d50565b9889928651614c2e565b1d613fd3565b1660c0820151119182156149e6575b50506149d65750565b51634e1acdcd60e01b8152600490fd5b60e09192506149f786600f0b613fd3565b16910151115f806149cd565b6149ae9350614a1f9150883d8a116133b4576133a381836120af565b926149a3565b84513d5f823e3d90fd5b84929495939516115f14614a76578291614a4d91614a5395946151c3565b93615189565b6001600160801b038181169083161015614a6f57505b9461492d565b9050614a69565b915050614a6992615189565b90965093505f8061490f565b9695508087813d8311614aed575b614aa681836120af565b810103126103e65786519686881688036103e65761498497614ae4606083614ad160208a960161231c565b50614add858201613ff3565b5001613ff3565b509697506148cb565b503d614a9c565b15614afb57565b60405162461bcd60e51b815260206004820152601c60248201527f4552433732313a20746f6b656e20616c7265616479206d696e746564000000006044820152606490fd5b92909190823b15614c2557614b92926020925f60018060a01b0360405180978196829584630a85bd0160e11b9c8d86523360048701521660248501526044840152608060648401526084830190611f91565b0393165af15f9181614be0575b50614bd257614bac613a90565b80519081614bcd5760405162461bcd60e51b815280610b4160048201614003565b602001fd5b6001600160e01b0319161490565b9091506020813d602011614c1d575b81614bfc602093836120af565b810103126103e657516001600160e01b0319811681036103e657905f614b9f565b3d9150614bef565b50505050600190565b5f918060801d600f0b5f8113614cc3575b50600f0b90828213614c5057505050565b602001516001600160a01b037f000000000000000000000000000000000000000000000000000000000000000081169116813b1561099257604051636361ddf360e11b81523060048201526001600160a01b039091166024820152604481019290925282908290818381606481016144c4565b82516001600160a01b037f0000000000000000000000000000000000000000000000000000000000000000811692911690823b156103e657604051636361ddf360e11b81523060048201526001600160a01b039290921660248301526044820152905f908290606490829084905af180156113355715614c3f57614d4891935061202e565b5f915f614c3f565b614d7390614d658360801d8260801d0361514e565b92600f0b90600f0b0361514e565b6001600160801b03169060801b1790565b9291906001600160a01b03908116903082148015614e2a575b15614dad57505061250492613c70565b806020955f958693606496604051966323b872dd60e01b885260048801521660248601526044850152165af13d15601f3d1160015f511416171615614dee57565b60405162461bcd60e51b81526020600482015260146024820152731514905394d1915497d19493d357d1905253115160621b6044820152606490fd5b5080851615614d9d565b8060ff1d81810118620d89e881116151415763ffffffff91600160801b7001fffcb933bd6fad37aa2d162d1a5940016001841602189160028116615125575b60048116615109575b600881166150ed575b601081166150d1575b602081166150b5575b60408116615099575b60809081811661507e575b6101008116615063575b6102008116615048575b610400811661502d575b6108008116615012575b6110008116614ff7575b6120008116614fdc575b6140008116614fc1575b6180008116614fa6575b620100008116614f8b575b620200008116614f71575b620400008116614f57575b6208000016614f3d575b505f12614f35575b0160201c90565b5f1904614f2e565b6b048a170391f7dc42444e8fa25f929302901c9190614f26565b6d2216e584f5fa1ea926041bedfe98909302811c92614f1c565b926e5d6af8dedb81196699c329225ee60402811c92614f11565b926f09aa508b5b7a84e1c677de54f3e99bc902811c92614f06565b926f31be135f97d08fd981231505542fcfa602811c92614efb565b926f70d869a156d2a1b890bb3df62baf32f702811c92614ef1565b926fa9f746462d870fdf8a65dc1f90e061e502811c92614ee7565b926fd097f3bdfd2022b8845ad8f792aa582502811c92614edd565b926fe7159475a2c29b7443b29c7fa6e889d902811c92614ed3565b926ff3392b0822b70005940c7a398e4b70f302811c92614ec9565b926ff987a7253ac413176f2b074cf7815e5402811c92614ebf565b926ffcbe86c7900a88aedcffc83b479aa3a402811c92614eb5565b926ffe5dee046a99a2a811c461f1969c305302811c92614eab565b916fff2ea16466c96a3843ec78b326b528610260801c91614ea0565b916fff973b41fa98c081472e6896dfb254c00260801c91614e97565b916fffcb9843d60f6159c9db58835c9266440260801c91614e8e565b916fffe5caca7e10e4e61c3624eaa0941cd00260801c91614e85565b916ffff2e50f5f656932ef12357cf3c7fdcc0260801c91614e7c565b916ffff97272373d413259a46990580e213a0260801c91614e73565b63ce8ef7fc5f526004601cfd5b6001607f1b810160801c1561516a576393dafdf15f526004601cfd5b600f0b90565b6001600160a01b03918216908216039190821161157357565b61227d926151b89290916001600160a01b03916151b19190838116848316116151bd57615170565b1690614186565b615207565b90615170565b61227d926151b89290916001600160a01b039081831682821611615201575b6151fa906151f4838516848316614208565b93615170565b169161424e565b916151e2565b6001600160801b039081811161521b571690565b6040516393dafdf160e01b8152600490fdfea2646970667358221220d3f90555ad20f64282612046ad591fbaa5b74d1c4325dc0d66762f1db330f30a64736f6c63430008180033290decd9548b62a8d60345a988386fc84ba6bc95484008f6362f93160ef3e563b10e2d527612073b26eecdfd717e6a320cf44b4afac2b0732d9fcbe2b7fa0cf6","linkReferences":{"lib/pancake-v4-periphery/src/pool-cl/libraries/ERC721PermitLib.sol":{"ERC721PermitLib":[{"start":5431,"length":20},{"start":10568,"length":20}]}}},"methodIdentifiers":{"DOMAIN_SEPARATOR()":"3644e515","PERMIT_TYPEHASH()":"30adf81f","WETH9()":"4aa4a4fc","approve(address,uint256)":"095ea7b3","balanceOf(address)":"70a08231","burn(uint256)":"42966c68","collect((uint256,address,uint128,uint128))":"fc6f7865","decreaseLiquidity((uint256,uint128,uint256,uint256,uint256))":"0c49ccbe","getApproved(uint256)":"081812fc","increaseLiquidity((uint256,uint256,uint256,uint256,uint256,uint256))":"219f5d17","initialize((address,address,address,address,uint24,bytes32),uint160,bytes)":"222bb36b","isApprovedForAll(address,address)":"e985e9c5","lockAcquired(bytes)":"ab6291fe","mint(((address,address,address,address,uint24,bytes32),int24,int24,bytes32,uint256,uint256,uint256,uint256,address,uint256))":"c12a1ef7","multicall(bytes[])":"ac9650d8","name()":"06fdde03","ownerOf(uint256)":"6352211e","permit(address,uint256,uint256,uint8,bytes32,bytes32)":"7ac2ff7b","poolManager()":"dc4c90d3","positions(uint256)":"99fbab88","refundETH()":"12210e8a","safeTransferFrom(address,address,uint256)":"42842e0e","safeTransferFrom(address,address,uint256,bytes)":"b88d4fde","selfPermit(address,uint256,uint256,uint8,bytes32,bytes32)":"f3995c67","selfPermitAllowed(address,uint256,uint256,uint8,bytes32,bytes32)":"4659a494","selfPermitAllowedIfNecessary(address,uint256,uint256,uint8,bytes32,bytes32)":"a4a78f0c","selfPermitIfNecessary(address,uint256,uint256,uint8,bytes32,bytes32)":"c2e3140a","setApprovalForAll(address,bool)":"a22cb465","supportsInterface(bytes4)":"01ffc9a7","sweepToken(address,uint256,address)":"df2ab5bb","symbol()":"95d89b41","tokenByIndex(uint256)":"4f6ccce7","tokenOfOwnerByIndex(address,uint256)":"2f745c59","tokenURI(uint256)":"c87b56dd","totalSupply()":"18160ddd","transferFrom(address,address,uint256)":"23b872dd","unwrapWETH9(uint256,address)":"49404b7c","vault()":"fbfa77cf"},"id":103}