{"abi":[{"type":"function","name":"ZERO_DELTA","inputs":[],"outputs":[{"name":"","type":"int256","internalType":"BeforeSwapDelta"}],"stateMutability":"view"}],"bytecode":{"object":"0x60808060405234601857606f908161001d823930815050f35b5f80fdfe60808060405260043610156011575f80fd5b5f3560e01c6391cb4669146023575f80fd5b5f366003190112603557805f60209252f35b5f80fdfea26469706673582212200e9def9108c950860065bbc198fa16f1acb0d17075fe242bbbc8b91f962803fc64736f6c63430008180033","linkReferences":{}},"methodIdentifiers":{"ZERO_DELTA()":"91cb4669"},"id":42}