{"abi":[{"type":"constructor","inputs":[{"name":"_poolManager","type":"address","internalType":"contract ICLPoolManager"},{"name":"_tokenAddress","type":"address","internalType":"address"}],"stateMutability":"nonpayable"},{"type":"function","name":"TOKEN_ADDRESS","inputs":[],"outputs":[{"name":"","type":"address","internalType":"address"}],"stateMutability":"view"},{"type":"function","name":"afterAddLiquidity","inputs":[{"name":"","type":"address","internalType":"address"},{"name":"","type":"tuple","internalType":"struct PoolKey","components":[{"name":"currency0","type":"address","internalType":"Currency"},{"name":"currency1","type":"address","internalType":"Currency"},{"name":"hooks","type":"address","internalType":"contract IHooks"},{"name":"poolManager","type":"address","internalType":"contract IPoolManager"},{"name":"fee","type":"uint24","internalType":"uint24"},{"name":"parameters","type":"bytes32","internalType":"bytes32"}]},{"name":"","type":"tuple","internalType":"struct ICLPoolManager.ModifyLiquidityParams","components":[{"name":"tickLower","type":"int24","internalType":"int24"},{"name":"tickUpper","type":"int24","internalType":"int24"},{"name":"liquidityDelta","type":"int256","internalType":"int256"},{"name":"salt","type":"bytes32","internalType":"bytes32"}]},{"name":"","type":"int256","internalType":"BalanceDelta"},{"name":"","type":"bytes","internalType":"bytes"}],"outputs":[{"name":"","type":"bytes4","internalType":"bytes4"},{"name":"","type":"int256","internalType":"BalanceDelta"}],"stateMutability":"nonpayable"},{"type":"function","name":"afterDonate","inputs":[{"name":"","type":"address","internalType":"address"},{"name":"","type":"tuple","internalType":"struct PoolKey","components":[{"name":"currency0","type":"address","internalType":"Currency"},{"name":"currency1","type":"address","internalType":"Currency"},{"name":"hooks","type":"address","internalType":"contract IHooks"},{"name":"poolManager","type":"address","internalType":"contract IPoolManager"},{"name":"fee","type":"uint24","internalType":"uint24"},{"name":"parameters","type":"bytes32","internalType":"bytes32"}]},{"name":"","type":"uint256","internalType":"uint256"},{"name":"","type":"uint256","internalType":"uint256"},{"name":"","type":"bytes","internalType":"bytes"}],"outputs":[{"name":"","type":"bytes4","internalType":"bytes4"}],"stateMutability":"nonpayable"},{"type":"function","name":"afterInitialize","inputs":[{"name":"","type":"address","internalType":"address"},{"name":"","type":"tuple","internalType":"struct PoolKey","components":[{"name":"currency0","type":"address","internalType":"Currency"},{"name":"currency1","type":"address","internalType":"Currency"},{"name":"hooks","type":"address","internalType":"contract IHooks"},{"name":"poolManager","type":"address","internalType":"contract IPoolManager"},{"name":"fee","type":"uint24","internalType":"uint24"},{"name":"parameters","type":"bytes32","internalType":"bytes32"}]},{"name":"","type":"uint160","internalType":"uint160"},{"name":"","type":"int24","internalType":"int24"},{"name":"","type":"bytes","internalType":"bytes"}],"outputs":[{"name":"","type":"bytes4","internalType":"bytes4"}],"stateMutability":"nonpayable"},{"type":"function","name":"afterRemoveLiquidity","inputs":[{"name":"","type":"address","internalType":"address"},{"name":"","type":"tuple","internalType":"struct PoolKey","components":[{"name":"currency0","type":"address","internalType":"Currency"},{"name":"currency1","type":"address","internalType":"Currency"},{"name":"hooks","type":"address","internalType":"contract IHooks"},{"name":"poolManager","type":"address","internalType":"contract IPoolManager"},{"name":"fee","type":"uint24","internalType":"uint24"},{"name":"parameters","type":"bytes32","internalType":"bytes32"}]},{"name":"","type":"tuple","internalType":"struct ICLPoolManager.ModifyLiquidityParams","components":[{"name":"tickLower","type":"int24","internalType":"int24"},{"name":"tickUpper","type":"int24","internalType":"int24"},{"name":"liquidityDelta","type":"int256","internalType":"int256"},{"name":"salt","type":"bytes32","internalType":"bytes32"}]},{"name":"","type":"int256","internalType":"BalanceDelta"},{"name":"","type":"bytes","internalType":"bytes"}],"outputs":[{"name":"","type":"bytes4","internalType":"bytes4"},{"name":"","type":"int256","internalType":"BalanceDelta"}],"stateMutability":"nonpayable"},{"type":"function","name":"afterSwap","inputs":[{"name":"","type":"address","internalType":"address"},{"name":"","type":"tuple","internalType":"struct PoolKey","components":[{"name":"currency0","type":"address","internalType":"Currency"},{"name":"currency1","type":"address","internalType":"Currency"},{"name":"hooks","type":"address","internalType":"contract IHooks"},{"name":"poolManager","type":"address","internalType":"contract IPoolManager"},{"name":"fee","type":"uint24","internalType":"uint24"},{"name":"parameters","type":"bytes32","internalType":"bytes32"}]},{"name":"","type":"tuple","internalType":"struct ICLPoolManager.SwapParams","components":[{"name":"zeroForOne","type":"bool","internalType":"bool"},{"name":"amountSpecified","type":"int256","internalType":"int256"},{"name":"sqrtPriceLimitX96","type":"uint160","internalType":"uint160"}]},{"name":"","type":"int256","internalType":"BalanceDelta"},{"name":"","type":"bytes","internalType":"bytes"}],"outputs":[{"name":"","type":"bytes4","internalType":"bytes4"},{"name":"","type":"int128","internalType":"int128"}],"stateMutability":"nonpayable"},{"type":"function","name":"beforeAddLiquidity","inputs":[{"name":"","type":"address","internalType":"address"},{"name":"","type":"tuple","internalType":"struct PoolKey","components":[{"name":"currency0","type":"address","internalType":"Currency"},{"name":"currency1","type":"address","internalType":"Currency"},{"name":"hooks","type":"address","internalType":"contract IHooks"},{"name":"poolManager","type":"address","internalType":"contract IPoolManager"},{"name":"fee","type":"uint24","internalType":"uint24"},{"name":"parameters","type":"bytes32","internalType":"bytes32"}]},{"name":"","type":"tuple","internalType":"struct ICLPoolManager.ModifyLiquidityParams","components":[{"name":"tickLower","type":"int24","internalType":"int24"},{"name":"tickUpper","type":"int24","internalType":"int24"},{"name":"liquidityDelta","type":"int256","internalType":"int256"},{"name":"salt","type":"bytes32","internalType":"bytes32"}]},{"name":"","type":"bytes","internalType":"bytes"}],"outputs":[{"name":"","type":"bytes4","internalType":"bytes4"}],"stateMutability":"nonpayable"},{"type":"function","name":"beforeDonate","inputs":[{"name":"","type":"address","internalType":"address"},{"name":"","type":"tuple","internalType":"struct PoolKey","components":[{"name":"currency0","type":"address","internalType":"Currency"},{"name":"currency1","type":"address","internalType":"Currency"},{"name":"hooks","type":"address","internalType":"contract IHooks"},{"name":"poolManager","type":"address","internalType":"contract IPoolManager"},{"name":"fee","type":"uint24","internalType":"uint24"},{"name":"parameters","type":"bytes32","internalType":"bytes32"}]},{"name":"","type":"uint256","internalType":"uint256"},{"name":"","type":"uint256","internalType":"uint256"},{"name":"","type":"bytes","internalType":"bytes"}],"outputs":[{"name":"","type":"bytes4","internalType":"bytes4"}],"stateMutability":"nonpayable"},{"type":"function","name":"beforeInitialize","inputs":[{"name":"","type":"address","internalType":"address"},{"name":"key","type":"tuple","internalType":"struct PoolKey","components":[{"name":"currency0","type":"address","internalType":"Currency"},{"name":"currency1","type":"address","internalType":"Currency"},{"name":"hooks","type":"address","internalType":"contract IHooks"},{"name":"poolManager","type":"address","internalType":"contract IPoolManager"},{"name":"fee","type":"uint24","internalType":"uint24"},{"name":"parameters","type":"bytes32","internalType":"bytes32"}]},{"name":"","type":"uint160","internalType":"uint160"},{"name":"data","type":"bytes","internalType":"bytes"}],"outputs":[{"name":"","type":"bytes4","internalType":"bytes4"}],"stateMutability":"nonpayable"},{"type":"function","name":"beforeRemoveLiquidity","inputs":[{"name":"","type":"address","internalType":"address"},{"name":"","type":"tuple","internalType":"struct PoolKey","components":[{"name":"currency0","type":"address","internalType":"Currency"},{"name":"currency1","type":"address","internalType":"Currency"},{"name":"hooks","type":"address","internalType":"contract IHooks"},{"name":"poolManager","type":"address","internalType":"contract IPoolManager"},{"name":"fee","type":"uint24","internalType":"uint24"},{"name":"parameters","type":"bytes32","internalType":"bytes32"}]},{"name":"","type":"tuple","internalType":"struct ICLPoolManager.ModifyLiquidityParams","components":[{"name":"tickLower","type":"int24","internalType":"int24"},{"name":"tickUpper","type":"int24","internalType":"int24"},{"name":"liquidityDelta","type":"int256","internalType":"int256"},{"name":"salt","type":"bytes32","internalType":"bytes32"}]},{"name":"","type":"bytes","internalType":"bytes"}],"outputs":[{"name":"","type":"bytes4","internalType":"bytes4"}],"stateMutability":"nonpayable"},{"type":"function","name":"beforeSwap","inputs":[{"name":"","type":"address","internalType":"address"},{"name":"key","type":"tuple","internalType":"struct PoolKey","components":[{"name":"currency0","type":"address","internalType":"Currency"},{"name":"currency1","type":"address","internalType":"Currency"},{"name":"hooks","type":"address","internalType":"contract IHooks"},{"name":"poolManager","type":"address","internalType":"contract IPoolManager"},{"name":"fee","type":"uint24","internalType":"uint24"},{"name":"parameters","type":"bytes32","internalType":"bytes32"}]},{"name":"params","type":"tuple","internalType":"struct ICLPoolManager.SwapParams","components":[{"name":"zeroForOne","type":"bool","internalType":"bool"},{"name":"amountSpecified","type":"int256","internalType":"int256"},{"name":"sqrtPriceLimitX96","type":"uint160","internalType":"uint160"}]},{"name":"","type":"bytes","internalType":"bytes"}],"outputs":[{"name":"","type":"bytes4","internalType":"bytes4"},{"name":"","type":"int256","internalType":"BeforeSwapDelta"},{"name":"","type":"uint24","internalType":"uint24"}],"stateMutability":"nonpayable"},{"type":"function","name":"buyDirection","inputs":[{"name":"","type":"bytes32","internalType":"PoolId"}],"outputs":[{"name":"","type":"bool","internalType":"bool"}],"stateMutability":"view"},{"type":"function","name":"getHooksRegistrationBitmap","inputs":[],"outputs":[{"name":"","type":"uint16","internalType":"uint16"}],"stateMutability":"pure"},{"type":"function","name":"initialLiquidity","inputs":[{"name":"","type":"bytes32","internalType":"PoolId"}],"outputs":[{"name":"","type":"bool","internalType":"bool"}],"stateMutability":"view"},{"type":"function","name":"lockAcquired","inputs":[{"name":"data","type":"bytes","internalType":"bytes"}],"outputs":[{"name":"","type":"bytes","internalType":"bytes"}],"stateMutability":"nonpayable"},{"type":"function","name":"mintedTokens","inputs":[{"name":"","type":"bytes32","internalType":"PoolId"}],"outputs":[{"name":"tokensMinted","type":"uint256","internalType":"uint256"}],"stateMutability":"view"},{"type":"function","name":"poolManager","inputs":[],"outputs":[{"name":"","type":"address","internalType":"contract ICLPoolManager"}],"stateMutability":"view"},{"type":"function","name":"tokenToMintSupply","inputs":[{"name":"","type":"bytes32","internalType":"PoolId"}],"outputs":[{"name":"mintSupply","type":"uint256","internalType":"uint256"}],"stateMutability":"view"},{"type":"function","name":"vault","inputs":[],"outputs":[{"name":"","type":"address","internalType":"contract IVault"}],"stateMutability":"view"},{"type":"error","name":"DURING_SALE_PERIOD_ONLY_ALLOW_USDC_IN","inputs":[]},{"type":"error","name":"HookNotImplemented","inputs":[]},{"type":"error","name":"INITIAL_LIQUIDITY_NOT_PROVIDED","inputs":[]},{"type":"error","name":"InvalidPool","inputs":[]},{"type":"error","name":"LockFailure","inputs":[]},{"type":"error","name":"NotPoolManager","inputs":[]},{"type":"error","name":"NotSelf","inputs":[]},{"type":"error","name":"NotVault","inputs":[]}],"bytecode":{"object":"0x60e080604052346200011957604081620015c2803803809162000023828562000131565b83398101031262000119578051906001600160a01b0380831691828403620001195760200151928184168403620001195760805260405163fbfa77cf60e01b815291602090839060049082905afa91821562000126575f92620000de575b505060a05260c05260405161145890816200016a82396080518161093a015260a05181818161010d015281816104470152818161070a01526109a3015260c0518181816103950152818161067601528181610abd0152610c5a0152f35b9091506020813d6020116200011d575b81620000fd6020938362000131565b81010312620001195751908116810362000119575f8062000081565b5f80fd5b3d9150620000ee565b6040513d5f823e3d90fd5b601f909101601f19168101906001600160401b038211908210176200015557604052565b634e487b7160e01b5f52604160045260245ffdfe6080604081815260049081361015610015575f80fd5b5f915f3560e01c9384630bdf530014610c48575083631ffe6a5814610beb5783633868117214610bc55783634b6a682d14610bc05783635304d44e14610bc05783636f6657cb14610b5e57836373ac3d2214610b375783637aa43ce014610969578363802fe6f214610b0b578363972e19a214610a34578363ab6291fe1461096e578363d533c4db14610969578363dc4c90d314610926578363e07ee259146108fa578363e592dc93146102be578363e8246c7f146100f5578363f961d1f41461014057508263fbfa77cf146100fa57505063fe70c9c9146100f5575f80fd5b610da2565b3461013c578160031936011261013c57517f00000000000000000000000000000000000000000000000000000000000000006001600160a01b03168152602090f35b5080fd5b90346102ba57826003193601126102ba578051926101c084018481106001600160401b038211176102a75793826104009260209661ffff955260018352808784015280828401528060608401528060808401528060a0840152600160c08401528060e0840152806101a061010094828682015282610120820152600161014082015282610160820152826101808201520152805f146102a0576002955b811561029857925b8115610291576008905b821561028a576010905b83156102815760018a915b851561027a576080905b861561027257925b861561026b57610200945b871561026457610800965b881561025d57611000985b15610256576120009a5b8a519e17171717171717171717171717168152f35b5f9a610241565b5f98610237565b5f9661022c565b5f94610221565b505f92610216565b5f9061020e565b60015f91610204565b5f906101f9565b5f906101ef565b505f926101e5565b5f956101dd565b604184634e487b7160e01b5f525260245ffd5b8280fd5b913461055157610160366003190112610551576102d9610c89565b5060c03660231901126105515760603660e319011261055157610144356001600160401b038111610551576103119036908501610cb5565b5050610104355f81129384610324610f84565b1515036108d557610333610ed7565b9061033c610eed565b925b86156108cf57600160ff1b81146108bc575f03955b1561063657610360610f84565b9160c061036c36610e46565b2093848652602093600185528787205487865288882054115f1461060d576001600160a01b03907f00000000000000000000000000000000000000000000000000000000000000008216848316036105fd57868989888d945f146105bc576103fe8461041697948480610406956104119961040b9852600181526103f284832054611003565b94825252205490611016565b60020b6110ea565b611108565b16611044565b6110cd565b80156105a957600160c01b04945b86526001845286862080549086820180921161059657555b6001600160a01b03917f0000000000000000000000000000000000000000000000000000000000000000831690813b15610592578851630b0d9c0960e01b81526001600160a01b03909116858201908152306020820152604081018b90529093929190889085908190606001038183855af180156105885786939291898992610566575b506024939495508a519687958694636a256b2960e01b865216908401525af1801561055c5761052f575b50506105086105036104fd606096610fc7565b92610fc7565b610f93565b6001600160801b03169060801b17915b80519263e592dc9360e01b84526020840152820152f35b813d8311610555575b6105428183610e25565b810103126105515784806104ea565b5f80fd5b503d610538565b85513d86823e3d90fd5b92945092946105759150610dfe565b610584578491868492896104c0565b8680fd5b89513d8a823e3d90fd5b8780fd5b634e487b7160e01b885260118552602488fd5b634e487b7160e01b875260128452602487fd5b6105e4846105f497948480610406956105ec9961040b9852600181526103f284832054611003565b60020b610fe6565b60641c6110d7565b605c1c94610424565b8851630e92b78760e31b81528590fd5b5093506003835260ff86862054161561062757849361043c565b508451636982706b60e11b8152fd5b610641929192610f84565b9160c061064d36610e46565b2092835f5260209360018552875f20545f8652885f2054115f146108a3576001600160a01b03917f00000000000000000000000000000000000000000000000000000000000000008316848416036105fd5715610839576104066103fe826106d1935f52600188526106c18b5f2054611003565b905f525f88528a5f205490611016565b90881561082657906106f76106fd926106f08b80600160c01b046110d7565b9216611044565b906110cd565b935b6001600160a01b03917f0000000000000000000000000000000000000000000000000000000000000000831690813b15610551578851630b0d9c0960e01b81526001600160a01b03909116858201908152306020820152604081018890525f9082908190606001038183865af1801561081c57908a92916107fc575b50916024918694938a519687958694636a256b2960e01b865216908401525af1801561055c576107d3575b50506107bf6107b9610503606096610fc7565b91610fc7565b6001600160801b03169060801b1791610518565b813d83116107f5575b6107e68183610e25565b810103126105515784806107a6565b503d6107dc565b8694939198506024925061080f90610dfe565b895f98919394509161077b565b89513d5f823e3d90fd5b601284634e487b7160e01b5f525260245ffd5b9061040b6104066105e48461086a955f526001895261085a8c5f2054611003565b905f525f89528b5f205490611016565b60641c6001600160a41b03881688036108905761088a9088605c1b6110cd565b936106ff565b601183634e487b7160e01b5f525260245ffd5b50506003835260ff865f20541615610627575f936106ff565b601182634e487b7160e01b5f525260245ffd5b95610353565b6108dd610eed565b906108e6610ed7565b6001600160a01b039081169392169161033e565b903461055157602036600319011261055157602091355f526002825260ff815f20541690519015158152f35b5034610551575f36600319011261055157517f00000000000000000000000000000000000000000000000000000000000000006001600160a01b03168152602090f35b610d46565b90346105515760209160206003193601126105515780356001600160401b038111610551576109a09036908301610cb5565b917f00000000000000000000000000000000000000000000000000000000000000006001600160a01b03163303610a265750906109dc91610f03565b918151928391602083528151918260208501525f5b838110610a105750505f83830185015250601f01601f19168101030190f35b81810183015187820187015286945082016109f1565b83516362df054560e01b8152fd5b90346105515761012036600319011261055157610a4f610c89565b5060c036602319011261055157610a64610c9f565b50610104356001600160401b03811161055157602092610a8691369101610cb5565b9080939160c0610a9536610e46565b206001600160a01b0380610aa7610ed7565b16915f526002855260ff865f20928119845416927f000000000000000000000000000000000000000000000000000000000000000016141617905581010312610551576020915f835235815f2055600182525f8181205551634b970cd160e11b8152f35b903461055157602036600319011261055157602091355f526003825260ff815f20541690519015158152f35b903461055157602036600319011261055157602091355f5260018252805f20549051908152f35b90346105515761018036600319011261055157610b79610c89565b5060c03660231901126105515760603660e319011261055157610164356001600160401b03811161055157610bb19036908401610cb5565b505051630a85dc2960e01b8152fd5b610ce2565b903461055157602036600319011261055157602091355f525f8252805f20549051908152f35b90346105515761014036600319011261055157610c06610c89565b5060c036602319011261055157610c1b610c9f565b50610104358060020b0361055157610124356001600160401b03811161055157610bb19036908401610cb5565b34610551575f366003190112610551577f00000000000000000000000000000000000000000000000000000000000000006001600160a01b03168152602090f35b600435906001600160a01b038216820361055157565b60e435906001600160a01b038216820361055157565b9181601f84011215610551578235916001600160401b038311610551576020838186019501011161055157565b3461055157610140366003190112610551576004356001600160a01b038116036105515760c036602319011261055157610124356001600160401b03811161055157610d32903690600401610cb5565b5050604051630a85dc2960e01b8152600490fd5b34610551576101a0366003190112610551576004356001600160a01b038116036105515760c03660231901126105515760803660e319011261055157610184356001600160401b03811161055157610d32903690600401610cb5565b3461055157610180366003190112610551576004356001600160a01b038116036105515760c03660231901126105515760803660e319011261055157610164356001600160401b03811161055157610d32903690600401610cb5565b6001600160401b038111610e1157604052565b634e487b7160e01b5f52604160045260245ffd5b90601f801991011681019081106001600160401b03821117610e1157604052565b60c0906023190112610551576040519060c082018281106001600160401b03821117610e1157604052816001600160a01b03602435818116810361055157825260443581811681036105515760208301526064358181168103610551576040830152608435908116810361055157606082015260a43562ffffff8116810361055157608082015260a060c435910152565b6024356001600160a01b03811681036105515790565b6044356001600160a01b03811681036105515790565b5f9182918160405192839283378101838152039082305af1903d15610f7c573d916001600160401b038311610e115760405192610f4a601f8201601f191660200185610e25565b83523d5f602085013e5b610f7a5750805115610f6857602081519101fd5b6040516314815f4760e31b8152600490fd5b565b606091610f54565b60e43580151581036105515790565b600f0b6f7fffffffffffffffffffffffffffffff198114610fb3575f0390565b634e487b7160e01b5f52601160045260245ffd5b6001607f1b811015610fd957600f0b90565b6393dafdf15f526004601cfd5b60020b6205453d0390627fffff198212627fffff831317610fb357565b9062010dd99180830292830503610fb357565b811561103057600160ff1b81145f19831416610fb3570590565b634e487b7160e01b5f52601260045260245ffd5b80156110c85780806001146110c1576002146110bb576001908161013382101682600b831016176110b357906002815b80821161108b575050815f19048111610fb3570290565b9092805f19048111610fb3578184166110aa575b800292811c90611074565b8092029161109f565b600291500a90565b50600490565b5050600190565b505f90565b8115611030570490565b81810292918115918404141715610fb357565b60020b6205453c190190627fffff198212627fffff831317610fb357565b8060ff1d81810118620d89e881116114155763ffffffff91600160801b7001fffcb933bd6fad37aa2d162d1a59400160018416021891600281166113f9575b600481166113dd575b600881166113c1575b601081166113a5575b60208116611389575b6040811661136d575b608090818116611352575b6101008116611337575b610200811661131c575b6104008116611301575b61080081166112e6575b61100081166112cb575b61200081166112b0575b6140008116611295575b618000811661127a575b62010000811661125f575b620200008116611245575b62040000811661122b575b6208000016611211575b505f12611209575b0160201c90565b5f1904611202565b6b048a170391f7dc42444e8fa25f929302901c91906111fa565b6d2216e584f5fa1ea926041bedfe98909302811c926111f0565b926e5d6af8dedb81196699c329225ee60402811c926111e5565b926f09aa508b5b7a84e1c677de54f3e99bc902811c926111da565b926f31be135f97d08fd981231505542fcfa602811c926111cf565b926f70d869a156d2a1b890bb3df62baf32f702811c926111c5565b926fa9f746462d870fdf8a65dc1f90e061e502811c926111bb565b926fd097f3bdfd2022b8845ad8f792aa582502811c926111b1565b926fe7159475a2c29b7443b29c7fa6e889d902811c926111a7565b926ff3392b0822b70005940c7a398e4b70f302811c9261119d565b926ff987a7253ac413176f2b074cf7815e5402811c92611193565b926ffcbe86c7900a88aedcffc83b479aa3a402811c92611189565b926ffe5dee046a99a2a811c461f1969c305302811c9261117f565b916fff2ea16466c96a3843ec78b326b528610260801c91611174565b916fff973b41fa98c081472e6896dfb254c00260801c9161116b565b916fffcb9843d60f6159c9db58835c9266440260801c91611162565b916fffe5caca7e10e4e61c3624eaa0941cd00260801c91611159565b916ffff2e50f5f656932ef12357cf3c7fdcc0260801c91611150565b916ffff97272373d413259a46990580e213a0260801c91611147565b63ce8ef7fc5f526004601cfdfea2646970667358221220f492ecc6eecd627ffb6090880f8a565fa7dd069efaf1596b16af66617cc56dde64736f6c63430008180033","linkReferences":{}},"methodIdentifiers":{"TOKEN_ADDRESS()":"0bdf5300","afterAddLiquidity(address,(address,address,address,address,uint24,bytes32),(int24,int24,int256,bytes32),int256,bytes)":"d533c4db","afterDonate(address,(address,address,address,address,uint24,bytes32),uint256,uint256,bytes)":"5304d44e","afterInitialize(address,(address,address,address,address,uint24,bytes32),uint160,int24,bytes)":"1ffe6a58","afterRemoveLiquidity(address,(address,address,address,address,uint24,bytes32),(int24,int24,int256,bytes32),int256,bytes)":"7aa43ce0","afterSwap(address,(address,address,address,address,uint24,bytes32),(bool,int256,uint160),int256,bytes)":"6f6657cb","beforeAddLiquidity(address,(address,address,address,address,uint24,bytes32),(int24,int24,int256,bytes32),bytes)":"fe70c9c9","beforeDonate(address,(address,address,address,address,uint24,bytes32),uint256,uint256,bytes)":"4b6a682d","beforeInitialize(address,(address,address,address,address,uint24,bytes32),uint160,bytes)":"972e19a2","beforeRemoveLiquidity(address,(address,address,address,address,uint24,bytes32),(int24,int24,int256,bytes32),bytes)":"e8246c7f","beforeSwap(address,(address,address,address,address,uint24,bytes32),(bool,int256,uint160),bytes)":"e592dc93","buyDirection(bytes32)":"e07ee259","getHooksRegistrationBitmap()":"f961d1f4","initialLiquidity(bytes32)":"802fe6f2","lockAcquired(bytes)":"ab6291fe","mintedTokens(bytes32)":"73ac3d22","poolManager()":"dc4c90d3","tokenToMintSupply(bytes32)":"38681172","vault()":"fbfa77cf"},"id":47}