{"abi":[{"type":"constructor","inputs":[{"name":"_vault","type":"address","internalType":"contract IVault"},{"name":"_poolManager","type":"address","internalType":"contract ICLPoolManager"},{"name":"_WETH9","type":"address","internalType":"address"}],"stateMutability":"nonpayable"},{"type":"function","name":"WETH9","inputs":[],"outputs":[{"name":"","type":"address","internalType":"address"}],"stateMutability":"view"},{"type":"function","name":"poolManager","inputs":[],"outputs":[{"name":"","type":"address","internalType":"contract ICLPoolManager"}],"stateMutability":"view"},{"type":"function","name":"vault","inputs":[],"outputs":[{"name":"","type":"address","internalType":"contract IVault"}],"stateMutability":"view"}],"bytecode":{"object":"0x60e03461009d57601f6101f638819003918201601f19168301916001600160401b038311848410176100a15780849260609460405283398101031261009d5780516001600160a01b03808216820361009d57602083015192818416840361009d5760400151908116810361009d5760805260a05260c05260405161014090816100b682396080518160db015260a051816052015260c05181609a0152f35b5f80fd5b634e487b7160e01b5f52604160045260245ffdfe6080806040526004361015610012575f80fd5b5f3560e01c9081634aa4a4fc146100c957508063dc4c90d3146100855763fbfa77cf1461003d575f80fd5b34610081575f366003190112610081576040517f00000000000000000000000000000000000000000000000000000000000000006001600160a01b03168152602090f35b5f80fd5b34610081575f366003190112610081576040517f00000000000000000000000000000000000000000000000000000000000000006001600160a01b03168152602090f35b34610081575f366003190112610081577f00000000000000000000000000000000000000000000000000000000000000006001600160a01b03168152602090f3fea2646970667358221220d6a5a6cb6c0e6b9cfa61162747402d1e6bfd76229db66dc005599c261cd984f864736f6c63430008180033","linkReferences":{}},"methodIdentifiers":{"WETH9()":"4aa4a4fc","poolManager()":"dc4c90d3","vault()":"fbfa77cf"},"id":104}