{"abi":[{"type":"constructor","inputs":[{"name":"_vault","type":"address","internalType":"contract IVault"},{"name":"controllerGasLimit","type":"uint256","internalType":"uint256"}],"stateMutability":"nonpayable"},{"type":"function","name":"MAX_TICK_SPACING","inputs":[],"outputs":[{"name":"","type":"int24","internalType":"int24"}],"stateMutability":"view"},{"type":"function","name":"MIN_TICK_SPACING","inputs":[],"outputs":[{"name":"","type":"int24","internalType":"int24"}],"stateMutability":"view"},{"type":"function","name":"collectProtocolFees","inputs":[{"name":"recipient","type":"address","internalType":"address"},{"name":"currency","type":"address","internalType":"Currency"},{"name":"amount","type":"uint256","internalType":"uint256"}],"outputs":[{"name":"amountCollected","type":"uint256","internalType":"uint256"}],"stateMutability":"nonpayable"},{"type":"function","name":"donate","inputs":[{"name":"key","type":"tuple","internalType":"struct PoolKey","components":[{"name":"currency0","type":"address","internalType":"Currency"},{"name":"currency1","type":"address","internalType":"Currency"},{"name":"hooks","type":"address","internalType":"contract IHooks"},{"name":"poolManager","type":"address","internalType":"contract IPoolManager"},{"name":"fee","type":"uint24","internalType":"uint24"},{"name":"parameters","type":"bytes32","internalType":"bytes32"}]},{"name":"amount0","type":"uint256","internalType":"uint256"},{"name":"amount1","type":"uint256","internalType":"uint256"},{"name":"hookData","type":"bytes","internalType":"bytes"}],"outputs":[{"name":"delta","type":"int256","internalType":"BalanceDelta"}],"stateMutability":"nonpayable"},{"type":"function","name":"extsload","inputs":[{"name":"slot","type":"bytes32","internalType":"bytes32"}],"outputs":[{"name":"","type":"bytes32","internalType":"bytes32"}],"stateMutability":"view"},{"type":"function","name":"extsload","inputs":[{"name":"slots","type":"bytes32[]","internalType":"bytes32[]"}],"outputs":[{"name":"","type":"bytes32[]","internalType":"bytes32[]"}],"stateMutability":"view"},{"type":"function","name":"getFeeGrowthGlobals","inputs":[{"name":"id","type":"bytes32","internalType":"PoolId"}],"outputs":[{"name":"feeGrowthGlobal0x128","type":"uint256","internalType":"uint256"},{"name":"feeGrowthGlobal1x128","type":"uint256","internalType":"uint256"}],"stateMutability":"view"},{"type":"function","name":"getLiquidity","inputs":[{"name":"id","type":"bytes32","internalType":"PoolId"},{"name":"_owner","type":"address","internalType":"address"},{"name":"tickLower","type":"int24","internalType":"int24"},{"name":"tickUpper","type":"int24","internalType":"int24"},{"name":"salt","type":"bytes32","internalType":"bytes32"}],"outputs":[{"name":"liquidity","type":"uint128","internalType":"uint128"}],"stateMutability":"view"},{"type":"function","name":"getLiquidity","inputs":[{"name":"id","type":"bytes32","internalType":"PoolId"}],"outputs":[{"name":"liquidity","type":"uint128","internalType":"uint128"}],"stateMutability":"view"},{"type":"function","name":"getPoolBitmapInfo","inputs":[{"name":"id","type":"bytes32","internalType":"PoolId"},{"name":"word","type":"int16","internalType":"int16"}],"outputs":[{"name":"tickBitmap","type":"uint256","internalType":"uint256"}],"stateMutability":"view"},{"type":"function","name":"getPoolTickInfo","inputs":[{"name":"id","type":"bytes32","internalType":"PoolId"},{"name":"tick","type":"int24","internalType":"int24"}],"outputs":[{"name":"","type":"tuple","internalType":"struct Tick.Info","components":[{"name":"liquidityGross","type":"uint128","internalType":"uint128"},{"name":"liquidityNet","type":"int128","internalType":"int128"},{"name":"feeGrowthOutside0X128","type":"uint256","internalType":"uint256"},{"name":"feeGrowthOutside1X128","type":"uint256","internalType":"uint256"}]}],"stateMutability":"view"},{"type":"function","name":"getPosition","inputs":[{"name":"id","type":"bytes32","internalType":"PoolId"},{"name":"owner","type":"address","internalType":"address"},{"name":"tickLower","type":"int24","internalType":"int24"},{"name":"tickUpper","type":"int24","internalType":"int24"},{"name":"salt","type":"bytes32","internalType":"bytes32"}],"outputs":[{"name":"position","type":"tuple","internalType":"struct CLPosition.Info","components":[{"name":"liquidity","type":"uint128","internalType":"uint128"},{"name":"feeGrowthInside0LastX128","type":"uint256","internalType":"uint256"},{"name":"feeGrowthInside1LastX128","type":"uint256","internalType":"uint256"}]}],"stateMutability":"view"},{"type":"function","name":"getSlot0","inputs":[{"name":"id","type":"bytes32","internalType":"PoolId"}],"outputs":[{"name":"sqrtPriceX96","type":"uint160","internalType":"uint160"},{"name":"tick","type":"int24","internalType":"int24"},{"name":"protocolFee","type":"uint24","internalType":"uint24"},{"name":"lpFee","type":"uint24","internalType":"uint24"}],"stateMutability":"view"},{"type":"function","name":"grantPausableRole","inputs":[{"name":"account","type":"address","internalType":"address"}],"outputs":[],"stateMutability":"nonpayable"},{"type":"function","name":"hasPausableRole","inputs":[{"name":"","type":"address","internalType":"address"}],"outputs":[{"name":"","type":"bool","internalType":"bool"}],"stateMutability":"view"},{"type":"function","name":"initialize","inputs":[{"name":"key","type":"tuple","internalType":"struct PoolKey","components":[{"name":"currency0","type":"address","internalType":"Currency"},{"name":"currency1","type":"address","internalType":"Currency"},{"name":"hooks","type":"address","internalType":"contract IHooks"},{"name":"poolManager","type":"address","internalType":"contract IPoolManager"},{"name":"fee","type":"uint24","internalType":"uint24"},{"name":"parameters","type":"bytes32","internalType":"bytes32"}]},{"name":"sqrtPriceX96","type":"uint160","internalType":"uint160"},{"name":"hookData","type":"bytes","internalType":"bytes"}],"outputs":[{"name":"tick","type":"int24","internalType":"int24"}],"stateMutability":"nonpayable"},{"type":"function","name":"modifyLiquidity","inputs":[{"name":"key","type":"tuple","internalType":"struct PoolKey","components":[{"name":"currency0","type":"address","internalType":"Currency"},{"name":"currency1","type":"address","internalType":"Currency"},{"name":"hooks","type":"address","internalType":"contract IHooks"},{"name":"poolManager","type":"address","internalType":"contract IPoolManager"},{"name":"fee","type":"uint24","internalType":"uint24"},{"name":"parameters","type":"bytes32","internalType":"bytes32"}]},{"name":"params","type":"tuple","internalType":"struct ICLPoolManager.ModifyLiquidityParams","components":[{"name":"tickLower","type":"int24","internalType":"int24"},{"name":"tickUpper","type":"int24","internalType":"int24"},{"name":"liquidityDelta","type":"int256","internalType":"int256"},{"name":"salt","type":"bytes32","internalType":"bytes32"}]},{"name":"hookData","type":"bytes","internalType":"bytes"}],"outputs":[{"name":"delta","type":"int256","internalType":"BalanceDelta"},{"name":"feeDelta","type":"int256","internalType":"BalanceDelta"}],"stateMutability":"nonpayable"},{"type":"function","name":"owner","inputs":[],"outputs":[{"name":"","type":"address","internalType":"address"}],"stateMutability":"view"},{"type":"function","name":"pause","inputs":[],"outputs":[],"stateMutability":"nonpayable"},{"type":"function","name":"paused","inputs":[],"outputs":[{"name":"","type":"bool","internalType":"bool"}],"stateMutability":"view"},{"type":"function","name":"pools","inputs":[{"name":"id","type":"bytes32","internalType":"PoolId"}],"outputs":[{"name":"slot0","type":"tuple","internalType":"struct CLPool.Slot0","components":[{"name":"sqrtPriceX96","type":"uint160","internalType":"uint160"},{"name":"tick","type":"int24","internalType":"int24"},{"name":"protocolFee","type":"uint24","internalType":"uint24"},{"name":"lpFee","type":"uint24","internalType":"uint24"}]},{"name":"feeGrowthGlobal0X128","type":"uint256","internalType":"uint256"},{"name":"feeGrowthGlobal1X128","type":"uint256","internalType":"uint256"},{"name":"liquidity","type":"uint128","internalType":"uint128"}],"stateMutability":"view"},{"type":"function","name":"protocolFeeController","inputs":[],"outputs":[{"name":"","type":"address","internalType":"contract IProtocolFeeController"}],"stateMutability":"view"},{"type":"function","name":"protocolFeesAccrued","inputs":[{"name":"currency","type":"address","internalType":"Currency"}],"outputs":[{"name":"","type":"uint256","internalType":"uint256"}],"stateMutability":"view"},{"type":"function","name":"renounceOwnership","inputs":[],"outputs":[],"stateMutability":"nonpayable"},{"type":"function","name":"revokePausableRole","inputs":[{"name":"account","type":"address","internalType":"address"}],"outputs":[],"stateMutability":"nonpayable"},{"type":"function","name":"setProtocolFee","inputs":[{"name":"key","type":"tuple","internalType":"struct PoolKey","components":[{"name":"currency0","type":"address","internalType":"Currency"},{"name":"currency1","type":"address","internalType":"Currency"},{"name":"hooks","type":"address","internalType":"contract IHooks"},{"name":"poolManager","type":"address","internalType":"contract IPoolManager"},{"name":"fee","type":"uint24","internalType":"uint24"},{"name":"parameters","type":"bytes32","internalType":"bytes32"}]},{"name":"newProtocolFee","type":"uint24","internalType":"uint24"}],"outputs":[],"stateMutability":"nonpayable"},{"type":"function","name":"setProtocolFeeController","inputs":[{"name":"controller","type":"address","internalType":"contract IProtocolFeeController"}],"outputs":[],"stateMutability":"nonpayable"},{"type":"function","name":"swap","inputs":[{"name":"key","type":"tuple","internalType":"struct PoolKey","components":[{"name":"currency0","type":"address","internalType":"Currency"},{"name":"currency1","type":"address","internalType":"Currency"},{"name":"hooks","type":"address","internalType":"contract IHooks"},{"name":"poolManager","type":"address","internalType":"contract IPoolManager"},{"name":"fee","type":"uint24","internalType":"uint24"},{"name":"parameters","type":"bytes32","internalType":"bytes32"}]},{"name":"params","type":"tuple","internalType":"struct ICLPoolManager.SwapParams","components":[{"name":"zeroForOne","type":"bool","internalType":"bool"},{"name":"amountSpecified","type":"int256","internalType":"int256"},{"name":"sqrtPriceLimitX96","type":"uint160","internalType":"uint160"}]},{"name":"hookData","type":"bytes","internalType":"bytes"}],"outputs":[{"name":"delta","type":"int256","internalType":"BalanceDelta"}],"stateMutability":"nonpayable"},{"type":"function","name":"transferOwnership","inputs":[{"name":"newOwner","type":"address","internalType":"address"}],"outputs":[],"stateMutability":"nonpayable"},{"type":"function","name":"unpause","inputs":[],"outputs":[],"stateMutability":"nonpayable"},{"type":"function","name":"updateDynamicLPFee","inputs":[{"name":"key","type":"tuple","internalType":"struct PoolKey","components":[{"name":"currency0","type":"address","internalType":"Currency"},{"name":"currency1","type":"address","internalType":"Currency"},{"name":"hooks","type":"address","internalType":"contract IHooks"},{"name":"poolManager","type":"address","internalType":"contract IPoolManager"},{"name":"fee","type":"uint24","internalType":"uint24"},{"name":"parameters","type":"bytes32","internalType":"bytes32"}]},{"name":"newDynamicLPFee","type":"uint24","internalType":"uint24"}],"outputs":[],"stateMutability":"nonpayable"},{"type":"function","name":"vault","inputs":[],"outputs":[{"name":"","type":"address","internalType":"contract IVault"}],"stateMutability":"view"},{"type":"event","name":"Donate","inputs":[{"name":"id","type":"bytes32","indexed":true,"internalType":"PoolId"},{"name":"sender","type":"address","indexed":true,"internalType":"address"},{"name":"amount0","type":"uint256","indexed":false,"internalType":"uint256"},{"name":"amount1","type":"uint256","indexed":false,"internalType":"uint256"},{"name":"tick","type":"int24","indexed":false,"internalType":"int24"}],"anonymous":false},{"type":"event","name":"DynamicLPFeeUpdated","inputs":[{"name":"id","type":"bytes32","indexed":true,"internalType":"PoolId"},{"name":"dynamicLPFee","type":"uint24","indexed":false,"internalType":"uint24"}],"anonymous":false},{"type":"event","name":"Initialize","inputs":[{"name":"id","type":"bytes32","indexed":true,"internalType":"PoolId"},{"name":"currency0","type":"address","indexed":true,"internalType":"Currency"},{"name":"currency1","type":"address","indexed":true,"internalType":"Currency"},{"name":"fee","type":"uint24","indexed":false,"internalType":"uint24"},{"name":"tickSpacing","type":"int24","indexed":false,"internalType":"int24"},{"name":"hooks","type":"address","indexed":false,"internalType":"contract IHooks"}],"anonymous":false},{"type":"event","name":"ModifyLiquidity","inputs":[{"name":"id","type":"bytes32","indexed":true,"internalType":"PoolId"},{"name":"sender","type":"address","indexed":true,"internalType":"address"},{"name":"tickLower","type":"int24","indexed":false,"internalType":"int24"},{"name":"tickUpper","type":"int24","indexed":false,"internalType":"int24"},{"name":"salt","type":"bytes32","indexed":false,"internalType":"bytes32"},{"name":"liquidityDelta","type":"int256","indexed":false,"internalType":"int256"}],"anonymous":false},{"type":"event","name":"OwnershipTransferred","inputs":[{"name":"previousOwner","type":"address","indexed":true,"internalType":"address"},{"name":"newOwner","type":"address","indexed":true,"internalType":"address"}],"anonymous":false},{"type":"event","name":"PausableRoleGranted","inputs":[{"name":"account","type":"address","indexed":true,"internalType":"address"}],"anonymous":false},{"type":"event","name":"PausableRoleRevoked","inputs":[{"name":"account","type":"address","indexed":true,"internalType":"address"}],"anonymous":false},{"type":"event","name":"Paused","inputs":[{"name":"account","type":"address","indexed":false,"internalType":"address"}],"anonymous":false},{"type":"event","name":"ProtocolFeeControllerUpdated","inputs":[{"name":"protocolFeeController","type":"address","indexed":false,"internalType":"address"}],"anonymous":false},{"type":"event","name":"ProtocolFeeUpdated","inputs":[{"name":"id","type":"bytes32","indexed":true,"internalType":"PoolId"},{"name":"protocolFee","type":"uint24","indexed":false,"internalType":"uint24"}],"anonymous":false},{"type":"event","name":"Swap","inputs":[{"name":"id","type":"bytes32","indexed":true,"internalType":"PoolId"},{"name":"sender","type":"address","indexed":true,"internalType":"address"},{"name":"amount0","type":"int128","indexed":false,"internalType":"int128"},{"name":"amount1","type":"int128","indexed":false,"internalType":"int128"},{"name":"sqrtPriceX96","type":"uint160","indexed":false,"internalType":"uint160"},{"name":"liquidity","type":"uint128","indexed":false,"internalType":"uint128"},{"name":"tick","type":"int24","indexed":false,"internalType":"int24"},{"name":"fee","type":"uint24","indexed":false,"internalType":"uint24"},{"name":"protocolFee","type":"uint24","indexed":false,"internalType":"uint24"}],"anonymous":false},{"type":"event","name":"Unpaused","inputs":[{"name":"account","type":"address","indexed":false,"internalType":"address"}],"anonymous":false},{"type":"error","name":"CannotUpdateEmptyPosition","inputs":[]},{"type":"error","name":"CurrenciesInitializedOutOfOrder","inputs":[]},{"type":"error","name":"FeeTooLarge","inputs":[]},{"type":"error","name":"FeeTooLarge","inputs":[]},{"type":"error","name":"HookConfigValidationError","inputs":[]},{"type":"error","name":"HookDeltaExceedsSwapAmount","inputs":[]},{"type":"error","name":"HookPermissionsValidationError","inputs":[]},{"type":"error","name":"InvalidCaller","inputs":[]},{"type":"error","name":"InvalidFeeForExactOut","inputs":[]},{"type":"error","name":"InvalidHookResponse","inputs":[]},{"type":"error","name":"InvalidSqrtPriceLimit","inputs":[{"name":"sqrtPriceCurrentX96","type":"uint160","internalType":"uint160"},{"name":"sqrtPriceLimitX96","type":"uint160","internalType":"uint160"}]},{"type":"error","name":"NoLiquidityToReceiveFees","inputs":[]},{"type":"error","name":"NoPausableRole","inputs":[]},{"type":"error","name":"PoolAlreadyInitialized","inputs":[]},{"type":"error","name":"PoolManagerMismatch","inputs":[]},{"type":"error","name":"PoolNotInitialized","inputs":[]},{"type":"error","name":"PoolPaused","inputs":[]},{"type":"error","name":"ProtocolFeeCannotBeFetched","inputs":[]},{"type":"error","name":"SwapAmountCannotBeZero","inputs":[]},{"type":"error","name":"TickLiquidityOverflow","inputs":[{"name":"tick","type":"int24","internalType":"int24"}]},{"type":"error","name":"TickLowerOutOfBounds","inputs":[{"name":"tickLower","type":"int24","internalType":"int24"}]},{"type":"error","name":"TickSpacingTooLarge","inputs":[]},{"type":"error","name":"TickSpacingTooSmall","inputs":[]},{"type":"error","name":"TickUpperOutOfBounds","inputs":[{"name":"tickUpper","type":"int24","internalType":"int24"}]},{"type":"error","name":"TicksMisordered","inputs":[{"name":"tickLower","type":"int24","internalType":"int24"},{"name":"tickUpper","type":"int24","internalType":"int24"}]},{"type":"error","name":"UnauthorizedDynamicLPFeeUpdate","inputs":[]},{"type":"error","name":"UnusedBitsNonZero","inputs":[]}],"bytecode":{"object":"0x60c034620000ed57601f6200461038819003918201601f19168301916001600160401b03831184841017620000f1578084926040948552833981010312620000ed5780516001600160a01b03918282168203620000ed5760200151905f5460405193339082167f8be0079c531659141344cd1fd0a4f28419497f9722a3daafe3b4186f6b6457e05f80a36001600160a81b0319163360ff60a01b1916175f5560805260a05261450a9081620001068239608051818181610198015281816103fa015281816108a70152818161093b015281816111f4015281816112930152611aae015260a0518161282c0152f35b5f80fd5b634e487b7160e01b5f52604160045260245ffdfe610100806040526004361015610013575f80fd5b5f60e0525f3560e01c90816307eff0dd146123ef575080631e2eaeaf146123d3578063222bb36b14611f9a5780632b6dcd2114611f305780632d77138914611ec35780633f4ba83a14611e2a57806348ea11e914611dc557806350b6157b14611d6b5780635aa208a414611cc05780635c975abb14611c9c57806360460f0614611c80578063715018a614611c295780637388426b14611b805780637c352ef614611b3b5780638161b87414611a3857806381a250a1146119595780638456cb59146118c25780638da5cb5b1461189b5780639371d11514610da657806397e8cd4e14610d6a5780639ec538c814610d30578063ad4cc2d314610c4b578063b5217bb414610bb9578063c815641c14610b4f578063cd0cc1ce14610677578063dbd035ff146105f4578063f02de3b2146105ca578063f15b275f14610312578063f277d4ec146102d1578063f2fde38b14610207578063fa6793d5146101cd5763fbfa77cf14610181575f80fd5b346101c75760e0513660031901126101c7576040517f00000000000000000000000000000000000000000000000000000000000000006001600160a01b03168152602090f35b60e05180fd5b346101c75760203660031901126101c75760043560e05152600460205260206001600160801b036003604060e05120015416604051908152f35b346101c75760203660031901126101c7576102206124a9565b610228612942565b6001600160a01b0390811690811561027d575f54826bffffffffffffffffffffffff60a01b8216175f55167f8be0079c531659141344cd1fd0a4f28419497f9722a3daafe3b4186f6b6457e05f80a360e05180f35b60405162461bcd60e51b815260206004820152602660248201527f4f776e61626c653a206e6577206f776e657220697320746865207a65726f206160448201526564647265737360d01b6064820152608490fd5b346101c75760203660031901126101c7576001600160a01b036102f26124a9565b1660e051526001602052602060ff604060e0512054166040519015158152f35b346101c7576101203660031901126101c75761032d366124d1565b610104356001600160401b0381116101c75761034d903690600401612552565b9091610357612aae565b60c08120928360e051526004602052604060e051209261037684612999565b604083015160a0840180519092916001600160a01b03169060081c600116806105c0575b61058b575b506001600160801b039485600382015416958615610579576103ca6103c560c435614006565b6138fb565b906103d96103c560e435614006565b169060801b179560c43561055e575b60e435610542575b505460a01c60020b7f00000000000000000000000000000000000000000000000000000000000000006001600160a01b0316803b156101c757604051636b280fcb60e11b815260e05190918290818061044e338d8d60048501612674565b039160e051905af180156105355761051f575b506020966040519160c435835260e4358984015260408301527fbe708911656ae186ac3fc26a794e5f1319609ce340a14c63524f985fee4bc84160603393a36001808060a01b03604086015116925160091c1680610515575b6104c9575b8585604051908152f35b61050b936104f8610506926040519586936329826a2760e11b8b86015260e4359060c4359033602488016138be565b03601f198101845283612488565b61391b565b50828080806104bf565b50338214156104ba565b6105289061243e565b60e0516101c75787610461565b6040513d60e051823e3d90fd5b61054e9060e4356140be565b60028201908154019055876103f0565b61056a8160c4356140be565b600183019081540190556103e8565b60405163a74f97ab60e01b8152600490fd5b604051634b6a682d60e01b60208201526105b991610506826104f8868960e43560c4358d33602488016138be565b508661039f565b503381141561039a565b346101c75760e0513660031901126101c7576003546040516001600160a01b039091168152602090f35b346101c7576020806003193601126101c7576004356001600160401b038082116101c757366023830112156101c75781600401359081116101c75760051b9136602484840101116101c7576024926040600460e051376040019283920190808060405b843554815201920191838110156106715781908190610657565b8360e051f35b346101c7576101403660031901126101c757610692366124d1565b60603660c31901126101c757604051906106ab82612423565b60c43580151581036101c757825260e435602083015261010435916001600160a01b0383168303610b4b57604081019283526001600160401b0390610124358281116101c7576106ff903690600401612552565b94909261070a612aae565b602083015115610b395760c08520918260e051526004602052604060e051209161073383612999565b61073f8887878a612b0f565b61074b9592919561269d565b5062ffffff60a08b015160101c1691885115159560018060a01b0390511690604051958660a08101109060a088011117610b25576107ae9662ffffff9460a0880160405260020b8752602087015260408601526060850152166080830152612c92565b909260e082015180610adc575b5060018060a01b03604083015116916001600160801b036101008201511690606081015160020b62ffffff60a0816080850151169301511692604051958860801d600f0b875288600f0b602088015260408701526060860152608085015260a084015260c08301527fb77ed0820ac5ccea5eb3a8794611b4455dd4965b674768021a709ded81e95be160e03393a3819560408601948660018060a01b03875116918460801d94600f0b9387600160a085015160071c1680610ad2575b610a1b575b505060e0519692505050600f82900b15801590610a0f575b6109b9575b505050508061092f575b50507f00000000000000000000000000000000000000000000000000000000000000006001600160a01b031690813b156101c7576040518092636b280fcb60e11b825281806108fb60e0519588339160048501612674565b039160e051905af1801561053557610919575b602082604051908152f35b6109229061243e565b60e0516101c7578161090e565b90516001600160a01b037f00000000000000000000000000000000000000000000000000000000000000008116929116823b156101c75761098a926040518080958194636b280fcb60e11b835260e051968960048501612674565b039160e051905af18015610535576109a3575b806108a3565b6109ac9061243e565b60e0516101c7578261099d565b90919296506109f1935060e051602082015112905115151460e051505f146109fb576001600160801b03169060801b175b809461402f565b9284808080610899565b906001600160801b03169060801b176109ea565b5082600f0b1515610894565b610aac610ac294610a9e610abd95610ac8999895610a83610a5996604051978896636f6657cb60e01b6020890152336024890152604488019061262b565b805115156101048701526020810151610124870152604001516001600160a01b0316610144860152565b8c6101648501526101806101848501526101a48401916127e9565b03601f198101835282612488565b600160a08c0151600b1c1691614018565b612a21565b90613898565b878681808761087c565b5033851415610877565b855115610b125787516001600160a01b03165b60018060a01b031660e051526002602052604060e05120908154019055886107bb565b60208801516001600160a01b0316610aef565b634e487b7160e01b5f52604160045260245ffd5b60405163be8b850760e01b8152600490fd5b5f80fd5b346101c75760203660031901126101c75760043560e0515260046020526080610b7c604060e051206125c5565b60018060a01b0381511690602081015160020b9062ffffff6060816040840151169201511691604051938452602084015260408301526060820152f35b346101c75760203660031901126101c75760043560e05152600460205260e06040815120610be6816125c5565b906001810154906001600160801b036003600283015492015416916040519360018060a01b038151168552602081015160020b6020860152606060408201519162ffffff80931660408801520151166060850152608084015260a083015260c0820152f35b346101c75760e03660031901126101c757610c65366124d1565b610c6d6124bf565b62ffffff91628000008360808301511614801590610d19575b610d07578160c0602092610cba7f14b2b80e0d62303dc85494859f35a84579160aafbd650180ddf526b1ab547bd6956127d8565b20938460e0515260048352610cf982604060e05120610cd881612999565b805462ffffff60d01b191660d09290921b62ffffff60d01b16919091179055565b60405191168152a260e05180f35b6040516330d2164160e01b8152600490fd5b5060408101516001600160a01b0316331415610c86565b346101c75760203660031901126101c75760043560e05152600460205260408060e051206002600182015491015482519182526020820152f35b346101c75760203660031901126101c7576001600160a01b03610d8b6124a9565b1660e0515260026020526020604060e0512054604051908152f35b34610b4b57610160366003190112610b4b57610dc1366124d1565b608052608060c319360112610b4b57604051610ddc81612408565b60c4358060020b8103610b4b57815260e4358060020b8103610b4b5760208201526101043590816040820152610124356060820152610144356001600160401b038111610b4b57610e31903690600401612552565b9060c0529160ff5f5460a01c169081611891575b5061187f5760c06080512060a05260a0515f52600460205260405f2091610e6b83612999565b60018060a01b0360406080510151165f604084015113808091611861575b156117fc5750610ebd906040519063fe70c9c960e01b6020830152610506826104f88660c0518960805133602487016129b7565b505b815160020b602083015160020b90610eda6040850151612a21565b9162ffffff60a0608051015160101c1660020b60608601519060405194610f0086612451565b338652846020870152836040870152600f0b6060860152608085015260a08401525f95818312156117de57620d89e71983126117c557620d89e882136117ac57805460a01c60020b91610f51612c21565b93600183015460028401546060880151600f0b611598575b602088015160020b91604089015160020b91835f526004870160205260405f2092805f5260405f20948912155f146115845760026001850154940154905b8912156115705760026001860154950154915b030360608901520303604086015261101460018060a01b03875116602088015160020b604089015160020b9060a08a01519260068801939290926026526006526003525f52603a600c205f6026525f5260205260405f2090565b6060870151600f0b604087015160608801519083549383155f14611554576001600160801b03851615611542576002916001600160801b038616955b6110696001600160801b03821660018501548403614078565b966110826001600160801b038316868601548803614078565b96611524575b50506001820155015560a087015260808601525f6060870151600f0b126114b1575b606060a06080870151960151960151600f0b92836113bd575b50505050506110d46110da91614006565b91614006565b6001600160801b03169060801b1792825160020b602084015160020b606085015160408601519160405193845260208401526040830152606082015233907f431541727fac2b75e420d6f68d74dec38a010e3bcb4bc3416a866ffb2123be33608060a05192a36111636111548560801d8360801d01612a21565b9185600f0b90600f0b01612a21565b6001600160801b03169060801b17915f9260018060a01b03604060805101511692819460408401515f81138061139f575b15611311575050916111cf6111e99492610a9e6111e29560405194859363d533c4db60e01b602086015260c051916080513360248801612a43565b600160a06080510151600c1c1691614018565b809261402f565b905b80611282575b507f00000000000000000000000000000000000000000000000000000000000000006001600160a01b0316803b156101c75760405190636b280fcb60e11b82528160e051918180611249338860805160048501612674565b039160e051905af180156105355761126c575b5060409182519182526020820152f35b6112759061243e565b60e0516101c7578261125c565b608051604001516001600160a01b037f00000000000000000000000000000000000000000000000000000000000000008116929116823b15610b4b576112e4925f9283604051809681958294636b280fcb60e11b845260805160048501612674565b03925af1801561130657156111f1576112fc9061243e565b5f60e052826111f1565b6040513d5f823e3d90fd5b5f9095939491951280611381575b61132d575b505050506111eb565b6111e2939550611377945061136490610a9e6040519384926303d521e760e51b60208501528960c051916080513360248801612a43565b600160a06080510151600d1c1691614018565b9083808080611324565b50600160a0608051015160051c16801561131f57503383141561131f565b50600160a0608051015160031c168015611194575033861415611194565b80549599506110da956110d4955f95949392916001600160a01b031690869084811215611422575050505091610abd916114026113fc61140895613c2a565b91613c2a565b90613fae565b905b6001600160801b03169060801b1795918780806110c3565b859396959192949750125f1461148e5750610abd8360039361145c611456610abd8461145061146198613c2a565b85613fae565b98613c2a565b613f44565b9201906001600160801b0361147a835492828416613fed565b16906001600160801b03191617905561140a565b946114ac9450610abd9392506113fc6114a691613c2a565b90613f44565b61140a565b84516114f3575b6020850151156110aa576114ee604087015160020b600485019060020b5f526020525f6002604082208281558260018201550155565b6110aa565b61151f602087015160020b600485019060020b5f526020525f6002604082208281558260018201550155565b6114b8565b6001600160801b0316906001600160801b0319161782558f80611088565b604051632bbfae4960e21b8152600490fd5b60029161156a856001600160801b038816613fed565b95611050565b600260018601548403950154820391610fba565b600260018501548403940154820390610fa7565b6001600160801b03600160808a015160020b8080620d89e71905028180620d89e805020305018104168060c0890152602089015160020b60608a0151600f0b815f526004880160205260405f20908154926115fc826001600160801b038616613fed565b946001600160801b03861611611775579161163284928c6001600160801b039695878097161561178d575b50508360801c613898565b60801b85179055161591161514158752604088015160020b6060890151600f0b6001600160801b0360c08a01511690825f526004880160205260405f2090815493611686826001600160801b038716613fed565b936001600160801b03851611611775578a906001600160801b03861615611756575b505060016001607f1b03818560801d031360016001607f1b0319828660801d031217611742578360801d0360801b821790556001600160801b038060208b01931615911615141581528751611720575b5115610f695761171b604089015160020b60808a015160020b90600588016142d9565b610f69565b61173d60208a015160020b60808b015160020b90600589016142d9565b6116f8565b634e487b7160e01b5f52601160045260245ffd5b1315611764575b895f6116a8565b85600183015584600283015561175d565b6024906040519063b8e3c38560e01b82526004820152fd5b131561179b575b8c5f611627565b886001840155876002840155611794565b60405163035aeeff60e31b815260048101839052602490fd5b60405163d5e2f7ab60e01b815260048101849052602490fd5b604483836040519163c4433ed560e01b835260048301526024820152fd5b1580611843575b61180e575b50610ebf565b61183c906040519063e8246c7f60e01b6020830152610506826104f88660c0518960805133602487016129b7565b5083611808565b50600160a0608051015160041c168015611803575033811415611803565b50600160a0608051015160021c168015610e89575033821415610e89565b60405163146f5dc360e21b8152600490fd5b5f91501383610e45565b34610b4b575f366003190112610b4b575f546040516001600160a01b039091168152602090f35b34610b4b575f366003190112610b4b575f54336001600160a01b038216141580611942575b611930576118f3612aae565b60ff60a01b1916600160a01b175f556040513381527f62e78cea01bee320cd4e420270b5ea74000d11b0c9f74754ebdbfc544b05a25890602090a1005b604051635c92f6fb60e11b8152600490fd5b50335f52600160205260ff60405f205416156118e7565b34610b4b5760e0366003190112610b4b57611973366124d1565b61197b6124bf565b6003549091906001600160a01b03163303611a2657623e900082106103e9610fff8416101615611a1457602060c07fe9c42593e71f84403b84352cd168d693e2c9fcd1fdbcc3feb21d92b43e6696f9922092835f5260048252611a068160405f206119e581612999565b805462ffffff60b81b191660b89290921b62ffffff60b81b16919091179055565b62ffffff60405191168152a2005b604051637e2df70960e11b8152600490fd5b6040516348f5c3ed60e01b8152600490fd5b34610b4b576060366003190112610b4b57611a516124a9565b6001600160a01b039060243582811690819003610b4b57604435835f541633141580611b2d575b611a265780611b275750805f52600260205260405f2054915b815f52600260205260405f208054908482039182116117425755837f000000000000000000000000000000000000000000000000000000000000000016803b15610b4b575f9283606492604051978895869463eb78b43560e01b865260048601528860248601521660448401525af191821561130657602092611b18575b50604051908152f35b611b219061243e565b82611b0f565b91611a91565b508360035416331415611a78565b34610b4b576040366003190112610b4b576024358060010b809103610b4b576004355f526004602052600560405f2001905f52602052602060405f2054604051908152f35b34610b4b576060611be2611b933661257f565b935f60408095939551611ba581612423565b82815282602082015201525f526004602052600660405f2001939290926026526006526003525f52603a600c205f6026525f5260205260405f2090565b604051611bee81612423565b6001600160801b0382541691828252604060026001830154926020850193845201549201918252604051928352516020830152516040820152f35b34610b4b575f366003190112610b4b57611c41612942565b5f80546001600160a01b0319811682556001600160a01b03167f8be0079c531659141344cd1fd0a4f28419497f9722a3daafe3b4186f6b6457e08280a3005b34610b4b575f366003190112610b4b576020604051617fff8152f35b34610b4b575f366003190112610b4b57602060ff5f5460a01c166040519015158152f35b34610b4b576040366003190112610b4b576024358060020b809103610b4b57600490611cea612607565b5081355f528160205260405f2090611d00612607565b505f5201602052608060405f20604051611d1981612408565b8154916001600160801b038316928383526020830190851d600f0b815260606002600184015493604086019485520154930192835260405193845251600f0b6020840152516040830152516060820152f35b34610b4b5760206001600160801b03611dbb611d863661257f565b935f9391935260048752600660405f2001939290926026526006526003525f52603a600c205f6026525f5260205260405f2090565b5416604051908152f35b34610b4b576020366003190112610b4b57611dde6124a9565b611de6612942565b6001600160a01b03165f818152600160205260408120805460ff191690557f1413eb32f2b36b13c33708383cbcbf048dcde4c20c4c43d4475578b929b7c4b89080a2005b34610b4b575f366003190112610b4b57611e42612942565b5f5460ff8160a01c1615611e875760ff60a01b19165f556040513381527f5db9ee0a495bf2e6ff9c91a7834c1ba4fdd244a5e8aa4e537bd38aeae4b073aa90602090a1005b60405162461bcd60e51b815260206004820152601460248201527314185d5cd8589b194e881b9bdd081c185d5cd95960621b6044820152606490fd5b34610b4b576020366003190112610b4b576004356001600160a01b03811690819003610b4b5760207fb4bd8ef53df690b9943d3318996006dbb82a25f54719d8c8035b516a2a5b8acc91611f15612942565b600380546001600160a01b03191682179055604051908152a1005b34610b4b576020366003190112610b4b57611f496124a9565b611f51612942565b6001600160a01b03165f8181526001602081905260408220805460ff191690911790557f2e368421215bcf9173f447432ca3098dd87832e7a9ab24c931c43517f0a1758d9080a2005b34610b4b57610100366003190112610b4b57611fb5366124d1565b60c4356001600160a01b0381169003610b4b5760e4356001600160401b038111610b4b57611fe7903690600401612552565b6060830151919290916001600160a01b031630036123c15762ffffff60a082015160101c1660020b91617fff83136123af576001831261239d57815160208301516001600160a01b039182169116111561238b5760a082015160281c61237957612050826126e0565b60a0820151600181600a1c16908161236a575b5061232b5760a0820151600181600b1c16908161235b575b5061232b5760a0820151600181600c1c16908161234c575b5061232b5760a0820151600181600d1c16908161233d575b5061232b576120c262ffffff6080840151166127c1565b936120cc856127d8565b60018060a01b03604084015116600160a08501511680612321575b6122c5575b5060c08320936120fb84612809565b5f87815260046020526040902080549098919792506001600160a01b0381166122b357602098610cd86121a99360609362ffffff9b8c61213c60c435613993565b9d8e926040519361214c85612408565b6001600160a01b0360c4351680865260029190910b6020860152911660408401819052949091169690910186905260a08d901b62ffffff60a01b166001600160d01b031992909216171760b89190911b62ffffff60b81b16178255565b60018060a01b03855116907f3fd553db44f207b1f41348cfc4d251860814af9eadc470e8e7895e4d120511f4606060018060a01b038a890151169462ffffff60808a0151169060018060a01b0360408b015116906040519283528c8301526040820152a460018060a01b0360408401511690600160a0850151811c16806122a9575b61223d575b85856040519060020b8152f35b61229f936104f86105069261226e956040519687946303ffcd4b60e31b8c870152336024870152604486019061262b565b60c4356001600160a01b0316610104850152600289900b6101248501526101406101448501526101648401916127e9565b5082808080612230565b503382141561222b565b604051637983c05160e01b8152600490fd5b604051634b970cd160e11b602082015233602482015261231a916122ec604483018761262b565b60c4356001600160a01b0316610104830152610120610124830152610506826104f8610144820188886127e9565b50856120ec565b50338114156120e7565b604051631dd0958360e01b8152600490fd5b6001915060051c1615856120ab565b6001915060031c161585612093565b6001915060071c16158561207b565b6001915060061c161585612063565b60405163bd2c84eb60e01b8152600490fd5b6040516305a25e7160e11b8152600490fd5b604051630b7f3b4b60e11b8152600490fd5b604051635815aee160e11b8152600490fd5b6040516341bcf19160e11b8152600490fd5b34610b4b576020366003190112610b4b57600435545f5260205ff35b34610b4b575f366003190112610b4b5780600160209252f35b608081019081106001600160401b03821117610b2557604052565b606081019081106001600160401b03821117610b2557604052565b6001600160401b038111610b2557604052565b60c081019081106001600160401b03821117610b2557604052565b61012081019081106001600160401b03821117610b2557604052565b90601f801991011681019081106001600160401b03821117610b2557604052565b600435906001600160a01b0382168203610b4b57565b60c4359062ffffff82168203610b4b57565b60c0906003190112610b4b57604051906124ea82612451565b816001600160a01b036004358181168103610b4b5782526024358181168103610b4b5760208301526044358181168103610b4b5760408301526064359081168103610b4b57606082015260843562ffffff81168103610b4b57608082015260a060a435910152565b9181601f84011215610b4b578235916001600160401b038311610b4b5760208381860195010111610b4b57565b60a0906003190112610b4b57600435906024356001600160a01b0381168103610b4b57906044358060020b8103610b4b57906064358060020b8103610b4b579060843590565b906040516125d281612408565b606081935460018060a01b03811683528060a01c60020b602084015262ffffff90818160b81c16604085015260d01c16910152565b6040519061261482612408565b5f6060838281528260208201528260408201520152565b60a08091600180831b03808251168552806020830151166020860152806040830151166040860152606082015116606085015262ffffff60808201511660808501520151910152565b919260e091949361268a8461010081019761262b565b60c08401526001600160a01b0316910152565b604051906126aa8261246c565b5f610100838281528260208201528260408201528260608201528260808201528260a08201528260c08201528260e08201520152565b60a081015160408201805161ffff928316936001600160a01b039291831615612784575051604051633e58747d60e21b81529160209183916004918391165afa908115611306575f91612749575b50160361273757565b604051631fdd41b760e21b8152600490fd5b90506020813d60201161277c575b8161276460209383612488565b81010312610b4b57518181168103610b4b575f61272e565b3d9150612757565b93925050501590816127aa575b506127a857604051631fdd41b760e21b8152600490fd5b565b6080015162ffffff1662800000141590505f612791565b6280000062ffffff8216146127d35790565b505f90565b62ffffff620f4240911611611a1457565b908060209392818452848401375f828201840152601f01601f1916010190565b6003545f92839290916001600160a01b031680612824575050565b91935091505a7f00000000000000000000000000000000000000000000000000000000000000008091106129305760405190612872602083019463118d587360e21b8652602484019061262b565b60c482526001600160401b0393610100830185811184821017610b25575f94859485926040525193f13d15612927573d918211610b2557604051916128c1601f8201601f191660200184612488565b82523d5f602084013e5b15801561291c575b612915576020015162ffffff81169081811490816128fd575b50156128f757600191565b505f8091565b90506103e9610fff623e90008410921610165f6128ec565b505f905f90565b5060208151116128d3565b606091506128cb565b604051630f724b8160e11b8152600490fd5b5f546001600160a01b0316330361295557565b606460405162461bcd60e51b815260206004820152602060248201527f4f776e61626c653a2063616c6c6572206973206e6f7420746865206f776e65726044820152fd5b546001600160a01b0316156129aa57565b63486aa3075f526004601cfd5b6001600160a01b039091168152612a1e949261018092612a1091906129e090602085019061262b565b8051600290810b60e08501526020820151900b610100840152604081015161012084015260600151610140830152565b8161016082015201916127e9565b90565b6001607f1b810160801c15612a3d576393dafdf15f526004601cfd5b600f0b90565b91612a1e96949193612a6a612a9a926101a09660018060a01b03168652602086019061262b565b8051600290810b60e08601526020820151900b610100850152604081015161012085015260600151610140840152565b6101608201528161018082015201916127e9565b60ff5f5460a01c16612abc57565b60405162461bcd60e51b815260206004820152601060248201526f14185d5cd8589b194e881c185d5cd95960821b6044820152606490fd5b9190915f838201938412911290801582169115161761174257565b939092935f935f9360018060a01b036040840151169060208301519760a08501936001855160061c1680612c17575b15612c0957610a596280000094610506886104f862ffffff97608097612b84612b989860405198899663e592dc9360e01b6020890152336024890152604488019061262b565b6101606101648501526101848401916127e9565b9401511614612bfd575b51600a1c600116612bb05750565b604001519250608083901d600f0b80612bc65750565b612bd3905f861295612af4565b9315612bf5575f84135b612be357565b604051637d05b8eb60e11b8152600490fd5b5f8412612bdd565b60608201519350612ba2565b505f97508796505050505050565b5033841415612b3e565b6040519060e082018281106001600160401b03821117610b25576040525f60c0838281528260208201528260408201528260608201528260808201528260a08201520152565b9190820180921161174257565b8115612c7e570490565b634e487b7160e01b5f52601260045260245ffd5b9091612c9c61269d565b50612ca6826125c5565b60208401516060850151919290158015926001600160a01b0316906138675783516001600160a01b03168110801590613858575b61382c576001600160801b03600386015416955f60408201511292845f1461381a57610fff604087015116975b6080830151624000008116156138095762bfffff16612d25816127d8565b985b60408401519061ffff60018060a01b038a51169160208b01519c828216155f146137ec579c5b8a156137e15760018d0154935b60405195612d678761246c565b86525f6020870152604086015260020b606085015262ffffff8d1660808501521660a083015260c08201525f60e0820152816101008201528099861590816137cf575b506137bd576040840151156137ae5750612dc2612c21565b965b8951151580613797575b156136735760408a01516001600160a01b0316885260608a01518451600291820b910b8815613516575f818307811382840503600881901d600190810b835260058e0160205260409092205460ff919091169190911b80015f19011680158015939190806134f257815f91610b4b5760ff92600160801b8110156134e3575b50806801000000000000000060029210156134d5575b6401000000008110156134c7575b620100008110156134b9575b6101008110156134ab575b601081101561349d575b6004811015613490575b1015613486575b815f858507128585050316031660020b90825f818307129105030360020b0260020b5b905b151560408a015260020b60208901819052620d89e7199081811215613467575060208901525b868a60018060a01b03612f0760208c015160020b613c2a565b168060608c015260018060a01b036040830151166001600160801b036101008401511662ffffff60808551950151169260018060a01b03868c8310188c8318028c1816831015935f86125f1461331757620f4240918c82840398612f6d8a8a5f03614186565b9888156132e457612f8987898486881018868818028618614371565b995b8a8110613229575050818310189118028c1896879282145f1461321a575050845b935b1561320c5791612fc792038060ff1d9081011890614140565b905b60c08c015260a08b015260808a01526001600160a01b031660408b015285156131b657612fff608089015160c08a015101614063565b8a51018a5260208a01613020815161301a60a08c0151614063565b90612af4565b90525b62ffffff60a08b0151168061318a575b506001600160801b036101008b0151168061316c575b5060408a015160608901516001600160a01b039182169116810361313d575060408801516130a1575b8615613094575f19602089015160020b0160020b5b60020b60608b0152612dc4565b602088015160020b613087565b6001600160801b0361310b888c8c60208d015160020b835f1461313057600460c0840151925b8515613125576002810154925b5f520160205260405f2091600183019081549003905560028201908154900390555460801d91613117575b61010001518316613fed565b166101008b0152613072565b5f91909103600f0b906130ff565b60c0850151926130d4565b60046001830154926130c7565b88516001600160a01b03168103613155575b50612dc4565b61315e90613993565b60020b60608b01525f61314f565b61317a9060c08a01516140be565b60c08b019081510190525f613049565b620f424060808a01519160c08b0151809301020480910360c08a015260e08b019081510190525f613033565b6131c360a0890151614063565b8a51038a5260208a01516131e86131e360808b015160c08c015190612c67565b614063565b905f82128183810312811690828481031390151617611742570360208b0152613023565b61321592614312565b612fc7565b61322491876143c2565b612fac565b969a509850505050505084158215176132d75782156132955761324d908583614444565b935b84808284861561326d5761326292614371565b8095015f0393612fae565b9050038060ff1d9081011860016132848285614140565b918160601b90850915151601613262565b6132c3906132be90866001600160a01b0382116132c9576132b89160601b612c74565b83612c67565b6144bc565b9361324f565b6132d2916141ec565b6132b8565b634f2461b85f526004601cfd5b818385101883851802831888038060ff1d908101186001613305828a614140565b918160601b908a091515160199612f8b565b9493959290865f1461344b578b613342838683851018838518028318038060ff1d9081011885614140565b945b8587106133a75761337b959650818310189118028b1880965b15613380579061336d9291614371565b809380620f424003916143c2565b612fc9565b600191038060ff1d90810118916133978382614140565b928260601b91091515160161336d565b5050509150828115808415176132d7578615613436576001600160a01b038211613406575060601b818082061515910401915b828111156133f95761337b9281036001600160a01b03165b809661335d565b634323a5555f526004601cfd5b9061341183826141ec565b91612c7e578290600160601b900961342a575b916133da565b60010180613424575f80fd5b509161344661337b9383836143eb565b6133f2565b8b61346184868385101883851802831885614312565b94613344565b9050620d89e880911361347b575b50612eee565b60208901525f613475565b6001018116612ea3565b918101831691811c612e9c565b60049283018416921c612e92565b60089283018416921c612e88565b60109283018416921c612e7d565b60209283018416921c612e71565b60409283018416921c612e63565b60809250821c90506002612e4d565b50505f82820712908290050360ff8116600290810b909103810b909102900b612ec6565b9080825f81600194071291050301908160020b60081d60010b5f5260058b016020525f19600160ff84161b011960405f2054169182151592835f1461365657808115610b4b5760ff9182906001600160801b0381161561364c575050607f5b6001600160401b0382161561364257603f190182165b63ffffffff82161561363857601f190182165b61ffff82161561362e57600f190182165b81831615613624576007190182165b600f82161561361a576003190182165b600382161561360e57600119018216906001905b16613604575b82821690031660020b9060020b0160020b0260020b5b90612ec8565b5f190181166135e8565b9060019060021c6135e2565b9060041c906135ce565b9060081c906135be565b9060101c906135af565b9060201c9061359e565b9060401c9061358b565b60801c9150613575565b5060ff81811681031660020b9060020b0160020b0260020b6135fe565b91989793509195509392936020606088015160020b91015160020b8114155f1461377157604087015183546001600160a01b0390911660a09290921b62ffffff60a01b166001600160b81b0319909116171782555b6001600160801b0361010087015116809103613756575b50811561374757600160c08601519101555b03613724576040015181516137069103612a21565b6137136020830151612a21565b6001600160801b03169060801b1791565b61374260406137366020850151612a21565b92015183519003612a21565b613713565b600260c08601519101556136f1565b6001600160801b03196003830154161760038201555f6136df565b50604086015182546001600160a01b0319166001600160a01b03919091161782556136c8565b5060408a01516001600160a01b0316851415612dce565b985050955050505050505f9190565b604051634b10312360e11b8152600490fd5b620f4240915062ffffff16145f612daa565b60028d015493612d5a565b8083831602620f424080820615159104019083831601039c612d4d565b5062ffffff60608801511698612d27565b610fff6040870151600c1c1697612d07565b8351604051635ae20f7f60e11b81526001600160a01b0390911660048201526024810191909152604490fd5b506401000276a3811115612cda565b83516001600160a01b031681111580612cda575073fffd8963efd1fc6a506488495d951d5263988d26811015612cda565b90600f0b90600f0b019060016001607f1b0319821260016001607f1b0383131761174257565b91926138e2612a1e979592946101409560018060a01b03168552602085019061262b565b60e08301526101008201528161012082015201916127e9565b600f0b6f7fffffffffffffffffffffffffffffff198114611742575f0390565b5f80939281926020825192019586915af1156139785760405191601f19603f3d011683016040523d83523d60208401905f823e5190516001600160e01b031990811691160361396657565b604051631e048e1d60e01b8152600490fd5b3d15613986573d5f803e3d5ffd5b6336bc48c55f526004601cfd5b73fffd8963efd1fc6a506488495d951d51639616826401000276a219820111613c1d5760018060a01b03640100000000600160c01b038260201b16806001600160801b03811160071b9181831c926001600160401b03841160061b93841c9363ffffffff851160051b94851c9461ffff861160041b95861c60ff9687821160031b91821c92600f841160021b93841c94600160038711811b96871c1196171717171717179160808310155f14613c115750607e1982011c5b8002607f928392828493841c81841c1c800280851c81851c1c800280861c81861c1c800280871c81871c1c80029081881c82881c1c80029283891c84891c1c800294858a1c868a1c1c800296878b1c888b1c1c800298898c1c8a8c1c1c80029a8b8d1c8c821c1c8002809d1c8d821c1c8002809e81901c90821c1c80029e8f80911c911c1c800260cd1c6604000000000000169d60cc1c6608000000000000169c60cb1c6610000000000000169b60ca1c6620000000000000169a60c91c6640000000000000169960c81c6680000000000000169860c71c670100000000000000169760c61c670200000000000000169660c51c670400000000000000169560c41c670800000000000000169460c31c671000000000000000169360c21c672000000000000000169260c11c674000000000000000169160c01c6780000000000000001690607f190160401b1717171717171717171717171717693627a301d71055774c8502906f028f6481ab7f045a5af012a19d003aa919820160801d60020b916fdb2df09e81959a81455e260799a0632f0160801d60020b928383145f14613bf6575050905090565b811690613c0284613c2a565b1611613c0c575090565b905090565b905081607f031b613a4b565b6302ad01b65f526004601cfd5b8060ff1d81810118620d89e88111613f375763ffffffff91600160801b7001fffcb933bd6fad37aa2d162d1a5940016001841602189160028116613f1b575b60048116613eff575b60088116613ee3575b60108116613ec7575b60208116613eab575b60408116613e8f575b608090818116613e74575b6101008116613e59575b6102008116613e3e575b6104008116613e23575b6108008116613e08575b6110008116613ded575b6120008116613dd2575b6140008116613db7575b6180008116613d9c575b620100008116613d81575b620200008116613d67575b620400008116613d4d575b6208000016613d33575b505f12613d2b575b0160201c90565b5f1904613d24565b6b048a170391f7dc42444e8fa25f929302901c9190613d1c565b6d2216e584f5fa1ea926041bedfe98909302811c92613d12565b926e5d6af8dedb81196699c329225ee60402811c92613d07565b926f09aa508b5b7a84e1c677de54f3e99bc902811c92613cfc565b926f31be135f97d08fd981231505542fcfa602811c92613cf1565b926f70d869a156d2a1b890bb3df62baf32f702811c92613ce7565b926fa9f746462d870fdf8a65dc1f90e061e502811c92613cdd565b926fd097f3bdfd2022b8845ad8f792aa582502811c92613cd3565b926fe7159475a2c29b7443b29c7fa6e889d902811c92613cc9565b926ff3392b0822b70005940c7a398e4b70f302811c92613cbf565b926ff987a7253ac413176f2b074cf7815e5402811c92613cb5565b926ffcbe86c7900a88aedcffc83b479aa3a402811c92613cab565b926ffe5dee046a99a2a811c461f1969c305302811c92613ca1565b916fff2ea16466c96a3843ec78b326b528610260801c91613c96565b916fff973b41fa98c081472e6896dfb254c00260801c91613c8d565b916fffcb9843d60f6159c9db58835c9266440260801c91613c84565b916fffe5caca7e10e4e61c3624eaa0941cd00260801c91613c7b565b916ffff2e50f5f656932ef12357cf3c7fdcc0260801c91613c72565b916ffff97272373d413259a46990580e213a0260801c91613c69565b63ce8ef7fc5f526004601cfd5b5f83600f0b125f14613f7357916131e391612a1e93038060ff1d90810118905f036001600160801b0316614140565b90600190613fa9936001600160801b031692038060ff1d9081011891613f998382614140565b928260601b910915151601614063565b5f0390565b915f81600f0b125f14613fd557916131e391612a1e935f036001600160801b031691614312565b916131e391613fa9936001600160801b031691614371565b01908160801c613ff957565b6393dafdf15f526004601cfd5b6001607f1b811015613ff957600f0b90565b906140229161391b565b90156127d3576040015190565b614052906140448360801d8260801d03612a21565b92600f0b90600f0b03612a21565b6001600160801b03169060801b1790565b5f811215612a1e576393dafdf15f526004601cfd5b81810291905f19828209918380841093039183830393600160801b9385851115610b4b57146140b4570990828211900360801b910360801c1790565b5050505060801c90565b90608082901b90600160801b5f1981850993838086109503948086039586851115610b4b5714614138579082910981805f0316809204600280826003021880830282030280830282030280830282030280830282030280830282030280920290030293600183805f03040190848311900302920304170290565b505091500490565b81810291905f19828209918380841093039183830393600160601b9385851115610b4b571461417c570990828211900360a01b910360601c1790565b5050505060601c90565b90808202905f19818409908280831092039082820392620f42409284841115610b4b57146141e4577fde8f6cefed634549b62c77574f722e1ac57e23f24d8fd5cb790fb65668c26139940990828211900360fa1b910360061c170290565b509250500490565b90606082901b90600160601b5f1981850993838086109503948086039586851115610b4b5714614138579082910981805f0316809204600280826003021880830282030280830282030280830282030280830282030280830282030280920290030293600183805f03040190848311900302920304170290565b91818302915f1981850993838086109503948086039586851115610b4b5714614138579082910981805f0316809204600280826003021880830282030280830282030280830282030280830282030280830282030280920290030293600183805f03040190848311900302920304170290565b91908181076142ff5705908160081d5f52602052600160ff60405f2092161b8154189055565b63d4d8f3e65f526020526040526044601cfd5b90916001600160a01b039081841682841611614369575b821561435d57612a1e93614355918382169185900384169060601b600160601b600160e01b0316614266565b911690612c74565b62bfc9215f526004601cfd5b919291614329565b916001600160a01b0391808316838516116143bc575b831561435d576143af918184169185900384169060601b600160601b600160e01b03166143c2565b9116808206151591040190565b92614387565b9291906143d0828286614266565b938215612c7e57096143de57565b90600101908115610b4b57565b90821561443e576001600160a01b038216928084029260609290921b600160601b600160e01b03169190830414828211161561443157612a1e926132be928203916143c2565b63f5c787f15f526004601cfd5b50905090565b919081156144b7576001600160a01b039260609190911b600160601b600160e01b031691908316808202816144798483612c74565b1461449f575b509061448e6144939284612c74565b612c67565b80820615159104011690565b830183811061447f5791506144b3926143c2565b1690565b505090565b600160a01b811015613ff9576001600160a01b03169056fea26469706673582212207e0fb56766fea8329d6cb80a2d3b42f03649659dda8e1486a6859de76ac9357164736f6c63430008180033","linkReferences":{}},"methodIdentifiers":{"MAX_TICK_SPACING()":"60460f06","MIN_TICK_SPACING()":"07eff0dd","collectProtocolFees(address,address,uint256)":"8161b874","donate((address,address,address,address,uint24,bytes32),uint256,uint256,bytes)":"f15b275f","extsload(bytes32)":"1e2eaeaf","extsload(bytes32[])":"dbd035ff","getFeeGrowthGlobals(bytes32)":"9ec538c8","getLiquidity(bytes32)":"fa6793d5","getLiquidity(bytes32,address,int24,int24,bytes32)":"50b6157b","getPoolBitmapInfo(bytes32,int16)":"7c352ef6","getPoolTickInfo(bytes32,int24)":"5aa208a4","getPosition(bytes32,address,int24,int24,bytes32)":"7388426b","getSlot0(bytes32)":"c815641c","grantPausableRole(address)":"2b6dcd21","hasPausableRole(address)":"f277d4ec","initialize((address,address,address,address,uint24,bytes32),uint160,bytes)":"222bb36b","modifyLiquidity((address,address,address,address,uint24,bytes32),(int24,int24,int256,bytes32),bytes)":"9371d115","owner()":"8da5cb5b","pause()":"8456cb59","paused()":"5c975abb","pools(bytes32)":"b5217bb4","protocolFeeController()":"f02de3b2","protocolFeesAccrued(address)":"97e8cd4e","renounceOwnership()":"715018a6","revokePausableRole(address)":"48ea11e9","setProtocolFee((address,address,address,address,uint24,bytes32),uint24)":"81a250a1","setProtocolFeeController(address)":"2d771389","swap((address,address,address,address,uint24,bytes32),(bool,int256,uint160),bytes)":"cd0cc1ce","transferOwnership(address)":"f2fde38b","unpause()":"3f4ba83a","updateDynamicLPFee((address,address,address,address,uint24,bytes32),uint24)":"ad4cc2d3","vault()":"fbfa77cf"},"id":23}