{"abi":[{"type":"function","name":"DOMAIN_SEPARATOR","inputs":[{"name":"nameHash","type":"bytes32","internalType":"bytes32"},{"name":"versionHash","type":"bytes32","internalType":"bytes32"}],"outputs":[{"name":"","type":"bytes32","internalType":"bytes32"}],"stateMutability":"view"},{"type":"function","name":"PERMIT_TYPEHASH","inputs":[],"outputs":[{"name":"","type":"bytes32","internalType":"bytes32"}],"stateMutability":"view"},{"type":"function","name":"permitCheck","inputs":[{"name":"spender","type":"address","internalType":"address"},{"name":"tokenId","type":"uint256","internalType":"uint256"},{"name":"deadline","type":"uint256","internalType":"uint256"},{"name":"v","type":"uint8","internalType":"uint8"},{"name":"r","type":"bytes32","internalType":"bytes32"},{"name":"s","type":"bytes32","internalType":"bytes32"},{"name":"owner","type":"address","internalType":"address"},{"name":"domainSeparatorHash","type":"bytes32","internalType":"bytes32"},{"name":"nonce","type":"uint256","internalType":"uint256"}],"outputs":[],"stateMutability":"view"},{"type":"error","name":"ApproveToOneself","inputs":[]},{"type":"error","name":"InvalidSignature","inputs":[]},{"type":"error","name":"PermitExpired","inputs":[]},{"type":"error","name":"Unauthorized","inputs":[]}],"bytecode":{"object":"0x6080806040523461001a576103ef908161001f823930815050f35b5f80fdfe6080604081815260049182361015610015575f80fd5b5f3560e01c90816330adf81f1461033a57508063948d4152146100ab57639fbf0b2d14610040575f80fd5b806003193601126100a7576020918151838101917f8b73c3c69bb8fe3d512ecc4cf759cc79239f7b179b0ffacaa9a75d522b39400f8352358382015260243560608201524660808201523060a082015260a0815261009d8161036d565b5190209051908152f35b5f80fd5b50906101203660031901126100a7576001600160a01b03918135838116908190036100a75760443560649060643560ff8116908181036100a7576084359760a4359060c43593818516948581036100a75786421161032a57858a80516020998c8b8301937f49ecf333e5b8c95c40fdafc95c1ad136e8914a8fb55e9dc8bb01eaa83a2df9ad8552830152602435606083015261010435608083015260a082015260a081526101588161036d565b5190208b518981019161190160f01b835260e43560228301526042820152604281526101838161039d565b519020991461031a573b156102c55750508651848101999099528887015260f81b6001600160f81b0319166060880152604187526101c08761039d565b845192630b135d3f60e11b94858552878501528560248501528751908160448601525f5b8281106102b2575050601f9495969750829184606481845f838397840101528919998a91011681010301915afa9283156102a8575f9361023f575b5050506001600160e01b0319161461023357005b516282b42960e81b8152fd5b9080929350903d83116102a0575b601f820116830183811067ffffffffffffffff82111761028d5785528201829003126100a757516001600160e01b0319811681036100a7575f808061021f565b604187634e487b7160e01b5f525260245ffd5b3d915061024d565b85513d5f823e3d90fd5b89810185015186820183015284016101e4565b5f95965088608095999a9b92989450519384528684015288830152606082015282805260015afa15610310575f51168015610301570361023357005b505051638baa579f60e01b8152fd5b82513d5f823e3d90fd5b895163a0f4f97d60e01b81528b90fd5b895163068568f360e21b81528b90fd5b5f3660031901126100a757807f49ecf333e5b8c95c40fdafc95c1ad136e8914a8fb55e9dc8bb01eaa83a2df9ad60209252f35b60c0810190811067ffffffffffffffff82111761038957604052565b634e487b7160e01b5f52604160045260245ffd5b6080810190811067ffffffffffffffff8211176103895760405256fea2646970667358221220d0d8d21c01c785f7ee6d1f42e7b562db7053ee671c4864ab17c417605100c2f664736f6c63430008180033","linkReferences":{}},"methodIdentifiers":{"DOMAIN_SEPARATOR(bytes32,bytes32)":"9fbf0b2d","PERMIT_TYPEHASH()":"30adf81f","permitCheck(address,uint256,uint256,uint8,bytes32,bytes32,address,bytes32,uint256)":"948d4152"},"id":113}