{"abi":[{"type":"constructor","inputs":[{"name":"_vault","type":"address","internalType":"contract IVault"},{"name":"_clPoolManager","type":"address","internalType":"contract ICLPoolManager"},{"name":"_WETH9","type":"address","internalType":"address"}],"stateMutability":"nonpayable"},{"type":"receive","stateMutability":"payable"},{"type":"function","name":"WETH9","inputs":[],"outputs":[{"name":"","type":"address","internalType":"address"}],"stateMutability":"view"},{"type":"function","name":"clPoolManager","inputs":[],"outputs":[{"name":"","type":"address","internalType":"contract ICLPoolManager"}],"stateMutability":"view"},{"type":"function","name":"exactInput","inputs":[{"name":"params","type":"tuple","internalType":"struct ICLSwapRouterBase.V4CLExactInputParams","components":[{"name":"currencyIn","type":"address","internalType":"Currency"},{"name":"path","type":"tuple[]","internalType":"struct ISwapRouterBase.PathKey[]","components":[{"name":"intermediateCurrency","type":"address","internalType":"Currency"},{"name":"fee","type":"uint24","internalType":"uint24"},{"name":"hooks","type":"address","internalType":"contract IHooks"},{"name":"hookData","type":"bytes","internalType":"bytes"},{"name":"poolManager","type":"address","internalType":"contract IPoolManager"},{"name":"parameters","type":"bytes32","internalType":"bytes32"}]},{"name":"recipient","type":"address","internalType":"address"},{"name":"amountIn","type":"uint128","internalType":"uint128"},{"name":"amountOutMinimum","type":"uint128","internalType":"uint128"}]},{"name":"deadline","type":"uint256","internalType":"uint256"}],"outputs":[{"name":"amountOut","type":"uint256","internalType":"uint256"}],"stateMutability":"payable"},{"type":"function","name":"exactInputSingle","inputs":[{"name":"params","type":"tuple","internalType":"struct ICLSwapRouterBase.V4CLExactInputSingleParams","components":[{"name":"poolKey","type":"tuple","internalType":"struct PoolKey","components":[{"name":"currency0","type":"address","internalType":"Currency"},{"name":"currency1","type":"address","internalType":"Currency"},{"name":"hooks","type":"address","internalType":"contract IHooks"},{"name":"poolManager","type":"address","internalType":"contract IPoolManager"},{"name":"fee","type":"uint24","internalType":"uint24"},{"name":"parameters","type":"bytes32","internalType":"bytes32"}]},{"name":"zeroForOne","type":"bool","internalType":"bool"},{"name":"recipient","type":"address","internalType":"address"},{"name":"amountIn","type":"uint128","internalType":"uint128"},{"name":"amountOutMinimum","type":"uint128","internalType":"uint128"},{"name":"sqrtPriceLimitX96","type":"uint160","internalType":"uint160"},{"name":"hookData","type":"bytes","internalType":"bytes"}]},{"name":"deadline","type":"uint256","internalType":"uint256"}],"outputs":[{"name":"amountOut","type":"uint256","internalType":"uint256"}],"stateMutability":"payable"},{"type":"function","name":"exactOutput","inputs":[{"name":"params","type":"tuple","internalType":"struct ICLSwapRouterBase.V4CLExactOutputParams","components":[{"name":"currencyOut","type":"address","internalType":"Currency"},{"name":"path","type":"tuple[]","internalType":"struct ISwapRouterBase.PathKey[]","components":[{"name":"intermediateCurrency","type":"address","internalType":"Currency"},{"name":"fee","type":"uint24","internalType":"uint24"},{"name":"hooks","type":"address","internalType":"contract IHooks"},{"name":"hookData","type":"bytes","internalType":"bytes"},{"name":"poolManager","type":"address","internalType":"contract IPoolManager"},{"name":"parameters","type":"bytes32","internalType":"bytes32"}]},{"name":"recipient","type":"address","internalType":"address"},{"name":"amountOut","type":"uint128","internalType":"uint128"},{"name":"amountInMaximum","type":"uint128","internalType":"uint128"}]},{"name":"deadline","type":"uint256","internalType":"uint256"}],"outputs":[{"name":"amountIn","type":"uint256","internalType":"uint256"}],"stateMutability":"payable"},{"type":"function","name":"exactOutputSingle","inputs":[{"name":"params","type":"tuple","internalType":"struct ICLSwapRouterBase.V4CLExactOutputSingleParams","components":[{"name":"poolKey","type":"tuple","internalType":"struct PoolKey","components":[{"name":"currency0","type":"address","internalType":"Currency"},{"name":"currency1","type":"address","internalType":"Currency"},{"name":"hooks","type":"address","internalType":"contract IHooks"},{"name":"poolManager","type":"address","internalType":"contract IPoolManager"},{"name":"fee","type":"uint24","internalType":"uint24"},{"name":"parameters","type":"bytes32","internalType":"bytes32"}]},{"name":"zeroForOne","type":"bool","internalType":"bool"},{"name":"recipient","type":"address","internalType":"address"},{"name":"amountOut","type":"uint128","internalType":"uint128"},{"name":"amountInMaximum","type":"uint128","internalType":"uint128"},{"name":"sqrtPriceLimitX96","type":"uint160","internalType":"uint160"},{"name":"hookData","type":"bytes","internalType":"bytes"}]},{"name":"deadline","type":"uint256","internalType":"uint256"}],"outputs":[{"name":"amountIn","type":"uint256","internalType":"uint256"}],"stateMutability":"payable"},{"type":"function","name":"lockAcquired","inputs":[{"name":"encodedSwapInfo","type":"bytes","internalType":"bytes"}],"outputs":[{"name":"","type":"bytes","internalType":"bytes"}],"stateMutability":"nonpayable"},{"type":"function","name":"multicall","inputs":[{"name":"data","type":"bytes[]","internalType":"bytes[]"}],"outputs":[{"name":"results","type":"bytes[]","internalType":"bytes[]"}],"stateMutability":"payable"},{"type":"function","name":"refundETH","inputs":[],"outputs":[],"stateMutability":"payable"},{"type":"function","name":"selfPermit","inputs":[{"name":"token","type":"address","internalType":"address"},{"name":"value","type":"uint256","internalType":"uint256"},{"name":"deadline","type":"uint256","internalType":"uint256"},{"name":"v","type":"uint8","internalType":"uint8"},{"name":"r","type":"bytes32","internalType":"bytes32"},{"name":"s","type":"bytes32","internalType":"bytes32"}],"outputs":[],"stateMutability":"payable"},{"type":"function","name":"selfPermitAllowed","inputs":[{"name":"token","type":"address","internalType":"address"},{"name":"nonce","type":"uint256","internalType":"uint256"},{"name":"expiry","type":"uint256","internalType":"uint256"},{"name":"v","type":"uint8","internalType":"uint8"},{"name":"r","type":"bytes32","internalType":"bytes32"},{"name":"s","type":"bytes32","internalType":"bytes32"}],"outputs":[],"stateMutability":"payable"},{"type":"function","name":"selfPermitAllowedIfNecessary","inputs":[{"name":"token","type":"address","internalType":"address"},{"name":"nonce","type":"uint256","internalType":"uint256"},{"name":"expiry","type":"uint256","internalType":"uint256"},{"name":"v","type":"uint8","internalType":"uint8"},{"name":"r","type":"bytes32","internalType":"bytes32"},{"name":"s","type":"bytes32","internalType":"bytes32"}],"outputs":[],"stateMutability":"payable"},{"type":"function","name":"selfPermitIfNecessary","inputs":[{"name":"token","type":"address","internalType":"address"},{"name":"value","type":"uint256","internalType":"uint256"},{"name":"deadline","type":"uint256","internalType":"uint256"},{"name":"v","type":"uint8","internalType":"uint8"},{"name":"r","type":"bytes32","internalType":"bytes32"},{"name":"s","type":"bytes32","internalType":"bytes32"}],"outputs":[],"stateMutability":"payable"},{"type":"function","name":"sweepToken","inputs":[{"name":"currency","type":"address","internalType":"Currency"},{"name":"amountMinimum","type":"uint256","internalType":"uint256"},{"name":"recipient","type":"address","internalType":"address"}],"outputs":[],"stateMutability":"payable"},{"type":"function","name":"unwrapWETH9","inputs":[{"name":"amountMinimum","type":"uint256","internalType":"uint256"},{"name":"recipient","type":"address","internalType":"address"}],"outputs":[],"stateMutability":"payable"},{"type":"function","name":"vault","inputs":[],"outputs":[{"name":"","type":"address","internalType":"contract IVault"}],"stateMutability":"view"},{"type":"error","name":"DeadlineExceeded","inputs":[{"name":"","type":"uint256","internalType":"uint256"},{"name":"","type":"uint256","internalType":"uint256"}]},{"type":"error","name":"InsufficientToken","inputs":[]},{"type":"error","name":"InvalidSwapType","inputs":[]},{"type":"error","name":"NotVault","inputs":[]},{"type":"error","name":"TooLittleReceived","inputs":[]},{"type":"error","name":"TooMuchRequested","inputs":[]},{"type":"error","name":"TransactionTooOld","inputs":[]}],"bytecode":{"object":"0x60e0346100e257601f6200222738819003918201601f19168301916001600160401b038311848410176100e6578084926060946040528339810103126100e25780516001600160a01b03919082811681036100e25760208201519183831683036100e2576040015192831683036100e25760805260a05260c05260405161212c9081620000fb823960805181818160ea015281816101d7015281816106da01528181610a1301528181611c2a01528181611d1c01528181611f1e0152611f79015260a0518181816109520152611bc9015260c0518181816107c8015261081c0152f35b5f80fd5b634e487b7160e01b5f52604160045260245ffdfe6040608081526004908136101561001f575b5050361561001d575f80fd5b005b5f915f3560e01c90816312210e8a14610a8a5781632d4f4f9714610981578163406793611461093e5781634659a4941461092657816349404b7c146107f75781634aa4a4fc146107b3578163a4a78f0c1461073e578163ab6291fe1461068f578163ac9650d81461046e578163b4b4ba0d14610401578163c2e3140a14610344578163d718f185146102d7578163df2ab5bb14610268578163ea9dcd1a1461013957508063f3995c671461011d5763fbfa77cf036100115734610119578160031936011261011957517f00000000000000000000000000000000000000000000000000000000000000006001600160a01b03168152602090f35b5080fd5b8261013661012a36610af0565b94939093929192611920565b80f35b828461014436610b76565b421161025957816101a59161016c956101b18651806020998a9586808401528a8301906117a2565b0390610180601f1992838101835282610d9f565b88519061018c82610d27565b8682523386830152898201528851968791868301610dc0565b03908101865285610d9f565b6101d286519485938493638154831960e01b85528401526024830190610b51565b0381837f00000000000000000000000000000000000000000000000000000000000000006001600160a01b03165af191821561024e57809261022b575b50508281805181010312610227578201519051908152f35b5f80fd5b61024792503d8091833e61023f8183610d9f565b810190610e7f565b838061020f565b8351903d90823e3d90fd5b505051632a0c45bf60e21b8152fd5b91905060603660031901126102d3578135916001600160a01b03908184168403610227576044359182168203610227576102a184611a6b565b9260243584106102c6575050816102b6578380f35b6102bf926119a4565b5f80808380f35b51630ceb95c760e31b8152fd5b8280fd5b82846102e236610aa6565b421161025957816101a59161030a956101b18651806020998a9586808401528a830190610c20565b039061031e601f1992838101835282610d9f565b88519061032a82610d27565b600382523386830152898201528851968791868301610dc0565b610386929150602061035536610af0565b8851636eb1769f60e11b8152339881019889523060208a015295999098919792969395919391928391829160400190565b03816001600160a01b038c165afa9182156103f8575090829189916103c3575b50106103b0578680f35b6103b995611920565b5f80808080808680f35b9150506020813d6020116103f0575b816103df60209383610d9f565b81010312610227578190515f6103a6565b3d91506103d2565b513d8a823e3d90fd5b828461040c36610b76565b421161025957816101a591610434956101b18651806020998a9586808401528a8301906117a2565b0390610448601f1992838101835282610d9f565b88519061045482610d27565b600282523386830152898201528851968791868301610dc0565b60209150833660031901831361065e578135916001600160401b038084116102d357366023850112156102d357838201359181831161066157602460059336828260051b8901011161068b57936104c485611096565b966104d18a519889610d9f565b8588526104dd86611096565b601f190189885b82811061067b57505050368190036042190191875b87811061055d578b8b8b8b83519280840190808552835180925280868601968360051b870101940192955b8287106105315785850386f35b90919293828061054d600193603f198a82030186528851610b51565b9601920196019592919092610524565b8481831b840101358481121561067757830185810135888111610673576044809201813603811361066f578b8f918f94938291818551928392833781018381520390305af4903d15610665573d6105bf6105b682610e13565b92519283610d9f565b81528c81943d92013e5b156105ef5750906001916105dd828d61177a565b526105e8818c61177a565b50016104f9565b8c888f89858f868f818451106102d35786840151840193888187870196031261066157858101519182116106615701918360438401121561065e57509181849361065a96956106419401519101610e2e565b915194859462461bcd60e51b8652850152830190610b51565b0390fd5b80fd5b8380fd5b50606092506105c9565b8b80fd5b8a80fd5b8980fd5b60608b82018301528b91016104e4565b8580fd5b9050346102d35760203660031901126102d3578035906001600160401b039384831161065e573660238401121561065e578282013594851161065e57366024868501011161065e57507f00000000000000000000000000000000000000000000000000000000000000006001600160a01b03163303610730575061072c9260246107199201611229565b9051918291602083526020830190610b51565b0390f35b82516362df054560e01b8152fd5b61074f929150602061035536610af0565b03816001600160a01b038c165afa9182156103f857508891610781575b505f1911610778578680f35b6103b995610ea4565b90506020813d6020116107ab575b8161079c60209383610d9f565b8101031261022757515f61076c565b3d915061078f565b505034610119578160031936011261011957517f00000000000000000000000000000000000000000000000000000000000000006001600160a01b03168152602090f35b8391508260031936011261022757602435926001600160a01b038085168503610227577f000000000000000000000000000000000000000000000000000000000000000016908051926370a0823160e01b84523081850152602084602481865afa93841561091c575f946108e8575b50803584106108da5783610878578480f35b823b15610227578360245f928385519687948593632e1a7d4d60e01b85528401525af19081156108d157506108bc575b506108b39192611988565b80828080808480f35b6108b392506108ca90610d56565b5f916108a8565b513d5f823e3d90fd5b9051630ceb95c760e31b8152fd5b9093506020813d602011610914575b8161090460209383610d9f565b8101031261022757519286610866565b3d91506108f7565b82513d5f823e3d90fd5b61001d61093236610af0565b94939093929192610ea4565b8234610227575f36600319011261022757517f00000000000000000000000000000000000000000000000000000000000000006001600160a01b03168152602090f35b8261098b36610aa6565b4211610a7c575f6101a5916109b3946109ed8551806020988995868084015289830190610c20565b03906109c7601f1992838101835282610d9f565b8751906109d382610d27565b600182523386830152888201528751968791868301610dc0565b610a0e85519485938493638154831960e01b85528401526024830190610b51565b0381837f00000000000000000000000000000000000000000000000000000000000000006001600160a01b03165af190811561091c575f91610a62575b508281805181010312610227578201519051908152f35b610a7691503d805f833e61023f8183610d9f565b83610a4b565b5051632a0c45bf60e21b8152fd5b5f3660031901126102275747610a9c57005b61001d4733611988565b6003199060408183011261022757600435916001600160401b038311610227578261018092030112610227576004019060243590565b35906001600160a01b038216820361022757565b60c0906003190112610227576004356001600160a01b03811681036102275790602435906044359060643560ff8116810361022757906084359060a43590565b5f5b838110610b415750505f910152565b8181015183820152602001610b32565b90602091610b6a81518092818552858086019101610b30565b601f01601f1916010190565b6003199060408183011261022757600435916001600160401b038311610227578260a092030112610227576004019060243590565b359062ffffff8216820361022757565b35906001600160801b038216820361022757565b9035601e19823603018112156102275701602081359101916001600160401b03821161022757813603831361022757565b908060209392818452848401375f828201840152601f01601f1916010190565b6001600160a01b03916101809083610c3784610adc565b16815283610c4760208501610adc565b16602082015283610c5a60408501610adc565b16604082015283610c6d60608501610adc565b16606082015262ffffff610c8360808501610bab565b16608082015260a083013560a082015260c08301358015158091036102275760c082015283610cb460e08501610adc565b1660e0820152610100610cc8818501610bbb565b906001600160801b038092169083015261012090610ce7828601610bbb565b1690820152610140908184013594851680950361022757610d24948392820152610d176101609485810190610bcf565b9390948201520191610c00565b90565b606081019081106001600160401b03821117610d4257604052565b634e487b7160e01b5f52604160045260245ffd5b6001600160401b038111610d4257604052565b60c081019081106001600160401b03821117610d4257604052565b604081019081106001600160401b03821117610d4257604052565b90601f801991011681019081106001600160401b03821117610d4257604052565b602081528151916004831015610dff576040608091610d2494602085015260018060a01b03602082015116828501520151916060808201520190610b51565b634e487b7160e01b5f52602160045260245ffd5b6001600160401b038111610d4257601f01601f191660200190565b90929192610e3b81610e13565b91610e496040519384610d9f565b829482845282820111610227576020610e63930190610b30565b565b9080601f83011215610227578151610d2492602001610e2e565b906020828203126102275781516001600160401b03811161022757610d249201610e65565b92946001600160a01b0390931693919291843b15610227575f9461010493869260ff604051998a9889976323f2ebc360e21b89523360048a01523060248a015260448901526064880152600160848801521660a486015260c485015260e48401525af18015610f1d57610f145750565b610e6390610d56565b6040513d5f823e3d90fd5b51906001600160a01b038216820361022757565b519062ffffff8216820361022757565b51906001600160801b038216820361022757565b906020828203126102275781516001600160401b039283821161022757019081810392610180808512610227576040519460e086019086821084831117610d425760c090826040521261022757610fb681610d69565b610fbf85610f28565b8152610fcd60208601610f28565b6101009081880152610fe160408701610f28565b6101209081890152610ff560608801610f28565b9261014093848a015261100a60808901610f3c565b9461016095868b015260a0890151908a0152885260c087015180151581036102275761105d926110519160208b015261104560e08a01610f28565b60408b01528801610f4c565b60608901528601610f4c565b60808701528401516001600160a01b03811681036102275760a08601528301519081116102275761108e9201610e65565b60c082015290565b6001600160401b038111610d425760051b60200190565b602080828403126102275781516001600160401b039283821161022757019160a09160a0848603126102275760409283519560a0870187811085821117610d425785526110f986610f28565b8752828601518481116102275786019181601f840112156102275782519061112082611096565b9561112d88519788610d9f565b828752858088019360051b8601019484861161022757868101935b868510611190575050505050505091611188939160809386015261116d818301610f28565b9085015261117d60608201610f4c565b606085015201610f4c565b608082015290565b845183811161022757820160c09182601f19838a030112610227578b516111b681610d69565b6111c18b8401610f28565b81526111ce8d8401610f3c565b8b8201526060938d6111e1868601610f28565b908301526080938481015194888611610227578d966112058d898099860101610e65565b908501526112148a8301610f28565b90840152015187820152815201940193611148565b919082016020838203126102275782356001600160401b03938482116102275701606081830312610227576040519361126185610d27565b8135600481101561022757855261127a60208301610adc565b91602086019283526040810135918211610227570182601f82011215610227578035906112a682610e13565b936112b46040519586610d9f565b8285526020838301011161022757815f926020809301838701378401015260408481019283529051905193906001600160a01b03166112f285610d27565b8452600160208501526001604085015280516004811015610dff5761147457506113299092919251602080825183010191016110ad565b90611332611a30565b60208301515181529060408201905f5b835181101561142857806001600160801b036113e187858861137d61136d600198602086015161177a565b51888060a01b0385511690611e5b565b93908415156060840152808b5286606083015116600f0b5f03898060a01b0385511691898b8060a01b03604086015116948115968761141a575b515f19018214978861140c575b5060609160206113d592015161177a565b51015196151590611afc565b168060208701526060870152818060a01b0361140182602089015161177a565b515116865201611342565b60400151151597508d6113c4565b6020890151151597506113b7565b5050506001600160801b039182608081602085015116920151161161146257602001511660405190602082015260208152610d2481610d84565b60405163c9f52c7160e01b8152600490fd5b80939293516004811015610dff57600103611549575061149e905160208082518301019101610f60565b9081519060208301511515906001600160801b039283606086015116600f0b600160ff1b81146115355760809385936115149360018060a01b0360a08a01511660018060a01b038351169060018060a01b0360408c0151169260406020860151151595015115159560c08d0151975f0391611e14565b169201511681106114625760405190602082015260208152610d2481610d84565b634e487b7160e01b5f52601160045260245ffd5b80516004811015610dff576002036116bc57506115709051602080825183010191016110ad565b90611579611a30565b90602083015151808352805b6115d45750506001600160801b03918260808160208501511692015116106115c257602001511660405190602082015260208152610d2481610d84565b6040516324df576f60e01b8152600490fd5b6001600160801b0361166e856116076115f560208301515f1987019061177a565b5182516001600160a01b031690611e5b565b9190821515606089015280604089015284606083015116600f0b60018060a01b0388511660018060a01b03604085015116916001891493846116ae575b8b518a1495866116a0575b61166360609160208d5f190191015161177a565b510151961590611afc565b16806020850152606085015260018060a01b036116925f198301602087015161177a565b51511684525f190180611585565b60408c01511515965061164f565b60208b015115159450611644565b516004811015610dff57600303611768576116e1905160208082518301019101610f60565b90608082519161174760208501511515936001600160801b0394859384606089015116600f0b60018060a01b0360a08a01511660018060a01b038351169060018060a01b0360408c0151169260406020860151151595015115159560c08d015197611e14565b169201511681116115c25760405190602082015260208152610d2481610d84565b60405163a44acb9160e01b8152600490fd5b805182101561178e5760209160051b010190565b634e487b7160e01b5f52603260045260245ffd5b60a08083019291906001600160a01b0390816117bd84610adc565b16845260209081840135601e198536030181121561022757840191823596818401976001600160401b038111610227578060051b918236038a136102275790839295949160a082958b01525260c080808a01968a010199955f9260de1987360301925b868510611874575050505050505050509060809161184060408301610adc565b16604084015261186d8261185660608401610bbb565b926001600160801b03809416606087015201610bbb565b1691015290565b90919293949596979b60bf198c82030184528c358581121561022757878b60019386868e859601858101856118a882610adc565b1685526118f7604062ffffff6118bf828601610bab565b1689880152606090886118d3838701610adc565b1690880152846118e860809485870190610bcf565b91909289015285880191610c00565b95611903858401610adc565b169085015201359101529e01940195019392979695949190611820565b92946001600160a01b0390931693919291843b15610227575f9460e493869260ff604051998a98899763d505accf60e01b89523360048a01523060248a01526044890152606488015216608486015260a485015260c48401525af18015610f1d57610f145750565b5f80809381935af11561199757565b63f4b3b1bc5f526004601cfd5b6001600160a01b0381166119c257505f80809381935af11561199757565b60105f604492602095829560145260345263a9059cbb60601b82525af13d1560015f51141716156119f3575f603452565b63f27f64e45f526004601cfd5b60405190611a0d82610d69565b5f60a0838281528260208201528260408201528260608201528260808201520152565b60405190608082018281106001600160401b03821117610d42576040525f606083828152826020820152611a62611a00565b60408201520152565b6001600160a01b031680611a7e57504790565b6020602491604051928380926370a0823160e01b82523060048301525afa908115610f1d575f91611aad575090565b90506020813d602011611ad4575b81611ac860209383610d9f565b81010312610227575190565b3d9150611abb565b600f0b6f7fffffffffffffffffffffffffffffff198114611535575f0390565b939591602095989793918660a087611bc3600180841b0398855f14611df957896401000276a45b886040519e8f611b3281610d27565b8a1515815201521660408d015289604080519d8e96879663668660e760e11b8852848151166004890152848a820151166024890152848482015116604489015284606082015116606489015262ffffff6080820151166084890152015160a48701528051151560c48701528781015160e4870152015116610104840152610140610124840152610144830190610b51565b03815f897f0000000000000000000000000000000000000000000000000000000000000000165af1968715610f1d575f97611dc3575b505f919015611cf4571215611ce057846001600160801b03165b97611cbf575b50611c25575b50505050565b6020817f0000000000000000000000000000000000000000000000000000000000000000169201511690803b1561022757604051630b0d9c0960e01b81526001600160a01b0392831660048201529190931660248201526001600160801b039091166044820152905f908290818381606481015b03925af18015610f1d57611cb0575b808080611c1f565b611cb990610d56565b5f611ca8565b611cda908385511690611cd48760801d611adc565b91611edd565b5f611c19565b8460801d5f036001600160801b0316611c13565b1215611daf578460801d6001600160801b03165b97611d91575b50611d195750505050565b807f00000000000000000000000000000000000000000000000000000000000000001691511690803b1561022757604051630b0d9c0960e01b81526001600160a01b03928316600482015293909116602484015260809190911d6001600160801b031660448301525f90829081838160648101611c99565b611da9908360208601511690611cd487600f0b611adc565b5f611d0e565b84600f0b5f036001600160801b0316611d08565b919096506020823d602011611df1575b81611de060209383610d9f565b81010312610227579051955f611bf9565b3d9150611dd3565b8973fffd8963efd1fc6a506488495d951d5263988d25611b23565b949692939190602060a087611bc3839a9d9c600180851b03809a818116155f14611e565750508515611df957896401000276a4886040519e8f611b3281610d27565b611b23565b90611e64611a00565b5081516001600160a01b03928284169291841691849083851015611ed3575b168093149380604083015116816080840151169160a062ffffff6020860151169401519460405196611eb488610d69565b875216602086015260408501526060840152608083015260a082015291565b5050838392611e83565b6001600160a01b039392918482169182611f745750509060246020926001600160801b0394956040519586948593636a256b2960e01b8552600485015216907f0000000000000000000000000000000000000000000000000000000000000000165af18015610f1d57611f4d5750565b602090813d8311611f6d575b611f638183610d9f565b8101031261022757565b503d611f59565b9091857f00000000000000000000000000000000000000000000000000000000000000001690604092835197632961046560e21b89528260048a0152602096878a6024815f895af1998a156120ec5788999a989697986120c0575b506001600160801b0316961630811480156120b9575b15612034575090611ffa5f96846024946119a4565b84519586938492636a256b2960e01b845260048401525af19081156108d15750612022575050565b813d8311611f6d57611f638183610d9f565b6064915085965f9395949651916323b872dd60e01b83526004830152866024830152604482015282855af13d15601f3d1160015f51141617161561207e575f929160248592611ffa565b825162461bcd60e51b81526004810185905260146024820152731514905394d1915497d19493d357d1905253115160621b6044820152606490fd5b505f611fe5565b8691963d83116120e5575b6120d58183610d9f565b810103126102275787945f611fcf565b503d6120cb565b86513d5f823e3d90fdfea26469706673582212202fcdb93ef4505c0921931fdcd0f5fc269486abce8b5e8a7bbfdcdffe19fbb73c64736f6c63430008180033","linkReferences":{}},"methodIdentifiers":{"WETH9()":"4aa4a4fc","clPoolManager()":"40679361","exactInput((address,(address,uint24,address,bytes,address,bytes32)[],address,uint128,uint128),uint256)":"ea9dcd1a","exactInputSingle(((address,address,address,address,uint24,bytes32),bool,address,uint128,uint128,uint160,bytes),uint256)":"2d4f4f97","exactOutput((address,(address,uint24,address,bytes,address,bytes32)[],address,uint128,uint128),uint256)":"b4b4ba0d","exactOutputSingle(((address,address,address,address,uint24,bytes32),bool,address,uint128,uint128,uint160,bytes),uint256)":"d718f185","lockAcquired(bytes)":"ab6291fe","multicall(bytes[])":"ac9650d8","refundETH()":"12210e8a","selfPermit(address,uint256,uint256,uint8,bytes32,bytes32)":"f3995c67","selfPermitAllowed(address,uint256,uint256,uint8,bytes32,bytes32)":"4659a494","selfPermitAllowedIfNecessary(address,uint256,uint256,uint8,bytes32,bytes32)":"a4a78f0c","selfPermitIfNecessary(address,uint256,uint256,uint8,bytes32,bytes32)":"c2e3140a","sweepToken(address,uint256,address)":"df2ab5bb","unwrapWETH9(uint256,address)":"49404b7c","vault()":"fbfa77cf"},"id":101}