{"abi":[{"type":"constructor","inputs":[{"name":"_name","type":"string","internalType":"string"},{"name":"_symbol","type":"string","internalType":"string"},{"name":"_decimals","type":"uint8","internalType":"uint8"}],"stateMutability":"nonpayable"},{"type":"function","name":"DOMAIN_SEPARATOR","inputs":[],"outputs":[{"name":"","type":"bytes32","internalType":"bytes32"}],"stateMutability":"view"},{"type":"function","name":"allowance","inputs":[{"name":"","type":"address","internalType":"address"},{"name":"","type":"address","internalType":"address"}],"outputs":[{"name":"","type":"uint256","internalType":"uint256"}],"stateMutability":"view"},{"type":"function","name":"approve","inputs":[{"name":"spender","type":"address","internalType":"address"},{"name":"amount","type":"uint256","internalType":"uint256"}],"outputs":[{"name":"","type":"bool","internalType":"bool"}],"stateMutability":"nonpayable"},{"type":"function","name":"balanceOf","inputs":[{"name":"","type":"address","internalType":"address"}],"outputs":[{"name":"","type":"uint256","internalType":"uint256"}],"stateMutability":"view"},{"type":"function","name":"burn","inputs":[{"name":"from","type":"address","internalType":"address"},{"name":"value","type":"uint256","internalType":"uint256"}],"outputs":[],"stateMutability":"nonpayable"},{"type":"function","name":"decimals","inputs":[],"outputs":[{"name":"","type":"uint8","internalType":"uint8"}],"stateMutability":"view"},{"type":"function","name":"mint","inputs":[{"name":"to","type":"address","internalType":"address"},{"name":"value","type":"uint256","internalType":"uint256"}],"outputs":[],"stateMutability":"nonpayable"},{"type":"function","name":"name","inputs":[],"outputs":[{"name":"","type":"string","internalType":"string"}],"stateMutability":"view"},{"type":"function","name":"nonces","inputs":[{"name":"","type":"address","internalType":"address"}],"outputs":[{"name":"","type":"uint256","internalType":"uint256"}],"stateMutability":"view"},{"type":"function","name":"permit","inputs":[{"name":"owner","type":"address","internalType":"address"},{"name":"spender","type":"address","internalType":"address"},{"name":"value","type":"uint256","internalType":"uint256"},{"name":"deadline","type":"uint256","internalType":"uint256"},{"name":"v","type":"uint8","internalType":"uint8"},{"name":"r","type":"bytes32","internalType":"bytes32"},{"name":"s","type":"bytes32","internalType":"bytes32"}],"outputs":[],"stateMutability":"nonpayable"},{"type":"function","name":"symbol","inputs":[],"outputs":[{"name":"","type":"string","internalType":"string"}],"stateMutability":"view"},{"type":"function","name":"totalSupply","inputs":[],"outputs":[{"name":"","type":"uint256","internalType":"uint256"}],"stateMutability":"view"},{"type":"function","name":"transfer","inputs":[{"name":"to","type":"address","internalType":"address"},{"name":"amount","type":"uint256","internalType":"uint256"}],"outputs":[{"name":"","type":"bool","internalType":"bool"}],"stateMutability":"nonpayable"},{"type":"function","name":"transferFrom","inputs":[{"name":"from","type":"address","internalType":"address"},{"name":"to","type":"address","internalType":"address"},{"name":"amount","type":"uint256","internalType":"uint256"}],"outputs":[{"name":"","type":"bool","internalType":"bool"}],"stateMutability":"nonpayable"},{"type":"event","name":"Approval","inputs":[{"name":"owner","type":"address","indexed":true,"internalType":"address"},{"name":"spender","type":"address","indexed":true,"internalType":"address"},{"name":"amount","type":"uint256","indexed":false,"internalType":"uint256"}],"anonymous":false},{"type":"event","name":"Transfer","inputs":[{"name":"from","type":"address","indexed":true,"internalType":"address"},{"name":"to","type":"address","indexed":true,"internalType":"address"},{"name":"amount","type":"uint256","indexed":false,"internalType":"uint256"}],"anonymous":false}],"bytecode":{"object":"0x60e06040818152346200040a5762000fe880380380916200002182866200040e565b843982016060838203126200040a5782516001600160401b0393908481116200040a57826200005291830162000432565b602092838301518681116200040a5785916200007091850162000432565b9201519060ff821682036200040a5780518681116200020c5780620000965f54620004a6565b92601f93848111620003b9575b50869084831160011462000351575f9262000345575b50508160011b915f199060031b1c1916175f555b8251908682116200020c578190600194620000e98654620004a6565b828111620002f0575b50869183116001146200028c575f9262000280575b50505f19600383901b1c191690831b1782555b6080524660a05282515f91815f54936200013485620004a6565b92838352868301958782821691825f146200026057505060011462000220575b5062000163925003826200040e565b519020918051918201927f8b73c3c69bb8fe3d512ecc4cf759cc79239f7b179b0ffacaa9a75d522b39400f8452818301527fc89efdaa54c0f20c7adf612882df0950f5a951637e0307cdcb4c672f298b8bc660608301524660808301523060a083015260a0825260c0820193828510908511176200020c5783905251902060c052610b069081620004e282396080518161060b015260a05181610925015260c0518161094b0152f35b634e487b7160e01b5f52604160045260245ffd5b8691505f8052815f20905f915b858310620002475750506200016393508201015f62000154565b805483880185015286945088939092019181016200022d565b60ff191688526200016395151560051b85010192505f9150620001549050565b015190505f8062000107565b90859350601f19831691845f52875f20925f5b89828210620002d95750508411620002c0575b505050811b0182556200011a565b01515f1960f88460031b161c191690555f8080620002b2565b83850151865589979095019493840193016200029f565b90919250855f52865f208380860160051c8201928987106200033b575b91869589929594930160051c01915b8281106200032c575050620000f2565b5f81558695508891016200031c565b925081926200030d565b015190505f80620000b9565b5f8080528881209350601f198516905b89828210620003a257505090846001959493921062000389575b505050811b015f55620000cd565b01515f1960f88460031b161c191690555f80806200037b565b600185968293968601518155019501930162000361565b9091505f8052865f208480850160051c82019289861062000400575b9085949392910160051c01905b818110620003f15750620000a3565b5f8155849350600101620003e2565b92508192620003d5565b5f80fd5b601f909101601f19168101906001600160401b038211908210176200020c57604052565b919080601f840112156200040a5782516001600160401b0381116200020c57602090604051926200046d83601f19601f85011601856200040e565b8184528282870101116200040a575f5b818110620004925750825f9394955001015290565b85810183015184820184015282016200047d565b90600182811c92168015620004d6575b6020831014620004c257565b634e487b7160e01b5f52602260045260245ffd5b91607f1691620004b656fe6080604081815260049182361015610015575f80fd5b5f3560e01c90816306fdde031461077e57508063095ea7b31461071057806318160ddd146106f257806323b872dd1461062f578063313ce567146105f25780633644e515146105cf57806340c10f191461055857806370a08231146105215780637ecebe00146104ea57806395d89b411461040c5780639dc29fac146103ae578063a9059cbb1461033c578063d505accf146101065763dd62ed3e146100b9575f80fd5b346101025780600319360112610102576020916100d46108d5565b6100dc6108eb565b6001600160a01b039182165f908152928552838320911682528352819020549051908152f35b5f80fd5b50346101025760e0366003190112610102576101206108d5565b906101296108eb565b91604435606435926084359260ff8416809403610102574285106102f95761014f610922565b9560018060a01b0380921695865f5260209560058752845f209889549960018b01905585519285898501957f6e71edae12b1b97f4d1f60370fef10105fa2faae0126114a169c64845d6126c987528b89870152169a8b606086015288608086015260a085015260c084015260c0835260e0830167ffffffffffffffff94848210868311176102e6578188528451902061010085019261190160f01b845261010286015261012285015260428152610160840194818610908611176102d357848752519020835261018082015260a4356101a082015260c4356101c0909101525f808052859160809060015afa156102c9575f511695861515806102c0575b1561028e577f8c5be1e5ebec7d5bd14f71427d1e84f3dd0314c0f7b2291e5b200ac8c7c3b9259495965f528352805f20865f52835281815f205551908152a3005b83606492519162461bcd60e51b8352820152600e60248201526d24a72b20a624a22fa9a4a3a722a960911b6044820152fd5b5084871461024d565b50513d5f823e3d90fd5b60418c634e487b7160e01b5f525260245ffd5b60418d634e487b7160e01b5f525260245ffd5b815162461bcd60e51b8152602081890152601760248201527f5045524d49545f444541444c494e455f455850495245440000000000000000006044820152606490fd5b50346101025780600319360112610102576020906103586108d5565b60243590335f5260038452825f20610371838254610901565b90556001600160a01b03165f8181526003855283902080548301905582519182529033905f80516020610ab1833981519152908590a35160018152f35b50346101025780600319360112610102575f905f80516020610ab183398151915260206103d96108d5565b6024359060018060a01b031693848652600383528086206103fb838254610901565b9055816002540360025551908152a3005b5034610102575f3660031901126101025780515f6001805461042d81610820565b80855291602091600181169081156104c05750600114610467575b610463858761045982880383610858565b519182918261088e565b0390f35b60015f90815293507fb10e2d527612073b26eecdfd717e6a320cf44b4afac2b0732d9fcbe2b7fa0cf65b8385106104ad5750505050810160200161045982610463610448565b8054868601840152938201938101610491565b6104639795508693506020925061045994915060ff191682840152151560051b8201019294610448565b5034610102576020366003190112610102576020906001600160a01b0361050f6108d5565b165f5260058252805f20549051908152f35b5034610102576020366003190112610102576020906001600160a01b036105466108d5565b165f5260038252805f20549051908152f35b5090346101025781600319360112610102576105726108d5565b60243591600254908382018092116105bc57505f925f80516020610ab18339815191529260209260025560018060a01b0316948585526003835280852082815401905551908152a3005b601190634e487b7160e01b5f525260245ffd5b5034610102575f366003190112610102576020906105eb610922565b9051908152f35b5034610102575f366003190112610102576020905160ff7f0000000000000000000000000000000000000000000000000000000000000000168152f35b5034610102576060366003190112610102576106496108d5565b916106526108eb565b6001600160a01b039384165f81815260208481528582203383528152908590205490956044359492935f80516020610ab183398151915293889387600182016106cf575b505050845f5260038352865f206106ae878254610901565b90551693845f5260038252855f208181540190558551908152a35160018152f35b6106d891610901565b90865f528452875f20335f528452875f20555f8087610696565b5034610102575f366003190112610102576020906002549051908152f35b503461010257806003193601126101025760209161072c6108d5565b9060243590335f528452825f209160018060a01b031691825f52845280835f205582519081527f8c5be1e5ebec7d5bd14f71427d1e84f3dd0314c0f7b2291e5b200ac8c7c3b925843392a35160018152f35b905034610102575f366003190112610102575f805461079c81610820565b808452906020906001908181169081156104c057506001146107c957610463858761045982880383610858565b5f80805293507f290decd9548b62a8d60345a988386fc84ba6bc95484008f6362f93160ef3e5635b83851061080d5750505050810160200161045982610463610448565b80548686018401529382019381016107f1565b90600182811c9216801561084e575b602083101461083a57565b634e487b7160e01b5f52602260045260245ffd5b91607f169161082f565b90601f8019910116810190811067ffffffffffffffff82111761087a57604052565b634e487b7160e01b5f52604160045260245ffd5b602080825282518183018190529093925f5b8281106108c157505060409293505f838284010152601f8019910116010190565b8181018601518482016040015285016108a0565b600435906001600160a01b038216820361010257565b602435906001600160a01b038216820361010257565b9190820391821161090e57565b634e487b7160e01b5f52601160045260245ffd5b467f00000000000000000000000000000000000000000000000000000000000000000361096d577f000000000000000000000000000000000000000000000000000000000000000090565b6040515f905f549061097e82610820565b8082528160209485820194600190876001821691825f14610a92575050600114610a39575b506109b092500382610858565b51902090604051908101917f8b73c3c69bb8fe3d512ecc4cf759cc79239f7b179b0ffacaa9a75d522b39400f835260408201527fc89efdaa54c0f20c7adf612882df0950f5a951637e0307cdcb4c672f298b8bc660608201524660808201523060a082015260a0815260c0810181811067ffffffffffffffff82111761087a5760405251902090565b5f808052879250907f290decd9548b62a8d60345a988386fc84ba6bc95484008f6362f93160ef3e5635b858310610a7a5750506109b093508201015f6109a3565b80548388018501528694508893909201918101610a63565b60ff191688526109b095151560051b85010192505f91506109a3905056feddf252ad1be2c89b69c2b068fc378daa952ba7f163c4a11628f55a4df523b3efa2646970667358221220ffa3a7c7a1ee2fbcc2acb6b86782e79c5211cfcd18f38ce54c6fe9132763ada764736f6c63430008180033","linkReferences":{}},"methodIdentifiers":{"DOMAIN_SEPARATOR()":"3644e515","allowance(address,address)":"dd62ed3e","approve(address,uint256)":"095ea7b3","balanceOf(address)":"70a08231","burn(address,uint256)":"9dc29fac","decimals()":"313ce567","mint(address,uint256)":"40c10f19","name()":"06fdde03","nonces(address)":"7ecebe00","permit(address,address,uint256,uint256,uint8,bytes32,bytes32)":"d505accf","symbol()":"95d89b41","totalSupply()":"18160ddd","transfer(address,uint256)":"a9059cbb","transferFrom(address,address,uint256)":"23b872dd"},"id":147}