{"abi":[{"type":"function","name":"accountAppBalanceDelta","inputs":[{"name":"currency","type":"address","internalType":"Currency"},{"name":"delta","type":"int128","internalType":"int128"},{"name":"settler","type":"address","internalType":"address"}],"outputs":[],"stateMutability":"nonpayable"},{"type":"function","name":"accountAppBalanceDelta","inputs":[{"name":"key","type":"tuple","internalType":"struct PoolKey","components":[{"name":"currency0","type":"address","internalType":"Currency"},{"name":"currency1","type":"address","internalType":"Currency"},{"name":"hooks","type":"address","internalType":"contract IHooks"},{"name":"poolManager","type":"address","internalType":"contract IPoolManager"},{"name":"fee","type":"uint24","internalType":"uint24"},{"name":"parameters","type":"bytes32","internalType":"bytes32"}]},{"name":"delta","type":"int256","internalType":"BalanceDelta"},{"name":"settler","type":"address","internalType":"address"}],"outputs":[],"stateMutability":"nonpayable"},{"type":"function","name":"allowance","inputs":[{"name":"","type":"address","internalType":"address"},{"name":"","type":"address","internalType":"address"},{"name":"currency","type":"address","internalType":"Currency"}],"outputs":[{"name":"","type":"uint256","internalType":"uint256"}],"stateMutability":"view"},{"type":"function","name":"approve","inputs":[{"name":"spender","type":"address","internalType":"address"},{"name":"currency","type":"address","internalType":"Currency"},{"name":"amount","type":"uint256","internalType":"uint256"}],"outputs":[{"name":"","type":"bool","internalType":"bool"}],"stateMutability":"nonpayable"},{"type":"function","name":"balanceOf","inputs":[{"name":"","type":"address","internalType":"address"},{"name":"currency","type":"address","internalType":"Currency"}],"outputs":[{"name":"","type":"uint256","internalType":"uint256"}],"stateMutability":"view"},{"type":"function","name":"burn","inputs":[{"name":"from","type":"address","internalType":"address"},{"name":"currency","type":"address","internalType":"Currency"},{"name":"amount","type":"uint256","internalType":"uint256"}],"outputs":[],"stateMutability":"nonpayable"},{"type":"function","name":"collectFee","inputs":[{"name":"currency","type":"address","internalType":"Currency"},{"name":"amount","type":"uint256","internalType":"uint256"},{"name":"recipient","type":"address","internalType":"address"}],"outputs":[],"stateMutability":"nonpayable"},{"type":"function","name":"currencyDelta","inputs":[{"name":"settler","type":"address","internalType":"address"},{"name":"currency","type":"address","internalType":"Currency"}],"outputs":[{"name":"","type":"int256","internalType":"int256"}],"stateMutability":"view"},{"type":"function","name":"getLocker","inputs":[],"outputs":[{"name":"","type":"address","internalType":"address"}],"stateMutability":"view"},{"type":"function","name":"getUnsettledDeltasCount","inputs":[],"outputs":[{"name":"","type":"uint256","internalType":"uint256"}],"stateMutability":"view"},{"type":"function","name":"isAppRegistered","inputs":[{"name":"","type":"address","internalType":"address"}],"outputs":[{"name":"","type":"bool","internalType":"bool"}],"stateMutability":"view"},{"type":"function","name":"isOperator","inputs":[{"name":"","type":"address","internalType":"address"},{"name":"","type":"address","internalType":"address"}],"outputs":[{"name":"","type":"bool","internalType":"bool"}],"stateMutability":"view"},{"type":"function","name":"lock","inputs":[{"name":"data","type":"bytes","internalType":"bytes"}],"outputs":[{"name":"result","type":"bytes","internalType":"bytes"}],"stateMutability":"nonpayable"},{"type":"function","name":"mint","inputs":[{"name":"to","type":"address","internalType":"address"},{"name":"currency","type":"address","internalType":"Currency"},{"name":"amount","type":"uint256","internalType":"uint256"}],"outputs":[],"stateMutability":"nonpayable"},{"type":"function","name":"owner","inputs":[],"outputs":[{"name":"","type":"address","internalType":"address"}],"stateMutability":"view"},{"type":"function","name":"registerApp","inputs":[{"name":"app","type":"address","internalType":"address"}],"outputs":[],"stateMutability":"nonpayable"},{"type":"function","name":"renounceOwnership","inputs":[],"outputs":[],"stateMutability":"nonpayable"},{"type":"function","name":"reservesOfApp","inputs":[{"name":"","type":"address","internalType":"address"},{"name":"currency","type":"address","internalType":"Currency"}],"outputs":[{"name":"reserve","type":"uint256","internalType":"uint256"}],"stateMutability":"view"},{"type":"function","name":"reservesOfVault","inputs":[{"name":"currency","type":"address","internalType":"Currency"}],"outputs":[{"name":"amount","type":"uint256","internalType":"uint256"}],"stateMutability":"view"},{"type":"function","name":"setOperator","inputs":[{"name":"operator","type":"address","internalType":"address"},{"name":"approved","type":"bool","internalType":"bool"}],"outputs":[{"name":"","type":"bool","internalType":"bool"}],"stateMutability":"nonpayable"},{"type":"function","name":"settle","inputs":[{"name":"currency","type":"address","internalType":"Currency"}],"outputs":[{"name":"paid","type":"uint256","internalType":"uint256"}],"stateMutability":"payable"},{"type":"function","name":"settleFor","inputs":[{"name":"currency","type":"address","internalType":"Currency"},{"name":"target","type":"address","internalType":"address"},{"name":"amount","type":"uint256","internalType":"uint256"}],"outputs":[],"stateMutability":"nonpayable"},{"type":"function","name":"supportsInterface","inputs":[{"name":"interfaceId","type":"bytes4","internalType":"bytes4"}],"outputs":[{"name":"","type":"bool","internalType":"bool"}],"stateMutability":"view"},{"type":"function","name":"sync","inputs":[{"name":"currency","type":"address","internalType":"Currency"}],"outputs":[{"name":"balance","type":"uint256","internalType":"uint256"}],"stateMutability":"nonpayable"},{"type":"function","name":"take","inputs":[{"name":"currency","type":"address","internalType":"Currency"},{"name":"to","type":"address","internalType":"address"},{"name":"amount","type":"uint256","internalType":"uint256"}],"outputs":[],"stateMutability":"nonpayable"},{"type":"function","name":"transfer","inputs":[{"name":"receiver","type":"address","internalType":"address"},{"name":"currency","type":"address","internalType":"Currency"},{"name":"amount","type":"uint256","internalType":"uint256"}],"outputs":[{"name":"","type":"bool","internalType":"bool"}],"stateMutability":"nonpayable"},{"type":"function","name":"transferFrom","inputs":[{"name":"sender","type":"address","internalType":"address"},{"name":"receiver","type":"address","internalType":"address"},{"name":"currency","type":"address","internalType":"Currency"},{"name":"amount","type":"uint256","internalType":"uint256"}],"outputs":[{"name":"","type":"bool","internalType":"bool"}],"stateMutability":"nonpayable"},{"type":"function","name":"transferOwnership","inputs":[{"name":"newOwner","type":"address","internalType":"address"}],"outputs":[],"stateMutability":"nonpayable"},{"type":"event","name":"AppRegistered","inputs":[{"name":"app","type":"address","indexed":true,"internalType":"address"}],"anonymous":false},{"type":"event","name":"Approval","inputs":[{"name":"owner","type":"address","indexed":true,"internalType":"address"},{"name":"spender","type":"address","indexed":true,"internalType":"address"},{"name":"currency","type":"address","indexed":true,"internalType":"Currency"},{"name":"amount","type":"uint256","indexed":false,"internalType":"uint256"}],"anonymous":false},{"type":"event","name":"OperatorSet","inputs":[{"name":"owner","type":"address","indexed":true,"internalType":"address"},{"name":"operator","type":"address","indexed":true,"internalType":"address"},{"name":"approved","type":"bool","indexed":false,"internalType":"bool"}],"anonymous":false},{"type":"event","name":"OwnershipTransferred","inputs":[{"name":"previousOwner","type":"address","indexed":true,"internalType":"address"},{"name":"newOwner","type":"address","indexed":true,"internalType":"address"}],"anonymous":false},{"type":"event","name":"Transfer","inputs":[{"name":"caller","type":"address","indexed":false,"internalType":"address"},{"name":"from","type":"address","indexed":true,"internalType":"address"},{"name":"to","type":"address","indexed":true,"internalType":"address"},{"name":"currency","type":"address","indexed":true,"internalType":"Currency"},{"name":"amount","type":"uint256","indexed":false,"internalType":"uint256"}],"anonymous":false},{"type":"error","name":"AppUnregistered","inputs":[]},{"type":"error","name":"CurrencyNotSettled","inputs":[]},{"type":"error","name":"LockerAlreadySet","inputs":[{"name":"locker","type":"address","internalType":"address"}]},{"type":"error","name":"NoLocker","inputs":[]},{"type":"error","name":"ReserveNotSync","inputs":[]},{"type":"error","name":"SettleNonNativeCurrencyWithValue","inputs":[]}],"bytecode":{"object":"0x608080604052346100585760038054336001600160a01b0319821681179092556001600160a01b03167f8be0079c531659141344cd1fd0a4f28419497f9722a3daafe3b4186f6b6457e05f80a3611538908161005d8239f35b5f80fdfe6080604090808252600480361015610015575f80fd5b5f3560e01c91826301ffc9a714610f12575081630b0d9c0914610eb1578163131dfb8b14610e8c57816315dacbea14610d5457816317a1d80f14610cf05781631d4631a414610c61578163322c362014610c18578163558a729714610b945781635d4e0ced14610b635781636a256b2914610abb5781636d10279914610a42578163715018a6146109e7578163815483191461085d5781638403be91146108235781638da5cb5b146107fb578163927da1051461079b578163a54b28311461076e578163a584119414610742578163b6363cf2146106f5578163beabacc814610669578163c6c3bbe6146105e1578163d6501f96146104a1578163e1f21c671461042d578163eb78b435146103d2578163f2fde38b14610307578163f6b911bc146101c857508063f7888aec1461017f5763fda4289214610154575f80fd5b3461017b575f36600319011261017b57515f805160206114c38339815191525c8152602090f35b5f80fd5b503461017b578060031936011261017b5760209061019b610f64565b6101a3610f7a565b9060018060a01b038091165f5260018452825f2091165f528252805f20549051908152f35b90503461017b576101d836610fa6565b90936001600160a01b0393919290915f805160206114a38339815191525c8516156102fa5750825f805160206114e383398151915292856102769361022b6102215f99986110c6565b600f0b8a336110e5565b169485331415806102dc575b61027b575b858752600160205281872097169687875260205280862061025e83825461104e565b90555133815260208101919091529081906040820190565b0390a4005b8587526020600281528288203389528152828820828a1690818a52825283892054858a1982036102af575b5050505061023c565b6102b89161104e565b91888a5260028152848a20338b528152848a20918a5252828820555f8080856102a6565b508587528660205281872033885260205260ff828820541615610237565b8251625185ab60e41b8152fd5b90503461017b57602036600319011261017b57610322610f64565b9061032b61125a565b6001600160a01b03918216928315610380575050600354826bffffffffffffffffffffffff60a01b821617600355167f8be0079c531659141344cd1fd0a4f28419497f9722a3daafe3b4186f6b6457e05f80a3005b906020608492519162461bcd60e51b8352820152602660248201527f4f776e61626c653a206e6577206f776e657220697320746865207a65726f206160448201526564647265737360d01b6064820152fd5b823461017b57606036600319011261017b5761042b906103f0610f64565b90602435916103fd610f90565b91335f526005602052805f2060018060a01b0383165f526020525f2061042484825461104e565b905561119e565b005b823461017b5760209061043f36610fa6565b335f818152600287528581206001600160a01b03958616808352908852868220959094168082529487528590208290558451918252907fa0175360a15bca328baf7ea85c7b784d58b222a50d0ce760b10dba336d226a61908690a45160018152f35b823461017b573660031901610100811261017b5760c01361017b5780519060c0820182811067ffffffffffffffff8211176105ce5781526104e0610f64565b82526104ea610f7a565b602083019081526001600160a01b0390604435828116810361017b5783850152606435828116810361017b57606085015260843562ffffff8116810361017b57608085015260a43560a085015260c4359460e43593838516850361017b57835f805160206114a38339815191525c16156105c257335f528160205260ff815f205416156105b55750506105ad858361042b9760801d91600f0b96610592838383511633611307565b6105a0888387511633611307565b511690600f0b90856110e5565b5116906110e5565b5163eb38569160e01b8152fd5b51625185ab60e41b8152fd5b604184634e487b7160e01b5f525260245ffd5b90503461017b576105f136610fa6565b90936001600160a01b0393919290915f805160206114a38339815191525c8516156102fa5750825f805160206114e38339815191529285610276936106456106395f986110c6565b8803600f0b8a336110e5565b1695868652600160205281862097169687865260205280852061025e83825461106f565b823461017b5760209061067b36610fa6565b90335f5260018552835f209260018060a01b0380921693845f528652845f206106a584825461104e565b90551690815f5260018552835f20835f528552835f206106c682825461106f565b905583513380825260208201929092525f805160206114e38339815191529080604081015b0390a45160018152f35b823461017b578060031936011261017b57602090610711610f64565b610719610f7a565b9060018060a01b038091165f525f8452825f2091165f52825260ff815f20541690519015158152f35b823461017b57602036600319011261017b57602090610767610762610f64565b61107c565b9051908152f35b823461017b578060031936011261017b5760209061076761078d610f64565b610795610f7a565b906112b2565b823461017b57606036600319011261017b576020906107b8610f64565b6107c0610f7a565b906107c9610f90565b6001600160a01b039182165f908152600286528481209383168152928552838320911682528352819020549051908152f35b823461017b575f36600319011261017b5760035490516001600160a01b039091168152602090f35b823461017b57602036600319011261017b576020916001600160a01b03610848610f64565b165f52825260ff815f20541690519015158152f35b823461017b5760208060031936011261017b57823567ffffffffffffffff9384821161017b573660238301121561017b578181013585811161017b57366024828501011161017b575f60246044601f956108b6336113cd565b84895195869485936355b148ff60e11b85528b8a860152828286015201848401378483828401015287199788910116810103018183335af19586156109dd575f96610953575b50505f805160206114c38339815191525c6109455750601f61093c946109206113a7565b8451958487958652825192818480938901528888019101610fdb565b01168101030190f35b8351635212cba160e01b8152fd5b909195503d805f843e610966818461102c565b820191848184031261017b5780519082821161017b57019082601f8301121561017b5781519081116109ca578551926109a68686601f850116018561102c565b81845285828401011161017b576109c291858085019101610fdb565b9385806108fc565b604187634e487b7160e01b5f525260245ffd5b85513d5f823e3d90fd5b3461017b575f36600319011261017b576109ff61125a565b600380546001600160a01b031981169091555f906001600160a01b03167f8be0079c531659141344cd1fd0a4f28419497f9722a3daafe3b4186f6b6457e08280a3005b90503461017b57606036600319011261017b57610a5d610f64565b6024359283600f0b9283850361017b57610a75610f90565b915f805160206114a38339815191525c6001600160a01b0316156105c257335f528160205260ff815f205416156105b5575050610ab661042b948333611307565b6110e5565b82602036600319011261017b57610ad0610f64565b906001600160a01b035f805160206114a38339815191525c811615610b5457821615610b465734610b375760209250610b31610b1c610b0e84611207565b610b178561107c565b61104e565b925b610b27846110c6565b600f0b90336110e5565b51908152f35b516311e5617160e01b81529050fd5b60209250610b313492610b1e565b8151625185ab60e41b81528490fd5b823461017b575f36600319011261017b57516001600160a01b035f805160206114a38339815191525c168152602090f35b823461017b578060031936011261017b57610bad610f64565b906024359182151580930361017b57602092335f525f8452825f209160018060a01b031691825f528452825f2060ff1981541660ff831617905582519081527fceb576d9f15e4e200fdb5096d64d5dfd667e16def20c1eefd14256d8e3faa267843392a35160018152f35b823461017b578060031936011261017b57602090610c34610f64565b610c3c610f7a565b9060018060a01b038091165f5260058452825f2091165f528252805f20549051908152f35b823461017b57610c7036610fa6565b9390925f805160206114a38339815191525c6001600160a01b0316156105c257508315610cc6575b50610cbd83610cb8610cac61042b966110c6565b5f03600f0b84336110e5565b6110c6565b600f0b916110e5565b9250610cd281836112b2565b5f03925f8412610ce55750610cbd610c98565b6393dafdf15f52601cfd5b823461017b57602036600319011261017b57610d0a610f64565b610d1261125a565b60018060a01b031691825f526020525f20600160ff198254161790557f0d540ad8f39e07d19909687352b9fa017405d93c91a6760981fbae9cf28bfef75f80a2005b823461017b57608036600319011261017b57602090610d71610f64565b610d79610f7a565b90610d82610f90565b91606435916001600160a01b03908116915f805160206114e3833981519152916106eb913385141580610e70575b610e10575b845f526001895281885f20971696875f528952875f20610dd687825461104e565b90551693845f5260018852865f20865f528852865f20610df782825461106f565b9055865133815260208101919091529081906040820190565b845f528860028152885f20335f528152885f2083891690815f528252895f2054885f198203610e43575b50505050610db5565b610e4c9161104e565b91875f52600281528a5f20335f5281528a5f20915f5252885f205589808088610e3a565b50845f525f8952875f20335f52895260ff885f20541615610db0565b823461017b57602036600319011261017b57602090610767610eac610f64565b611207565b823461017b57610ec036610fa6565b929091905f805160206114a38339815191525c6001600160a01b031615610f04575061042b9350610eff610ef3846110c6565b5f03600f0b82336110e5565b61119e565b51625185ab60e41b81528490fd5b903461017b57602036600319011261017b57359063ffffffff60e01b821680920361017b576020916301ffc9a760e01b8114908115610f53575b5015158152f35b6359734fc560e11b14905083610f4c565b600435906001600160a01b038216820361017b57565b602435906001600160a01b038216820361017b57565b604435906001600160a01b038216820361017b57565b606090600319011261017b576001600160a01b0390600435828116810361017b5791602435908116810361017b579060443590565b5f5b838110610fec5750505f910152565b8181015183820152602001610fdd565b6080810190811067ffffffffffffffff82111761101857604052565b634e487b7160e01b5f52604160045260245ffd5b90601f8019910116810190811067ffffffffffffffff82111761101857604052565b9190820391821161105b57565b634e487b7160e01b5f52601160045260245ffd5b9190820180921161105b57565b9061108682611426565b91829083156110bd575b7fb54c65c0f448723e3496562a0e878a1341c4dd2511ef542b5fd5f19cebc476635f5260205260405f205d565b5f199150611090565b6001607f1b8110156110d857600f0b90565b6393dafdf15f526004601cfd5b8215611199576110f582826112b2565b8381019384125f821290801582169115161761105b578361117b57505f805160206114c3833981519152805c5f1901905d5b60405190602082019260018060a01b0380921684521660408201527f6dc13502b9ba2a9e8e42c53a1856d632b29d5aab3bcb4a2476bfec06cbd9cf2260608201526060815261117581610ffc565b5190205d565b611127575f805160206114c38339815191526001815c01905d611127565b505050565b6001600160a01b0381166111c957505f80809381935af1156111bc57565b63f4b3b1bc5f526004601cfd5b60105f604492602095829560145260345263a9059cbb60601b82525af13d1560015f51141716156111fa575f603452565b63f27f64e45f526004601cfd5b7fb54c65c0f448723e3496562a0e878a1341c4dd2511ef542b5fd5f19cebc476635f5260205260405f205c908115611248575f19821461124357565b5f9150565b60405163763c258d60e01b8152600490fd5b6003546001600160a01b0316330361126e57565b606460405162461bcd60e51b815260206004820152602060248201527f4f776e61626c653a2063616c6c6572206973206e6f7420746865206f776e65726044820152fd5b60405190602082019260018060a01b0380921684521660408201527f6dc13502b9ba2a9e8e42c53a1856d632b29d5aab3bcb4a2476bfec06cbd9cf2260608201526060815261130081610ffc565b5190205c90565b82600f0b80156113a1575f8112611351575060018060a01b038091165f52600560205260405f2091165f5260205261134d6001600160801b0360405f209216825461104e565b9055565b92506f7fffffffffffffffffffffffffffffff19831461105b5760018060a01b038091165f52600560205260405f2091165f5260205261134d6001600160801b0360405f20925f0316825461106f565b50505050565b5f805160206114a3833981519152805c6001600160a01b0316156113ca575f905d565b50565b5f805160206114a38339815191526001600160a01b03815c81169083168181146113a157811515908161141c575b5061140457505d565b6024906040519063c6742a3f60e01b82526004820152fd5b905015155f6113fb565b6001600160a01b03168061143957504790565b6020602491604051928380926370a0823160e01b82523060048301525afa908115611497575f91611468575090565b90506020813d60201161148f575b816114836020938361102c565b8101031261017b575190565b3d9150611476565b6040513d5f823e3d90fdfeedda7c051899c54dd66eaf5e13c031326ab4729812a579bed198ab93fd313d70a88ffc6a483ae852b901fb1c3a0df606e2e4461b493434e6643ebdc3ffabd1515b21a3c624a398df3917a0a930f91e3837519b8eab3302b834746433065f2959a26469706673582212203d3e71aaa8403848fd6efa95f9286d2767aabd09f49f12fca84564ebff90473964736f6c63430008180033","linkReferences":{}},"methodIdentifiers":{"accountAppBalanceDelta((address,address,address,address,uint24,bytes32),int256,address)":"d6501f96","accountAppBalanceDelta(address,int128,address)":"6d102799","allowance(address,address,address)":"927da105","approve(address,address,uint256)":"e1f21c67","balanceOf(address,address)":"f7888aec","burn(address,address,uint256)":"f6b911bc","collectFee(address,uint256,address)":"eb78b435","currencyDelta(address,address)":"a54b2831","getLocker()":"5d4e0ced","getUnsettledDeltasCount()":"fda42892","isAppRegistered(address)":"8403be91","isOperator(address,address)":"b6363cf2","lock(bytes)":"81548319","mint(address,address,uint256)":"c6c3bbe6","owner()":"8da5cb5b","registerApp(address)":"17a1d80f","renounceOwnership()":"715018a6","reservesOfApp(address,address)":"322c3620","reservesOfVault(address)":"131dfb8b","setOperator(address,bool)":"558a7297","settle(address)":"6a256b29","settleFor(address,address,uint256)":"1d4631a4","supportsInterface(bytes4)":"01ffc9a7","sync(address)":"a5841194","take(address,address,uint256)":"0b0d9c09","transfer(address,address,uint256)":"beabacc8","transferFrom(address,address,address,uint256)":"15dacbea","transferOwnership(address)":"f2fde38b"},"id":41}