{"abi":[{"type":"constructor","inputs":[{"name":"poolManager","type":"address","internalType":"contract ICLPoolManager"}],"stateMutability":"nonpayable"},{"type":"function","name":"afterAddLiquidity","inputs":[{"name":"","type":"address","internalType":"address"},{"name":"","type":"tuple","internalType":"struct PoolKey","components":[{"name":"currency0","type":"address","internalType":"Currency"},{"name":"currency1","type":"address","internalType":"Currency"},{"name":"hooks","type":"address","internalType":"contract IHooks"},{"name":"poolManager","type":"address","internalType":"contract IPoolManager"},{"name":"fee","type":"uint24","internalType":"uint24"},{"name":"parameters","type":"bytes32","internalType":"bytes32"}]},{"name":"","type":"tuple","internalType":"struct ICLPoolManager.ModifyLiquidityParams","components":[{"name":"tickLower","type":"int24","internalType":"int24"},{"name":"tickUpper","type":"int24","internalType":"int24"},{"name":"liquidityDelta","type":"int256","internalType":"int256"},{"name":"salt","type":"bytes32","internalType":"bytes32"}]},{"name":"","type":"int256","internalType":"BalanceDelta"},{"name":"","type":"bytes","internalType":"bytes"}],"outputs":[{"name":"","type":"bytes4","internalType":"bytes4"},{"name":"","type":"int256","internalType":"BalanceDelta"}],"stateMutability":"nonpayable"},{"type":"function","name":"afterDonate","inputs":[{"name":"","type":"address","internalType":"address"},{"name":"","type":"tuple","internalType":"struct PoolKey","components":[{"name":"currency0","type":"address","internalType":"Currency"},{"name":"currency1","type":"address","internalType":"Currency"},{"name":"hooks","type":"address","internalType":"contract IHooks"},{"name":"poolManager","type":"address","internalType":"contract IPoolManager"},{"name":"fee","type":"uint24","internalType":"uint24"},{"name":"parameters","type":"bytes32","internalType":"bytes32"}]},{"name":"","type":"uint256","internalType":"uint256"},{"name":"","type":"uint256","internalType":"uint256"},{"name":"","type":"bytes","internalType":"bytes"}],"outputs":[{"name":"","type":"bytes4","internalType":"bytes4"}],"stateMutability":"nonpayable"},{"type":"function","name":"afterInitialize","inputs":[{"name":"","type":"address","internalType":"address"},{"name":"","type":"tuple","internalType":"struct PoolKey","components":[{"name":"currency0","type":"address","internalType":"Currency"},{"name":"currency1","type":"address","internalType":"Currency"},{"name":"hooks","type":"address","internalType":"contract IHooks"},{"name":"poolManager","type":"address","internalType":"contract IPoolManager"},{"name":"fee","type":"uint24","internalType":"uint24"},{"name":"parameters","type":"bytes32","internalType":"bytes32"}]},{"name":"","type":"uint160","internalType":"uint160"},{"name":"","type":"int24","internalType":"int24"},{"name":"","type":"bytes","internalType":"bytes"}],"outputs":[{"name":"","type":"bytes4","internalType":"bytes4"}],"stateMutability":"nonpayable"},{"type":"function","name":"afterRemoveLiquidity","inputs":[{"name":"","type":"address","internalType":"address"},{"name":"","type":"tuple","internalType":"struct PoolKey","components":[{"name":"currency0","type":"address","internalType":"Currency"},{"name":"currency1","type":"address","internalType":"Currency"},{"name":"hooks","type":"address","internalType":"contract IHooks"},{"name":"poolManager","type":"address","internalType":"contract IPoolManager"},{"name":"fee","type":"uint24","internalType":"uint24"},{"name":"parameters","type":"bytes32","internalType":"bytes32"}]},{"name":"","type":"tuple","internalType":"struct ICLPoolManager.ModifyLiquidityParams","components":[{"name":"tickLower","type":"int24","internalType":"int24"},{"name":"tickUpper","type":"int24","internalType":"int24"},{"name":"liquidityDelta","type":"int256","internalType":"int256"},{"name":"salt","type":"bytes32","internalType":"bytes32"}]},{"name":"","type":"int256","internalType":"BalanceDelta"},{"name":"","type":"bytes","internalType":"bytes"}],"outputs":[{"name":"","type":"bytes4","internalType":"bytes4"},{"name":"","type":"int256","internalType":"BalanceDelta"}],"stateMutability":"nonpayable"},{"type":"function","name":"afterSwap","inputs":[{"name":"","type":"address","internalType":"address"},{"name":"","type":"tuple","internalType":"struct PoolKey","components":[{"name":"currency0","type":"address","internalType":"Currency"},{"name":"currency1","type":"address","internalType":"Currency"},{"name":"hooks","type":"address","internalType":"contract IHooks"},{"name":"poolManager","type":"address","internalType":"contract IPoolManager"},{"name":"fee","type":"uint24","internalType":"uint24"},{"name":"parameters","type":"bytes32","internalType":"bytes32"}]},{"name":"","type":"tuple","internalType":"struct ICLPoolManager.SwapParams","components":[{"name":"zeroForOne","type":"bool","internalType":"bool"},{"name":"amountSpecified","type":"int256","internalType":"int256"},{"name":"sqrtPriceLimitX96","type":"uint160","internalType":"uint160"}]},{"name":"","type":"int256","internalType":"BalanceDelta"},{"name":"","type":"bytes","internalType":"bytes"}],"outputs":[{"name":"","type":"bytes4","internalType":"bytes4"},{"name":"","type":"int128","internalType":"int128"}],"stateMutability":"nonpayable"},{"type":"function","name":"auctionOver","inputs":[{"name":"","type":"bytes32","internalType":"PoolId"}],"outputs":[{"name":"","type":"bool","internalType":"bool"}],"stateMutability":"view"},{"type":"function","name":"beforeAddLiquidity","inputs":[{"name":"","type":"address","internalType":"address"},{"name":"","type":"tuple","internalType":"struct PoolKey","components":[{"name":"currency0","type":"address","internalType":"Currency"},{"name":"currency1","type":"address","internalType":"Currency"},{"name":"hooks","type":"address","internalType":"contract IHooks"},{"name":"poolManager","type":"address","internalType":"contract IPoolManager"},{"name":"fee","type":"uint24","internalType":"uint24"},{"name":"parameters","type":"bytes32","internalType":"bytes32"}]},{"name":"","type":"tuple","internalType":"struct ICLPoolManager.ModifyLiquidityParams","components":[{"name":"tickLower","type":"int24","internalType":"int24"},{"name":"tickUpper","type":"int24","internalType":"int24"},{"name":"liquidityDelta","type":"int256","internalType":"int256"},{"name":"salt","type":"bytes32","internalType":"bytes32"}]},{"name":"","type":"bytes","internalType":"bytes"}],"outputs":[{"name":"","type":"bytes4","internalType":"bytes4"}],"stateMutability":"nonpayable"},{"type":"function","name":"beforeDonate","inputs":[{"name":"","type":"address","internalType":"address"},{"name":"","type":"tuple","internalType":"struct PoolKey","components":[{"name":"currency0","type":"address","internalType":"Currency"},{"name":"currency1","type":"address","internalType":"Currency"},{"name":"hooks","type":"address","internalType":"contract IHooks"},{"name":"poolManager","type":"address","internalType":"contract IPoolManager"},{"name":"fee","type":"uint24","internalType":"uint24"},{"name":"parameters","type":"bytes32","internalType":"bytes32"}]},{"name":"","type":"uint256","internalType":"uint256"},{"name":"","type":"uint256","internalType":"uint256"},{"name":"","type":"bytes","internalType":"bytes"}],"outputs":[{"name":"","type":"bytes4","internalType":"bytes4"}],"stateMutability":"nonpayable"},{"type":"function","name":"beforeInitialize","inputs":[{"name":"","type":"address","internalType":"address"},{"name":"key","type":"tuple","internalType":"struct PoolKey","components":[{"name":"currency0","type":"address","internalType":"Currency"},{"name":"currency1","type":"address","internalType":"Currency"},{"name":"hooks","type":"address","internalType":"contract IHooks"},{"name":"poolManager","type":"address","internalType":"contract IPoolManager"},{"name":"fee","type":"uint24","internalType":"uint24"},{"name":"parameters","type":"bytes32","internalType":"bytes32"}]},{"name":"","type":"uint160","internalType":"uint160"},{"name":"data","type":"bytes","internalType":"bytes"}],"outputs":[{"name":"","type":"bytes4","internalType":"bytes4"}],"stateMutability":"nonpayable"},{"type":"function","name":"beforeRemoveLiquidity","inputs":[{"name":"","type":"address","internalType":"address"},{"name":"","type":"tuple","internalType":"struct PoolKey","components":[{"name":"currency0","type":"address","internalType":"Currency"},{"name":"currency1","type":"address","internalType":"Currency"},{"name":"hooks","type":"address","internalType":"contract IHooks"},{"name":"poolManager","type":"address","internalType":"contract IPoolManager"},{"name":"fee","type":"uint24","internalType":"uint24"},{"name":"parameters","type":"bytes32","internalType":"bytes32"}]},{"name":"","type":"tuple","internalType":"struct ICLPoolManager.ModifyLiquidityParams","components":[{"name":"tickLower","type":"int24","internalType":"int24"},{"name":"tickUpper","type":"int24","internalType":"int24"},{"name":"liquidityDelta","type":"int256","internalType":"int256"},{"name":"salt","type":"bytes32","internalType":"bytes32"}]},{"name":"","type":"bytes","internalType":"bytes"}],"outputs":[{"name":"","type":"bytes4","internalType":"bytes4"}],"stateMutability":"nonpayable"},{"type":"function","name":"beforeSwap","inputs":[{"name":"","type":"address","internalType":"address"},{"name":"key","type":"tuple","internalType":"struct PoolKey","components":[{"name":"currency0","type":"address","internalType":"Currency"},{"name":"currency1","type":"address","internalType":"Currency"},{"name":"hooks","type":"address","internalType":"contract IHooks"},{"name":"poolManager","type":"address","internalType":"contract IPoolManager"},{"name":"fee","type":"uint24","internalType":"uint24"},{"name":"parameters","type":"bytes32","internalType":"bytes32"}]},{"name":"params","type":"tuple","internalType":"struct ICLPoolManager.SwapParams","components":[{"name":"zeroForOne","type":"bool","internalType":"bool"},{"name":"amountSpecified","type":"int256","internalType":"int256"},{"name":"sqrtPriceLimitX96","type":"uint160","internalType":"uint160"}]},{"name":"data","type":"bytes","internalType":"bytes"}],"outputs":[{"name":"","type":"bytes4","internalType":"bytes4"},{"name":"","type":"int256","internalType":"BeforeSwapDelta"},{"name":"","type":"uint24","internalType":"uint24"}],"stateMutability":"nonpayable"},{"type":"function","name":"decayConstant","inputs":[{"name":"","type":"bytes32","internalType":"PoolId"}],"outputs":[{"name":"","type":"int256","internalType":"SD59x18"}],"stateMutability":"view"},{"type":"function","name":"emissionRate","inputs":[{"name":"","type":"bytes32","internalType":"PoolId"}],"outputs":[{"name":"","type":"int256","internalType":"SD59x18"}],"stateMutability":"view"},{"type":"function","name":"getHooksRegistrationBitmap","inputs":[],"outputs":[{"name":"","type":"uint16","internalType":"uint16"}],"stateMutability":"pure"},{"type":"function","name":"initialPrice","inputs":[{"name":"","type":"bytes32","internalType":"PoolId"}],"outputs":[{"name":"","type":"int256","internalType":"SD59x18"}],"stateMutability":"view"},{"type":"function","name":"lastAvailableAuctionStartTime","inputs":[{"name":"","type":"bytes32","internalType":"PoolId"}],"outputs":[{"name":"","type":"int256","internalType":"SD59x18"}],"stateMutability":"view"},{"type":"function","name":"lockAcquired","inputs":[{"name":"data","type":"bytes","internalType":"bytes"}],"outputs":[{"name":"","type":"bytes","internalType":"bytes"}],"stateMutability":"nonpayable"},{"type":"function","name":"paymentToken","inputs":[{"name":"","type":"bytes32","internalType":"PoolId"}],"outputs":[{"name":"","type":"address","internalType":"address"}],"stateMutability":"view"},{"type":"function","name":"poolManager","inputs":[],"outputs":[{"name":"","type":"address","internalType":"contract ICLPoolManager"}],"stateMutability":"view"},{"type":"function","name":"salePeriod","inputs":[{"name":"","type":"bytes32","internalType":"PoolId"}],"outputs":[{"name":"","type":"int256","internalType":"SD59x18"}],"stateMutability":"view"},{"type":"function","name":"tokenSupplyLeft","inputs":[{"name":"","type":"bytes32","internalType":"PoolId"}],"outputs":[{"name":"","type":"int256","internalType":"int256"}],"stateMutability":"view"},{"type":"function","name":"tokenToSell","inputs":[{"name":"","type":"bytes32","internalType":"PoolId"}],"outputs":[{"name":"","type":"address","internalType":"address"}],"stateMutability":"view"},{"type":"function","name":"vault","inputs":[],"outputs":[{"name":"","type":"address","internalType":"contract IVault"}],"stateMutability":"view"},{"type":"error","name":"HookNotImplemented","inputs":[]},{"type":"error","name":"INSUFFICIENT_AVAILABLE_TOKENS","inputs":[]},{"type":"error","name":"INVALID_AMOUNT_SPECIFIED","inputs":[]},{"type":"error","name":"INVALID_DIRECTION","inputs":[]},{"type":"error","name":"INVALID_PARAMETERS","inputs":[]},{"type":"error","name":"INVALID_PAYMENT_TOKEN","inputs":[]},{"type":"error","name":"InvalidPool","inputs":[]},{"type":"error","name":"LockFailure","inputs":[]},{"type":"error","name":"NotPoolManager","inputs":[]},{"type":"error","name":"NotSelf","inputs":[]},{"type":"error","name":"NotVault","inputs":[]},{"type":"error","name":"PRBMath_MulDiv18_Overflow","inputs":[{"name":"x","type":"uint256","internalType":"uint256"},{"name":"y","type":"uint256","internalType":"uint256"}]},{"type":"error","name":"PRBMath_MulDiv_Overflow","inputs":[{"name":"x","type":"uint256","internalType":"uint256"},{"name":"y","type":"uint256","internalType":"uint256"},{"name":"denominator","type":"uint256","internalType":"uint256"}]},{"type":"error","name":"PRBMath_SD59x18_Div_InputTooSmall","inputs":[]},{"type":"error","name":"PRBMath_SD59x18_Div_Overflow","inputs":[{"name":"x","type":"int256","internalType":"SD59x18"},{"name":"y","type":"int256","internalType":"SD59x18"}]},{"type":"error","name":"PRBMath_SD59x18_Exp2_InputTooBig","inputs":[{"name":"x","type":"int256","internalType":"SD59x18"}]},{"type":"error","name":"PRBMath_SD59x18_Exp_InputTooBig","inputs":[{"name":"x","type":"int256","internalType":"SD59x18"}]},{"type":"error","name":"PRBMath_SD59x18_Mul_InputTooSmall","inputs":[]},{"type":"error","name":"PRBMath_SD59x18_Mul_Overflow","inputs":[{"name":"x","type":"int256","internalType":"SD59x18"},{"name":"y","type":"int256","internalType":"SD59x18"}]}],"bytecode":{"object":"0x60c08060405234620000ed5760208162002061803803809162000023828562000105565b833981010312620000ed57516001600160a01b0380821691828103620000ed5760805260405163fbfa77cf60e01b815291602090839060049082905afa918215620000fa575f92620000b2575b8260a052604051611f2390816200013e823960805181610729015260a051818181610160015281816104d3015281816107e501528181610a160152610c440152f35b9091506020813d602011620000f1575b81620000d16020938362000105565b81010312620000ed57519081168103620000ed575f8062000070565b5f80fd5b3d9150620000c2565b6040513d5f823e3d90fd5b601f909101601f19168101906001600160401b038211908210176200012957604052565b634e487b7160e01b5f52604160045260245ffdfe6080604081815260049081361015610015575f80fd5b5f3560e01c92836301d46ce214610f43575082631ffe6a5814610ee75782634b6a682d14610ee25782635304d44e14610ee25782636f6657cb14610e815782637aa43ce01461077e57826385deb13114610e5b57826387c5d99a14610e36578263972e19a214610876578263ab6291fe146107b1578263d470585014610783578263d533c4db1461077e578263d5614e7014610758578263dc4c90d314610716578263e117cef9146106eb578263e592dc931461027e578263e8246c7f1461011e578263f0c22c1614610259578263f813206714610233578263f961d1f41461018f578263fbfa77cf1461014d578263fde2572c1461012357505063fe70c9c91461011e575f80fd5b6110a0565b3461014957602036600319011261014957602091355f5260038252805f20549051908152f35b5f80fd5b34610149575f36600319011261014957517f00000000000000000000000000000000000000000000000000000000000000006001600160a01b03168152602090f35b34610149575f366003190112610149578051916101c08301908382106001600160401b0383111761022057506101a06020935f92845260018152828582015282848201528260608201528260808201528260a0820152600160c08201528260e08201528261010082015282610120820152600161014082015282610160820152826101808201520152516104418152f35b604190634e487b7160e01b5f525260245ffd5b3461014957602036600319011261014957602091355f5260058252805f20549051908152f35b346101495760203660031901126101495781602092355f528252805f20549051908152f35b90346101495761016036600319011261014957610299610f73565b5060c03660231901126101495760603660e319011261014957610144356001600160401b038111610149576102d19036908301610fb3565b90809291602093849181010312610149576102eb90610f89565b5060c06102f736611144565b20905f91610304426111d5565b815f526005855261031f865f20545f8752875f2054906112e3565b126106d1575b805f526008845260ff855f20541615610355575b845163e592dc9360e01b81528085018490525f81870152606090f35b610104359250905f83126106c35760e435801515809103610149575f83815260068652869020546001600160a01b039190821682610391611206565b1614036106b457825f5260018552855f206103ad8582546112cb565b9055825f52600185525f86812054126106a5576103dd6103cc426111d5565b845f5260058752875f2054906112cb565b936103fa6103ea826111d5565b855f52848852885f2054906112fe565b946104048661139e565b61040d8161139e565b85136106955761041c816111d5565b610439610428426111d5565b865f5260058952895f2054906112cb565b855f526002885261048461047f61046f61045e8c5f205460038d528d5f2054906112fe565b94895f5260038c528c5f20546113eb565b885f52878b528b5f2054906112fe565b6114b4565b90670de0b6b3a763ffff19820191821360011661068257916104c96104ce926104c361047f670de0b6b3a7640000968e60038f8e5f52525f20546113eb565b926113eb565b6112fe565b0591807f000000000000000000000000000000000000000000000000000000000000000016855f526006885281895f20541690803b15610149578951630b0d9c0960e01b81526001600160a01b03909216868301908152306020820152604081018690525f9083908190606001038183855af180156106785784938a93602492610669575b50885f52600784528b5f2054168b519485938492636a256b2960e01b84528a8401525af190811561065f578791610636575b505061059090611512565b600f0b916f7fffffffffffffffffffffffffffffff1983146106235750916105f85f94926105c060609895611512565b6fffffffffffffffffffffffffffffffff1690860360801b179282865260018752848620541561060c575b60058752848620546112e3565b908452600585528284205591819450610339565b60088752848620805460ff191660011790556105eb565b601190634e487b7160e01b5f525260245ffd5b813d8311610658575b6106498183611123565b81010312610149578588610585565b503d61063f565b88513d5f823e3d90fd5b610672906110fc565b8c610553565b8a513d5f823e3d90fd5b601186634e487b7160e01b5f525260245ffd5b86516364b85e1f60e01b81528390fd5b5084516364b85e1f60e01b8152fd5b50845163768f973b60e01b8152fd5b84516302668eab60e31b8152fd5b805f5260088452845f20600160ff19825416179055610325565b3461014957602036600319011261014957602091355f526008825260ff815f20541690519015158152f35b34610149575f36600319011261014957517f00000000000000000000000000000000000000000000000000000000000000006001600160a01b03168152602090f35b3461014957602036600319011261014957602091355f5260018252805f20549051908152f35b611044565b3461014957602036600319011261014957602091355f526007825260018060a01b03815f2054169051908152f35b346101495760209160206003193601126101495780356001600160401b038111610149576107e29036908301610fb3565b917f00000000000000000000000000000000000000000000000000000000000000006001600160a01b0316330361086857509061081e9161124a565b918151928391602083528151918260208501525f5b8381106108525750505f83830185015250601f01601f19168101030190f35b8181018301518782018701528694508201610833565b83516362df054560e01b8152fd5b346101495761012036600319011261014957610890610f73565b5060c0366023190112610149576108a5610f9d565b50610104356001600160401b038111610149576108c59036908401610fb3565b929060e08160c06108d536611144565b209581010312610149576020938482013590823590608084013560608501358786013561091060c061090960a08a01610f89565b9801610f89565b506001600160a01b03968716945f81128015610e2f575b8015610e26575b8015610e1d575b8015610e14575b610e045791610983610993928c5f61096c6109a398978f61095c426111d5565b908c8552600586528420556111d5565b91898252528c5f205560018d52888c5f20556111d5565b855f5260028c528a5f20556111d5565b835f5260038a52885f20556111d5565b815f52858852865f205560068752855f20916bffffffffffffffffffffffff60a01b92818482541617905580856109d8611206565b1603610bfe5750836109e8611206565b16905f5260068752855f20908282541617905582610a0461121c565b1660078752855f2091825416179055817f00000000000000000000000000000000000000000000000000000000000000001691610a3f61121c565b8551632961046560e21b81529082168582015286816024815f885af18015610bcb57908791610bd5575b505080610a7461121c565b865163a9059cbb60e01b81526001600160a01b038616878201908152602081018690529092899284928390036040019183915f91165af18015610bcb57610b9e575b50610abf61121c565b8551636a256b2960e01b815291168482015285816024815f875af18015610b9457908691610b6b575b5050610af261121c565b91803b15610149578451630b0d9c0960e01b81526001600160a01b03909316938301938452306020850152604084019190915290915f91839182908490829060600103925af18015610b6157610b52575b505b51634b970cd160e11b8152f35b610b5b906110fc565b82610b43565b82513d5f823e3d90fd5b813d8311610b8d575b610b7e8183611123565b81010312610149578486610ae8565b503d610b74565b85513d5f823e3d90fd5b610bbd90873d8911610bc4575b610bb58183611123565b810190611232565b5086610ab6565b503d610bab565b86513d5f823e3d90fd5b813d8311610bf7575b610be88183611123565b81010312610149578587610a69565b503d610bde565b84610c0761121c565b1603610df55783610c1661121c565b16905f5260068752855f20908282541617905582610c32611206565b1660078752855f2091825416179055817f00000000000000000000000000000000000000000000000000000000000000001691610c6d611206565b8551632961046560e21b81529082168582015286816024815f885af18015610bcb57908791610dcc575b505080610ca2611206565b865163a9059cbb60e01b81526001600160a01b038616878201908152602081018690529092899284928390036040019183915f91165af18015610bcb57610daf575b50610ced611206565b8551636a256b2960e01b815291168482015285816024815f875af18015610b9457908691610d86575b5050610d20611206565b91803b15610149578451630b0d9c0960e01b81526001600160a01b03909316938301938452306020850152604084019190915290915f91839182908490829060600103925af18015610b6157610d77575b50610b45565b610d80906110fc565b82610d71565b813d8311610da8575b610d998183611123565b81010312610149578486610d16565b503d610d8f565b610dc590873d8911610bc457610bb58183611123565b5086610ce4565b813d8311610dee575b610ddf8183611123565b81010312610149578587610c97565b503d610dd5565b85516241864160e71b81528590fd5b89516301a8140560e21b81528990fd5b505f841261093c565b505f8312610935565b505f821261092e565b505f610927565b3461014957602036600319011261014957602091355f525f8252805f20549051908152f35b3461014957602036600319011261014957602091355f5260028252805f20549051908152f35b346101495761018036600319011261014957610e9b610f73565b5060c03660231901126101495760603660e319011261014957610164356001600160401b03811161014957610ed39036908401610fb3565b505051630a85dc2960e01b8152fd5b610fe0565b346101495761014036600319011261014957610f01610f73565b5060c036602319011261014957610f16610f9d565b50610104358060020b0361014957610124356001600160401b03811161014957610ed39036908401610fb3565b90346101495760203660031901126101495791355f90815260066020908152929020546001600160a01b03168152f35b600435906001600160a01b038216820361014957565b35906001600160a01b038216820361014957565b60e435906001600160a01b038216820361014957565b9181601f84011215610149578235916001600160401b038311610149576020838186019501011161014957565b3461014957610140366003190112610149576004356001600160a01b038116036101495760c036602319011261014957610124356001600160401b03811161014957611030903690600401610fb3565b5050604051630a85dc2960e01b8152600490fd5b34610149576101a0366003190112610149576004356001600160a01b038116036101495760c03660231901126101495760803660e319011261014957610184356001600160401b03811161014957611030903690600401610fb3565b3461014957610180366003190112610149576004356001600160a01b038116036101495760c03660231901126101495760803660e319011261014957610164356001600160401b03811161014957611030903690600401610fb3565b6001600160401b03811161110f57604052565b634e487b7160e01b5f52604160045260245ffd5b90601f801991011681019081106001600160401b0382111761110f57604052565b60c0906023190112610149576040519060c082018281106001600160401b0382111761110f57604052816001600160a01b03602435818116810361014957825260443581811681036101495760208301526064358181168103610149576040830152608435908116810361014957606082015260a43562ffffff8116810361014957608082015260a060c435910152565b90670de0b6b3a7640000918281029281840514901517156111f257565b634e487b7160e01b5f52601160045260245ffd5b6024356001600160a01b03811681036101495790565b6044356001600160a01b03811681036101495790565b90816020910312610149575180151581036101495790565b5f9182918160405192839283378101838152039082305af1903d156112c3573d916001600160401b03831161110f5760405192611291601f8201601f191660200185611123565b83523d5f602085013e5b6112c157508051156112af57602081519101fd5b6040516314815f4760e31b8152600490fd5b565b60609161129b565b81810392915f1380158285131691841216176111f257565b9190915f83820193841291129080158216911516176111f257565b600160ff1b818114908115611394575b50611382575f81121561137957611333815f035b5f84121561137257835f0390611531565b916001600160ff1b038311611354575f199118131561134f5790565b5f0390565b604492506040519163d49c26b360e01b835260048301526024820152fd5b8390611531565b61133381611322565b6040516309fe2b4560e41b8152600490fd5b905082145f61130e565b604051906020820190634e0c1d1d60e01b825260248301526024825260608201908282106001600160401b0383111761110f575f92839260405251906a636f6e736f6c652e6c6f675afa50565b600160ff1b81811490811561147c575b5061146a575f81121561146157611420815f035b5f84121561145a57835f03906115e0565b916001600160ff1b03831161143c575f199118131561134f5790565b604492506040519163120b5b4360e01b835260048301526024820152fd5b83906115e0565b6114208161140f565b60405163a6070c2560e01b8152600490fd5b905082145f6113fb565b80156114a0576ec097ce7bc90715b34b9f10000000000590565b634e487b7160e01b5f52601260045260245ffd5b68023f2fa8f6da5b9d3119811261150d57680736ea4425c11ac63081136114f557670de0b6b3a76400006714057b7ef767814f6114f2920205611675565b90565b6024906040519063ca7ec0c560e01b82526004820152fd5b505f90565b6001607f1b81101561152457600f0b90565b6393dafdf15f526004601cfd5b670de0b6b3a7640000915f1983830992808302928380861095039480860395146115d257828510156115af579082910960018219018216809204600280826003021880830282030280830282030280830282030280830282030280830282030280920290030293600183805f03040190848311900302920304170290565b8260649260405192630c740aef60e31b8452600484015260248301526044820152fd5b5050809250156114a0570490565b9091905f198382098382029182808310920391808303921461166457670de0b6b3a7640000908183101561164657947faccb18165bd6fe31ae1cf318dc5b51eee0e1ba569b88cd74c1773b91fac1066994950990828211900360ee1b910360121c170290565b6044908660405191635173648d60e01b835260048301526024820152fd5b5050670de0b6b3a764000090049150565b5f8112156116a25768033dd1780914b9711419811261150d57611699905f03611675565b6114f290611486565b680a688906bd8affffff8113611ed657670de0b6b3a764000080604092831b0590600160bf1b67ff000000000000008316611dc5575b66ff0000000000008316611cbd575b65ff00000000008316611bbd575b64ff000000008316611ac5575b63ff00000083166119d5575b62ff000083166118ed575b61ff00831661180d575b60ff8316611736575b02911c60bf031c90565b608083166117fb575b8383166117e9575b602083166117d7575b601083166117c5575b600883166117b3575b600483166117a1575b6002831661178f575b600183161561172c576801000000000000000102831c61172c565b6801000000000000000102831c611774565b6801000000000000000302831c61176b565b6801000000000000000602831c611762565b6801000000000000000b02831c611759565b6801000000000000001602831c611750565b6801000000000000002c02831c611747565b6801000000000000005902831c61173f565b61800083166118db575b61400083166118c9575b61200083166118b7575b61100083166118a5575b6108008316611893575b6104008316611881575b610200831661186f575b61010083161561172357680100000000000000b102831c611723565b6801000000000000016302831c611853565b680100000000000002c602831c611849565b6801000000000000058c02831c61183f565b68010000000000000b1702831c611835565b6801000000000000162e02831c61182b565b68010000000000002c5d02831c611821565b680100000000000058b902831c611817565b6280000083166119c3575b6240000083166119b1575b62200000831661199f575b62100000831661198d575b62080000831661197b575b620400008316611969575b620200008316611957575b62010000831615611719576801000000000000b17202831c611719565b680100000000000162e402831c61193a565b6801000000000002c5c802831c61192f565b68010000000000058b9102831c611924565b680100000000000b172102831c611919565b68010000000000162e4302831c61190e565b680100000000002c5c8602831c611903565b6801000000000058b90c02831c6118f8565b63800000008316611ab3575b63400000008316611aa1575b63200000008316611a8f575b63100000008316611a7d575b63080000008316611a6b575b63040000008316611a59575b63020000008316611a47575b630100000083161561170e5768010000000000b1721802831c61170e565b6801000000000162e43002831c611a29565b68010000000002c5c86002831c611a1d565b680100000000058b90c002831c611a11565b6801000000000b17217f02831c611a05565b680100000000162e42ff02831c6119f9565b6801000000002c5c85fe02831c6119ed565b68010000000058b90bfc02831c6119e1565b6480000000008316611bab575b6440000000008316611b99575b6420000000008316611b87575b6410000000008316611b75575b6408000000008316611b63575b6404000000008316611b51575b6402000000008316611b3f575b64010000000083161561170257680100000000b17217f802831c611702565b68010000000162e42ff102831c611b20565b680100000002c5c85fe302831c611b13565b6801000000058b90bfce02831c611b06565b68010000000b17217fbb02831c611af9565b6801000000162e42fff002831c611aec565b68010000002c5c8601cc02831c611adf565b680100000058b90c0b4902831c611ad2565b658000000000008316611cab575b654000000000008316611c99575b652000000000008316611c87575b651000000000008316611c75575b650800000000008316611c63575b650400000000008316611c51575b650200000000008316611c3f575b650100000000008316156116f5576801000000b17218355102831c6116f5565b680100000162e430e5a202831c611c1f565b6801000002c5c863b73f02831c611c11565b68010000058b90cf1e6e02831c611c03565b680100000b1721bcfc9a02831c611bf5565b68010000162e43f4f83102831c611be7565b680100002c5c89d5ec6d02831c611bd9565b6801000058b91b5bc9ae02831c611bcb565b66800000000000008316611db3575b66400000000000008316611da1575b66200000000000008316611d8f575b66100000000000008316611d7d575b66080000000000008316611d6b575b66040000000000008316611d59575b66020000000000008316611d47575b66010000000000008316156116e75768010000b17255775c0402831c6116e7565b6801000162e525ee054702831c611d26565b68010002c5cc37da949202831c611d17565b680100058ba01fb9f96d02831c611d08565b6801000b175effdc76ba02831c611cf9565b680100162f3904051fa102831c611cea565b6801002c605e2e8cec5002831c611cdb565b68010058c86da1c09ea202831c611ccc565b6780000000000000008316611ec3575b6740000000000000008316611eb1575b6720000000000000008316611e9f575b6710000000000000008316611e8d575b6708000000000000008316611e7b575b6704000000000000008316611e69575b6702000000000000008316611e57575b6701000000000000008316156116d857680100b1afa5abcbed6102831c6116d8565b68010163da9fb33356d802831c611e35565b680102c9a3e778060ee702831c611e25565b6801059b0d31585743ae02831c611e15565b68010b5586cf9890f62a02831c611e05565b6801172b83c7d517adce02831c611df5565b6801306fe0a31b7152df02831c611de5565b5068016a09e667f3bcc909607f1b611dd5565b60249060405190626c1a0560e31b82526004820152fdfea2646970667358221220567fed2c54bde9afbc2f542669ef536ee2c84b9d202d8ee38d83f92d802bc19464736f6c63430008180033","linkReferences":{}},"methodIdentifiers":{"afterAddLiquidity(address,(address,address,address,address,uint24,bytes32),(int24,int24,int256,bytes32),int256,bytes)":"d533c4db","afterDonate(address,(address,address,address,address,uint24,bytes32),uint256,uint256,bytes)":"5304d44e","afterInitialize(address,(address,address,address,address,uint24,bytes32),uint160,int24,bytes)":"1ffe6a58","afterRemoveLiquidity(address,(address,address,address,address,uint24,bytes32),(int24,int24,int256,bytes32),int256,bytes)":"7aa43ce0","afterSwap(address,(address,address,address,address,uint24,bytes32),(bool,int256,uint160),int256,bytes)":"6f6657cb","auctionOver(bytes32)":"e117cef9","beforeAddLiquidity(address,(address,address,address,address,uint24,bytes32),(int24,int24,int256,bytes32),bytes)":"fe70c9c9","beforeDonate(address,(address,address,address,address,uint24,bytes32),uint256,uint256,bytes)":"4b6a682d","beforeInitialize(address,(address,address,address,address,uint24,bytes32),uint160,bytes)":"972e19a2","beforeRemoveLiquidity(address,(address,address,address,address,uint24,bytes32),(int24,int24,int256,bytes32),bytes)":"e8246c7f","beforeSwap(address,(address,address,address,address,uint24,bytes32),(bool,int256,uint160),bytes)":"e592dc93","decayConstant(bytes32)":"fde2572c","emissionRate(bytes32)":"f0c22c16","getHooksRegistrationBitmap()":"f961d1f4","initialPrice(bytes32)":"85deb131","lastAvailableAuctionStartTime(bytes32)":"f8132067","lockAcquired(bytes)":"ab6291fe","paymentToken(bytes32)":"01d46ce2","poolManager()":"dc4c90d3","salePeriod(bytes32)":"87c5d99a","tokenSupplyLeft(bytes32)":"d5614e70","tokenToSell(bytes32)":"d4705850","vault()":"fbfa77cf"},"id":151}