{"abi":[{"type":"constructor","inputs":[{"name":"poolManager","type":"address","internalType":"contract ICLPoolManager"}],"stateMutability":"nonpayable"},{"type":"function","name":"afterAddLiquidity","inputs":[{"name":"","type":"address","internalType":"address"},{"name":"","type":"tuple","internalType":"struct PoolKey","components":[{"name":"currency0","type":"address","internalType":"Currency"},{"name":"currency1","type":"address","internalType":"Currency"},{"name":"hooks","type":"address","internalType":"contract IHooks"},{"name":"poolManager","type":"address","internalType":"contract IPoolManager"},{"name":"fee","type":"uint24","internalType":"uint24"},{"name":"parameters","type":"bytes32","internalType":"bytes32"}]},{"name":"","type":"tuple","internalType":"struct ICLPoolManager.ModifyLiquidityParams","components":[{"name":"tickLower","type":"int24","internalType":"int24"},{"name":"tickUpper","type":"int24","internalType":"int24"},{"name":"liquidityDelta","type":"int256","internalType":"int256"},{"name":"salt","type":"bytes32","internalType":"bytes32"}]},{"name":"","type":"int256","internalType":"BalanceDelta"},{"name":"","type":"bytes","internalType":"bytes"}],"outputs":[{"name":"","type":"bytes4","internalType":"bytes4"},{"name":"","type":"int256","internalType":"BalanceDelta"}],"stateMutability":"nonpayable"},{"type":"function","name":"afterDonate","inputs":[{"name":"","type":"address","internalType":"address"},{"name":"","type":"tuple","internalType":"struct PoolKey","components":[{"name":"currency0","type":"address","internalType":"Currency"},{"name":"currency1","type":"address","internalType":"Currency"},{"name":"hooks","type":"address","internalType":"contract IHooks"},{"name":"poolManager","type":"address","internalType":"contract IPoolManager"},{"name":"fee","type":"uint24","internalType":"uint24"},{"name":"parameters","type":"bytes32","internalType":"bytes32"}]},{"name":"","type":"uint256","internalType":"uint256"},{"name":"","type":"uint256","internalType":"uint256"},{"name":"","type":"bytes","internalType":"bytes"}],"outputs":[{"name":"","type":"bytes4","internalType":"bytes4"}],"stateMutability":"nonpayable"},{"type":"function","name":"afterInitialize","inputs":[{"name":"","type":"address","internalType":"address"},{"name":"","type":"tuple","internalType":"struct PoolKey","components":[{"name":"currency0","type":"address","internalType":"Currency"},{"name":"currency1","type":"address","internalType":"Currency"},{"name":"hooks","type":"address","internalType":"contract IHooks"},{"name":"poolManager","type":"address","internalType":"contract IPoolManager"},{"name":"fee","type":"uint24","internalType":"uint24"},{"name":"parameters","type":"bytes32","internalType":"bytes32"}]},{"name":"","type":"uint160","internalType":"uint160"},{"name":"","type":"int24","internalType":"int24"},{"name":"","type":"bytes","internalType":"bytes"}],"outputs":[{"name":"","type":"bytes4","internalType":"bytes4"}],"stateMutability":"nonpayable"},{"type":"function","name":"afterRemoveLiquidity","inputs":[{"name":"","type":"address","internalType":"address"},{"name":"","type":"tuple","internalType":"struct PoolKey","components":[{"name":"currency0","type":"address","internalType":"Currency"},{"name":"currency1","type":"address","internalType":"Currency"},{"name":"hooks","type":"address","internalType":"contract IHooks"},{"name":"poolManager","type":"address","internalType":"contract IPoolManager"},{"name":"fee","type":"uint24","internalType":"uint24"},{"name":"parameters","type":"bytes32","internalType":"bytes32"}]},{"name":"","type":"tuple","internalType":"struct ICLPoolManager.ModifyLiquidityParams","components":[{"name":"tickLower","type":"int24","internalType":"int24"},{"name":"tickUpper","type":"int24","internalType":"int24"},{"name":"liquidityDelta","type":"int256","internalType":"int256"},{"name":"salt","type":"bytes32","internalType":"bytes32"}]},{"name":"","type":"int256","internalType":"BalanceDelta"},{"name":"","type":"bytes","internalType":"bytes"}],"outputs":[{"name":"","type":"bytes4","internalType":"bytes4"},{"name":"","type":"int256","internalType":"BalanceDelta"}],"stateMutability":"nonpayable"},{"type":"function","name":"afterSwap","inputs":[{"name":"","type":"address","internalType":"address"},{"name":"","type":"tuple","internalType":"struct PoolKey","components":[{"name":"currency0","type":"address","internalType":"Currency"},{"name":"currency1","type":"address","internalType":"Currency"},{"name":"hooks","type":"address","internalType":"contract IHooks"},{"name":"poolManager","type":"address","internalType":"contract IPoolManager"},{"name":"fee","type":"uint24","internalType":"uint24"},{"name":"parameters","type":"bytes32","internalType":"bytes32"}]},{"name":"","type":"tuple","internalType":"struct ICLPoolManager.SwapParams","components":[{"name":"zeroForOne","type":"bool","internalType":"bool"},{"name":"amountSpecified","type":"int256","internalType":"int256"},{"name":"sqrtPriceLimitX96","type":"uint160","internalType":"uint160"}]},{"name":"","type":"int256","internalType":"BalanceDelta"},{"name":"","type":"bytes","internalType":"bytes"}],"outputs":[{"name":"","type":"bytes4","internalType":"bytes4"},{"name":"","type":"int128","internalType":"int128"}],"stateMutability":"nonpayable"},{"type":"function","name":"auctionOver","inputs":[{"name":"","type":"bytes32","internalType":"PoolId"}],"outputs":[{"name":"","type":"bool","internalType":"bool"}],"stateMutability":"view"},{"type":"function","name":"beforeAddLiquidity","inputs":[{"name":"","type":"address","internalType":"address"},{"name":"","type":"tuple","internalType":"struct PoolKey","components":[{"name":"currency0","type":"address","internalType":"Currency"},{"name":"currency1","type":"address","internalType":"Currency"},{"name":"hooks","type":"address","internalType":"contract IHooks"},{"name":"poolManager","type":"address","internalType":"contract IPoolManager"},{"name":"fee","type":"uint24","internalType":"uint24"},{"name":"parameters","type":"bytes32","internalType":"bytes32"}]},{"name":"","type":"tuple","internalType":"struct ICLPoolManager.ModifyLiquidityParams","components":[{"name":"tickLower","type":"int24","internalType":"int24"},{"name":"tickUpper","type":"int24","internalType":"int24"},{"name":"liquidityDelta","type":"int256","internalType":"int256"},{"name":"salt","type":"bytes32","internalType":"bytes32"}]},{"name":"","type":"bytes","internalType":"bytes"}],"outputs":[{"name":"","type":"bytes4","internalType":"bytes4"}],"stateMutability":"nonpayable"},{"type":"function","name":"beforeDonate","inputs":[{"name":"","type":"address","internalType":"address"},{"name":"","type":"tuple","internalType":"struct PoolKey","components":[{"name":"currency0","type":"address","internalType":"Currency"},{"name":"currency1","type":"address","internalType":"Currency"},{"name":"hooks","type":"address","internalType":"contract IHooks"},{"name":"poolManager","type":"address","internalType":"contract IPoolManager"},{"name":"fee","type":"uint24","internalType":"uint24"},{"name":"parameters","type":"bytes32","internalType":"bytes32"}]},{"name":"","type":"uint256","internalType":"uint256"},{"name":"","type":"uint256","internalType":"uint256"},{"name":"","type":"bytes","internalType":"bytes"}],"outputs":[{"name":"","type":"bytes4","internalType":"bytes4"}],"stateMutability":"nonpayable"},{"type":"function","name":"beforeInitialize","inputs":[{"name":"","type":"address","internalType":"address"},{"name":"key","type":"tuple","internalType":"struct PoolKey","components":[{"name":"currency0","type":"address","internalType":"Currency"},{"name":"currency1","type":"address","internalType":"Currency"},{"name":"hooks","type":"address","internalType":"contract IHooks"},{"name":"poolManager","type":"address","internalType":"contract IPoolManager"},{"name":"fee","type":"uint24","internalType":"uint24"},{"name":"parameters","type":"bytes32","internalType":"bytes32"}]},{"name":"","type":"uint160","internalType":"uint160"},{"name":"data","type":"bytes","internalType":"bytes"}],"outputs":[{"name":"","type":"bytes4","internalType":"bytes4"}],"stateMutability":"nonpayable"},{"type":"function","name":"beforeRemoveLiquidity","inputs":[{"name":"","type":"address","internalType":"address"},{"name":"","type":"tuple","internalType":"struct PoolKey","components":[{"name":"currency0","type":"address","internalType":"Currency"},{"name":"currency1","type":"address","internalType":"Currency"},{"name":"hooks","type":"address","internalType":"contract IHooks"},{"name":"poolManager","type":"address","internalType":"contract IPoolManager"},{"name":"fee","type":"uint24","internalType":"uint24"},{"name":"parameters","type":"bytes32","internalType":"bytes32"}]},{"name":"","type":"tuple","internalType":"struct ICLPoolManager.ModifyLiquidityParams","components":[{"name":"tickLower","type":"int24","internalType":"int24"},{"name":"tickUpper","type":"int24","internalType":"int24"},{"name":"liquidityDelta","type":"int256","internalType":"int256"},{"name":"salt","type":"bytes32","internalType":"bytes32"}]},{"name":"","type":"bytes","internalType":"bytes"}],"outputs":[{"name":"","type":"bytes4","internalType":"bytes4"}],"stateMutability":"nonpayable"},{"type":"function","name":"beforeSwap","inputs":[{"name":"","type":"address","internalType":"address"},{"name":"key","type":"tuple","internalType":"struct PoolKey","components":[{"name":"currency0","type":"address","internalType":"Currency"},{"name":"currency1","type":"address","internalType":"Currency"},{"name":"hooks","type":"address","internalType":"contract IHooks"},{"name":"poolManager","type":"address","internalType":"contract IPoolManager"},{"name":"fee","type":"uint24","internalType":"uint24"},{"name":"parameters","type":"bytes32","internalType":"bytes32"}]},{"name":"params","type":"tuple","internalType":"struct ICLPoolManager.SwapParams","components":[{"name":"zeroForOne","type":"bool","internalType":"bool"},{"name":"amountSpecified","type":"int256","internalType":"int256"},{"name":"sqrtPriceLimitX96","type":"uint160","internalType":"uint160"}]},{"name":"data","type":"bytes","internalType":"bytes"}],"outputs":[{"name":"","type":"bytes4","internalType":"bytes4"},{"name":"","type":"int256","internalType":"BeforeSwapDelta"},{"name":"","type":"uint24","internalType":"uint24"}],"stateMutability":"nonpayable"},{"type":"function","name":"decayConstant","inputs":[{"name":"","type":"bytes32","internalType":"PoolId"}],"outputs":[{"name":"","type":"int256","internalType":"SD59x18"}],"stateMutability":"view"},{"type":"function","name":"emissionRate","inputs":[{"name":"","type":"bytes32","internalType":"PoolId"}],"outputs":[{"name":"","type":"int256","internalType":"SD59x18"}],"stateMutability":"view"},{"type":"function","name":"getHooksRegistrationBitmap","inputs":[],"outputs":[{"name":"","type":"uint16","internalType":"uint16"}],"stateMutability":"pure"},{"type":"function","name":"initialPrice","inputs":[{"name":"","type":"bytes32","internalType":"PoolId"}],"outputs":[{"name":"","type":"int256","internalType":"SD59x18"}],"stateMutability":"view"},{"type":"function","name":"lastAvailableAuctionStartTime","inputs":[{"name":"","type":"bytes32","internalType":"PoolId"}],"outputs":[{"name":"","type":"int256","internalType":"SD59x18"}],"stateMutability":"view"},{"type":"function","name":"lockAcquired","inputs":[{"name":"data","type":"bytes","internalType":"bytes"}],"outputs":[{"name":"","type":"bytes","internalType":"bytes"}],"stateMutability":"nonpayable"},{"type":"function","name":"paymentToken","inputs":[{"name":"","type":"bytes32","internalType":"PoolId"}],"outputs":[{"name":"","type":"address","internalType":"address"}],"stateMutability":"view"},{"type":"function","name":"poolManager","inputs":[],"outputs":[{"name":"","type":"address","internalType":"contract ICLPoolManager"}],"stateMutability":"view"},{"type":"function","name":"salePeriod","inputs":[{"name":"","type":"bytes32","internalType":"PoolId"}],"outputs":[{"name":"","type":"int256","internalType":"SD59x18"}],"stateMutability":"view"},{"type":"function","name":"tokenSupplyLeft","inputs":[{"name":"","type":"bytes32","internalType":"PoolId"}],"outputs":[{"name":"","type":"int256","internalType":"int256"}],"stateMutability":"view"},{"type":"function","name":"tokenToSell","inputs":[{"name":"","type":"bytes32","internalType":"PoolId"}],"outputs":[{"name":"","type":"address","internalType":"address"}],"stateMutability":"view"},{"type":"function","name":"vault","inputs":[],"outputs":[{"name":"","type":"address","internalType":"contract IVault"}],"stateMutability":"view"},{"type":"error","name":"HookNotImplemented","inputs":[]},{"type":"error","name":"INSUFFICIENT_AVAILABLE_TOKENS","inputs":[]},{"type":"error","name":"INVALID_AMOUNT_SPECIFIED","inputs":[]},{"type":"error","name":"INVALID_DIRECTION","inputs":[]},{"type":"error","name":"INVALID_PARAMETERS","inputs":[]},{"type":"error","name":"INVALID_PAYMENT_TOKEN","inputs":[]},{"type":"error","name":"InvalidPool","inputs":[]},{"type":"error","name":"LockFailure","inputs":[]},{"type":"error","name":"NotPoolManager","inputs":[]},{"type":"error","name":"NotSelf","inputs":[]},{"type":"error","name":"NotVault","inputs":[]},{"type":"error","name":"PRBMath_MulDiv18_Overflow","inputs":[{"name":"x","type":"uint256","internalType":"uint256"},{"name":"y","type":"uint256","internalType":"uint256"}]},{"type":"error","name":"PRBMath_MulDiv_Overflow","inputs":[{"name":"x","type":"uint256","internalType":"uint256"},{"name":"y","type":"uint256","internalType":"uint256"},{"name":"denominator","type":"uint256","internalType":"uint256"}]},{"type":"error","name":"PRBMath_SD59x18_Div_InputTooSmall","inputs":[]},{"type":"error","name":"PRBMath_SD59x18_Div_Overflow","inputs":[{"name":"x","type":"int256","internalType":"SD59x18"},{"name":"y","type":"int256","internalType":"SD59x18"}]},{"type":"error","name":"PRBMath_SD59x18_Exp2_InputTooBig","inputs":[{"name":"x","type":"int256","internalType":"SD59x18"}]},{"type":"error","name":"PRBMath_SD59x18_Exp_InputTooBig","inputs":[{"name":"x","type":"int256","internalType":"SD59x18"}]},{"type":"error","name":"PRBMath_SD59x18_Mul_InputTooSmall","inputs":[]},{"type":"error","name":"PRBMath_SD59x18_Mul_Overflow","inputs":[{"name":"x","type":"int256","internalType":"SD59x18"},{"name":"y","type":"int256","internalType":"SD59x18"}]}],"bytecode":{"object":"0x60c08060405234620000ed5760208162001ea3803803809162000023828562000105565b833981010312620000ed57516001600160a01b0380821691828103620000ed5760805260405163fbfa77cf60e01b815291602090839060049082905afa918215620000fa575f92620000b2575b8260a052604051611d6590816200013e823960805181610729015260a051818181610160015281816104d3015281816107e501528181610a160152610b640152f35b9091506020813d602011620000f1575b81620000d16020938362000105565b81010312620000ed57519081168103620000ed575f8062000070565b5f80fd5b3d9150620000c2565b6040513d5f823e3d90fd5b601f909101601f19168101906001600160401b038211908210176200012957604052565b634e487b7160e01b5f52604160045260245ffdfe6080604081815260049081361015610015575f80fd5b5f3560e01c92836301d46ce214610d9d575082631ffe6a5814610d415782634b6a682d14610d3c5782635304d44e14610d3c5782636f6657cb14610cdb5782637aa43ce01461077e57826385deb13114610cb557826387c5d99a14610c90578263972e19a214610876578263ab6291fe146107b1578263d470585014610783578263d533c4db1461077e578263d5614e7014610758578263dc4c90d314610716578263e117cef9146106eb578263e592dc931461027e578263e8246c7f1461011e578263f0c22c1614610259578263f813206714610233578263f961d1f41461018f578263fbfa77cf1461014d578263fde2572c1461012357505063fe70c9c91461011e575f80fd5b610efa565b3461014957602036600319011261014957602091355f5260038252805f20549051908152f35b5f80fd5b34610149575f36600319011261014957517f00000000000000000000000000000000000000000000000000000000000000006001600160a01b03168152602090f35b34610149575f366003190112610149578051916101c08301908382106001600160401b0383111761022057506101a06020935f92845260018152828582015282848201528260608201528260808201528260a0820152600160c08201528260e08201528261010082015282610120820152600161014082015282610160820152826101808201520152516104418152f35b604190634e487b7160e01b5f525260245ffd5b3461014957602036600319011261014957602091355f5260058252805f20549051908152f35b346101495760203660031901126101495781602092355f528252805f20549051908152f35b90346101495761016036600319011261014957610299610dcd565b5060c03660231901126101495760603660e319011261014957610144356001600160401b038111610149576102d19036908301610e0d565b90809291602093849181010312610149576102eb90610de3565b5060c06102f736610f9e565b20905f916103044261102f565b815f526005855261031f865f20545f8752875f205490611125565b126106d1575b805f526008845260ff855f20541615610355575b845163e592dc9360e01b81528085018490525f81870152606090f35b610104359250905f83126106c35760e435801515809103610149575f83815260068652869020546001600160a01b039190821682610391611060565b1614036106b457825f5260018552855f206103ad85825461110d565b9055825f52600185525f86812054126106a5576103dd6103cc4261102f565b845f5260058752875f20549061110d565b936103fa6103ea8261102f565b855f52848852885f205490611140565b94610404866111e0565b61040d816111e0565b85136106955761041c8161102f565b6104396104284261102f565b865f5260058952895f20549061110d565b855f526002885261048461047f61046f61045e8c5f205460038d528d5f205490611140565b94895f5260038c528c5f205461122d565b885f52878b528b5f205490611140565b6112f6565b90670de0b6b3a763ffff19820191821360011661068257916104c96104ce926104c361047f670de0b6b3a7640000968e60038f8e5f52525f205461122d565b9261122d565b611140565b0591807f000000000000000000000000000000000000000000000000000000000000000016855f526006885281895f20541690803b15610149578951630b0d9c0960e01b81526001600160a01b03909216868301908152306020820152604081018690525f9083908190606001038183855af180156106785784938a93602492610669575b50885f52600784528b5f2054168b519485938492636a256b2960e01b84528a8401525af190811561065f578791610636575b505061059090611354565b600f0b916f7fffffffffffffffffffffffffffffff1983146106235750916105f85f94926105c060609895611354565b6fffffffffffffffffffffffffffffffff1690860360801b179282865260018752848620541561060c575b6005875284862054611125565b908452600585528284205591819450610339565b60088752848620805460ff191660011790556105eb565b601190634e487b7160e01b5f525260245ffd5b813d8311610658575b6106498183610f7d565b81010312610149578588610585565b503d61063f565b88513d5f823e3d90fd5b61067290610f56565b8c610553565b8a513d5f823e3d90fd5b601186634e487b7160e01b5f525260245ffd5b86516364b85e1f60e01b81528390fd5b5084516364b85e1f60e01b8152fd5b50845163768f973b60e01b8152fd5b84516302668eab60e31b8152fd5b805f5260088452845f20600160ff19825416179055610325565b3461014957602036600319011261014957602091355f526008825260ff815f20541690519015158152f35b34610149575f36600319011261014957517f00000000000000000000000000000000000000000000000000000000000000006001600160a01b03168152602090f35b3461014957602036600319011261014957602091355f5260018252805f20549051908152f35b610e9e565b3461014957602036600319011261014957602091355f526007825260018060a01b03815f2054169051908152f35b346101495760209160206003193601126101495780356001600160401b038111610149576107e29036908301610e0d565b917f00000000000000000000000000000000000000000000000000000000000000006001600160a01b0316330361086857509061081e9161108c565b918151928391602083528151918260208501525f5b8381106108525750505f83830185015250601f01601f19168101030190f35b8181018301518782018701528694508201610833565b83516362df054560e01b8152fd5b346101495761012036600319011261014957610890610dcd565b5060c0366023190112610149576108a5610df7565b50610104356001600160401b038111610149576108c59036908401610e0d565b929060e08160c06108d536610f9e565b209581010312610149576020938482013590823590608084013560608501358786013561091060c061090960a08a01610de3565b9801610de3565b506001600160a01b03968716945f81128015610c89575b8015610c80575b8015610c77575b8015610c6e575b610c5e5791610983610993928c5f61096c6109a398978f61095c4261102f565b908c85526005865284205561102f565b91898252528c5f205560018d52888c5f205561102f565b855f5260028c528a5f205561102f565b835f5260038a52885f205561102f565b815f52858852865f205560068752855f20916bffffffffffffffffffffffff60a01b92818482541617905580856109d8611060565b1603610b1e5750836109e8611060565b16905f5260068752855f20908282541617905582610a04611076565b1660078752855f2091825416179055817f00000000000000000000000000000000000000000000000000000000000000001691610a3f611076565b8551636a256b2960e01b8152911684820152858160248185875af18015610b1457908691610aeb575b5050610a72611076565b91803b15610149578451630b0d9c0960e01b81526001600160a01b03909316938301938452306020850152604084019190915290915f91839182908490829060600103925af18015610ae157610ad2575b505b51634b970cd160e11b8152f35b610adb90610f56565b82610ac3565b82513d5f823e3d90fd5b813d8311610b0d575b610afe8183610f7d565b81010312610149578486610a68565b503d610af4565b85513d5f823e3d90fd5b84610b27611076565b1603610c4f5783610b36611076565b16905f5260068752855f20908282541617905582610b52611060565b1660078752855f2091825416179055817f00000000000000000000000000000000000000000000000000000000000000001691610b8d611060565b8551636a256b2960e01b8152911684820152858160248185875af18015610b1457908691610c26575b5050610bc0611060565b91803b15610149578451630b0d9c0960e01b81526001600160a01b03909316938301938452306020850152604084019190915290915f91839182908490829060600103925af18015610ae157610c17575b50610ac5565b610c2090610f56565b82610c11565b813d8311610c48575b610c398183610f7d565b81010312610149578486610bb6565b503d610c2f565b85516241864160e71b81528590fd5b89516301a8140560e21b81528990fd5b505f841261093c565b505f8312610935565b505f821261092e565b505f610927565b3461014957602036600319011261014957602091355f525f8252805f20549051908152f35b3461014957602036600319011261014957602091355f5260028252805f20549051908152f35b346101495761018036600319011261014957610cf5610dcd565b5060c03660231901126101495760603660e319011261014957610164356001600160401b03811161014957610d2d9036908401610e0d565b505051630a85dc2960e01b8152fd5b610e3a565b346101495761014036600319011261014957610d5b610dcd565b5060c036602319011261014957610d70610df7565b50610104358060020b0361014957610124356001600160401b03811161014957610d2d9036908401610e0d565b90346101495760203660031901126101495791355f90815260066020908152929020546001600160a01b03168152f35b600435906001600160a01b038216820361014957565b35906001600160a01b038216820361014957565b60e435906001600160a01b038216820361014957565b9181601f84011215610149578235916001600160401b038311610149576020838186019501011161014957565b3461014957610140366003190112610149576004356001600160a01b038116036101495760c036602319011261014957610124356001600160401b03811161014957610e8a903690600401610e0d565b5050604051630a85dc2960e01b8152600490fd5b34610149576101a0366003190112610149576004356001600160a01b038116036101495760c03660231901126101495760803660e319011261014957610184356001600160401b03811161014957610e8a903690600401610e0d565b3461014957610180366003190112610149576004356001600160a01b038116036101495760c03660231901126101495760803660e319011261014957610164356001600160401b03811161014957610e8a903690600401610e0d565b6001600160401b038111610f6957604052565b634e487b7160e01b5f52604160045260245ffd5b90601f801991011681019081106001600160401b03821117610f6957604052565b60c0906023190112610149576040519060c082018281106001600160401b03821117610f6957604052816001600160a01b03602435818116810361014957825260443581811681036101495760208301526064358181168103610149576040830152608435908116810361014957606082015260a43562ffffff8116810361014957608082015260a060c435910152565b90670de0b6b3a76400009182810292818405149015171561104c57565b634e487b7160e01b5f52601160045260245ffd5b6024356001600160a01b03811681036101495790565b6044356001600160a01b03811681036101495790565b5f9182918160405192839283378101838152039082305af1903d15611105573d916001600160401b038311610f6957604051926110d3601f8201601f191660200185610f7d565b83523d5f602085013e5b61110357508051156110f157602081519101fd5b6040516314815f4760e31b8152600490fd5b565b6060916110dd565b81810392915f13801582851316918412161761104c57565b9190915f838201938412911290801582169115161761104c57565b600160ff1b8181149081156111d6575b506111c4575f8112156111bb57611175815f035b5f8412156111b457835f0390611373565b916001600160ff1b038311611196575f19911813156111915790565b5f0390565b604492506040519163d49c26b360e01b835260048301526024820152fd5b8390611373565b61117581611164565b6040516309fe2b4560e41b8152600490fd5b905082145f611150565b604051906020820190634e0c1d1d60e01b825260248301526024825260608201908282106001600160401b03831117610f69575f92839260405251906a636f6e736f6c652e6c6f675afa50565b600160ff1b8181149081156112be575b506112ac575f8112156112a357611262815f035b5f84121561129c57835f0390611422565b916001600160ff1b03831161127e575f19911813156111915790565b604492506040519163120b5b4360e01b835260048301526024820152fd5b8390611422565b61126281611251565b60405163a6070c2560e01b8152600490fd5b905082145f61123d565b80156112e2576ec097ce7bc90715b34b9f10000000000590565b634e487b7160e01b5f52601260045260245ffd5b68023f2fa8f6da5b9d3119811261134f57680736ea4425c11ac630811361133757670de0b6b3a76400006714057b7ef767814f6113349202056114b7565b90565b6024906040519063ca7ec0c560e01b82526004820152fd5b505f90565b6001607f1b81101561136657600f0b90565b6393dafdf15f526004601cfd5b670de0b6b3a7640000915f19838309928083029283808610950394808603951461141457828510156113f1579082910960018219018216809204600280826003021880830282030280830282030280830282030280830282030280830282030280920290030293600183805f03040190848311900302920304170290565b8260649260405192630c740aef60e31b8452600484015260248301526044820152fd5b5050809250156112e2570490565b9091905f19838209838202918280831092039180830392146114a657670de0b6b3a7640000908183101561148857947faccb18165bd6fe31ae1cf318dc5b51eee0e1ba569b88cd74c1773b91fac1066994950990828211900360ee1b910360121c170290565b6044908660405191635173648d60e01b835260048301526024820152fd5b5050670de0b6b3a764000090049150565b5f8112156114e45768033dd1780914b9711419811261134f576114db905f036114b7565b611334906112c8565b680a688906bd8affffff8113611d1857670de0b6b3a764000080604092831b0590600160bf1b67ff000000000000008316611c07575b66ff0000000000008316611aff575b65ff000000000083166119ff575b64ff000000008316611907575b63ff0000008316611817575b62ff0000831661172f575b61ff00831661164f575b60ff8316611578575b02911c60bf031c90565b6080831661163d575b83831661162b575b60208316611619575b60108316611607575b600883166115f5575b600483166115e3575b600283166115d1575b600183161561156e576801000000000000000102831c61156e565b6801000000000000000102831c6115b6565b6801000000000000000302831c6115ad565b6801000000000000000602831c6115a4565b6801000000000000000b02831c61159b565b6801000000000000001602831c611592565b6801000000000000002c02831c611589565b6801000000000000005902831c611581565b618000831661171d575b614000831661170b575b61200083166116f9575b61100083166116e7575b61080083166116d5575b61040083166116c3575b61020083166116b1575b61010083161561156557680100000000000000b102831c611565565b6801000000000000016302831c611695565b680100000000000002c602831c61168b565b6801000000000000058c02831c611681565b68010000000000000b1702831c611677565b6801000000000000162e02831c61166d565b68010000000000002c5d02831c611663565b680100000000000058b902831c611659565b628000008316611805575b6240000083166117f3575b6220000083166117e1575b6210000083166117cf575b6208000083166117bd575b6204000083166117ab575b620200008316611799575b6201000083161561155b576801000000000000b17202831c61155b565b680100000000000162e402831c61177c565b6801000000000002c5c802831c611771565b68010000000000058b9102831c611766565b680100000000000b172102831c61175b565b68010000000000162e4302831c611750565b680100000000002c5c8602831c611745565b6801000000000058b90c02831c61173a565b638000000083166118f5575b634000000083166118e3575b632000000083166118d1575b631000000083166118bf575b630800000083166118ad575b6304000000831661189b575b63020000008316611889575b63010000008316156115505768010000000000b1721802831c611550565b6801000000000162e43002831c61186b565b68010000000002c5c86002831c61185f565b680100000000058b90c002831c611853565b6801000000000b17217f02831c611847565b680100000000162e42ff02831c61183b565b6801000000002c5c85fe02831c61182f565b68010000000058b90bfc02831c611823565b64800000000083166119ed575b64400000000083166119db575b64200000000083166119c9575b64100000000083166119b7575b64080000000083166119a5575b6404000000008316611993575b6402000000008316611981575b64010000000083161561154457680100000000b17217f802831c611544565b68010000000162e42ff102831c611962565b680100000002c5c85fe302831c611955565b6801000000058b90bfce02831c611948565b68010000000b17217fbb02831c61193b565b6801000000162e42fff002831c61192e565b68010000002c5c8601cc02831c611921565b680100000058b90c0b4902831c611914565b658000000000008316611aed575b654000000000008316611adb575b652000000000008316611ac9575b651000000000008316611ab7575b650800000000008316611aa5575b650400000000008316611a93575b650200000000008316611a81575b65010000000000831615611537576801000000b17218355102831c611537565b680100000162e430e5a202831c611a61565b6801000002c5c863b73f02831c611a53565b68010000058b90cf1e6e02831c611a45565b680100000b1721bcfc9a02831c611a37565b68010000162e43f4f83102831c611a29565b680100002c5c89d5ec6d02831c611a1b565b6801000058b91b5bc9ae02831c611a0d565b66800000000000008316611bf5575b66400000000000008316611be3575b66200000000000008316611bd1575b66100000000000008316611bbf575b66080000000000008316611bad575b66040000000000008316611b9b575b66020000000000008316611b89575b66010000000000008316156115295768010000b17255775c0402831c611529565b6801000162e525ee054702831c611b68565b68010002c5cc37da949202831c611b59565b680100058ba01fb9f96d02831c611b4a565b6801000b175effdc76ba02831c611b3b565b680100162f3904051fa102831c611b2c565b6801002c605e2e8cec5002831c611b1d565b68010058c86da1c09ea202831c611b0e565b6780000000000000008316611d05575b6740000000000000008316611cf3575b6720000000000000008316611ce1575b6710000000000000008316611ccf575b6708000000000000008316611cbd575b6704000000000000008316611cab575b6702000000000000008316611c99575b67010000000000000083161561151a57680100b1afa5abcbed6102831c61151a565b68010163da9fb33356d802831c611c77565b680102c9a3e778060ee702831c611c67565b6801059b0d31585743ae02831c611c57565b68010b5586cf9890f62a02831c611c47565b6801172b83c7d517adce02831c611c37565b6801306fe0a31b7152df02831c611c27565b5068016a09e667f3bcc909607f1b611c17565b60249060405190626c1a0560e31b82526004820152fdfea26469706673582212209acaea793ee8a92f0e9aa933feaac709fd56c9da7bf3fa52b2ca1753520cac0864736f6c63430008180033","linkReferences":{}},"methodIdentifiers":{"afterAddLiquidity(address,(address,address,address,address,uint24,bytes32),(int24,int24,int256,bytes32),int256,bytes)":"d533c4db","afterDonate(address,(address,address,address,address,uint24,bytes32),uint256,uint256,bytes)":"5304d44e","afterInitialize(address,(address,address,address,address,uint24,bytes32),uint160,int24,bytes)":"1ffe6a58","afterRemoveLiquidity(address,(address,address,address,address,uint24,bytes32),(int24,int24,int256,bytes32),int256,bytes)":"7aa43ce0","afterSwap(address,(address,address,address,address,uint24,bytes32),(bool,int256,uint160),int256,bytes)":"6f6657cb","auctionOver(bytes32)":"e117cef9","beforeAddLiquidity(address,(address,address,address,address,uint24,bytes32),(int24,int24,int256,bytes32),bytes)":"fe70c9c9","beforeDonate(address,(address,address,address,address,uint24,bytes32),uint256,uint256,bytes)":"4b6a682d","beforeInitialize(address,(address,address,address,address,uint24,bytes32),uint160,bytes)":"972e19a2","beforeRemoveLiquidity(address,(address,address,address,address,uint24,bytes32),(int24,int24,int256,bytes32),bytes)":"e8246c7f","beforeSwap(address,(address,address,address,address,uint24,bytes32),(bool,int256,uint160),bytes)":"e592dc93","decayConstant(bytes32)":"fde2572c","emissionRate(bytes32)":"f0c22c16","getHooksRegistrationBitmap()":"f961d1f4","initialPrice(bytes32)":"85deb131","lastAvailableAuctionStartTime(bytes32)":"f8132067","lockAcquired(bytes)":"ab6291fe","paymentToken(bytes32)":"01d46ce2","poolManager()":"dc4c90d3","salePeriod(bytes32)":"87c5d99a","tokenSupplyLeft(bytes32)":"d5614e70","tokenToSell(bytes32)":"d4705850","vault()":"fbfa77cf"},"id":79}