{"abi":[{"type":"function","name":"DYNAMIC_FEE_FLAG","inputs":[],"outputs":[{"name":"","type":"uint24","internalType":"uint24"}],"stateMutability":"view"},{"type":"function","name":"ONE_HUNDRED_PERCENT_FEE","inputs":[],"outputs":[{"name":"","type":"uint24","internalType":"uint24"}],"stateMutability":"view"},{"type":"function","name":"OVERRIDE_FEE_FLAG","inputs":[],"outputs":[{"name":"","type":"uint24","internalType":"uint24"}],"stateMutability":"view"},{"type":"function","name":"OVERRIDE_MASK","inputs":[],"outputs":[{"name":"","type":"uint24","internalType":"uint24"}],"stateMutability":"view"},{"type":"function","name":"TEN_PERCENT_FEE","inputs":[],"outputs":[{"name":"","type":"uint24","internalType":"uint24"}],"stateMutability":"view"},{"type":"error","name":"FeeTooLarge","inputs":[]}],"bytecode":{"object":"0x608080604052346100195760f8908161001e823930815050f35b5f80fdfe60808060405260043610156011575f80fd5b5f3560e01c9081633b01d64d1460ad5750806369a50da91460965780636f3888f514607f578063c1d217e91460685763f26ef49d14604d575f80fd5b5f3660031901126064576020604051628000008152f35b5f80fd5b5f3660031901126064576020604051620186a08152f35b5f3660031901126064576020604051620f42408152f35b5f366003190112606457602060405162bfffff8152f35b5f366003190112606457806240000060209252f3fea2646970667358221220480e508d11bc5515d444e0de12541bc1140807a14f28f59e6b40481e28bdc8cb64736f6c63430008180033","linkReferences":{}},"methodIdentifiers":{"DYNAMIC_FEE_FLAG()":"f26ef49d","ONE_HUNDRED_PERCENT_FEE()":"6f3888f5","OVERRIDE_FEE_FLAG()":"3b01d64d","OVERRIDE_MASK()":"69a50da9","TEN_PERCENT_FEE()":"c1d217e9"},"id":16}